{
  "contractName": "Collection",
  "abi": [
    {
      "inputs": [
        {
          "internalType": "string",
          "name": "name",
          "type": "string"
        },
        {
          "internalType": "string",
          "name": "symbol",
          "type": "string"
        }
      ],
      "stateMutability": "nonpayable",
      "type": "constructor"
    },
    {
      "anonymous": false,
      "inputs": [
        {
          "indexed": true,
          "internalType": "address",
          "name": "owner",
          "type": "address"
        },
        {
          "indexed": true,
          "internalType": "address",
          "name": "approved",
          "type": "address"
        },
        {
          "indexed": true,
          "internalType": "uint256",
          "name": "tokenId",
          "type": "uint256"
        }
      ],
      "name": "Approval",
      "type": "event"
    },
    {
      "anonymous": false,
      "inputs": [
        {
          "indexed": true,
          "internalType": "address",
          "name": "owner",
          "type": "address"
        },
        {
          "indexed": true,
          "internalType": "address",
          "name": "operator",
          "type": "address"
        },
        {
          "indexed": false,
          "internalType": "bool",
          "name": "approved",
          "type": "bool"
        }
      ],
      "name": "ApprovalForAll",
      "type": "event"
    },
    {
      "anonymous": false,
      "inputs": [
        {
          "indexed": true,
          "internalType": "address",
          "name": "previousOwner",
          "type": "address"
        },
        {
          "indexed": true,
          "internalType": "address",
          "name": "newOwner",
          "type": "address"
        }
      ],
      "name": "OwnershipTransferred",
      "type": "event"
    },
    {
      "anonymous": false,
      "inputs": [
        {
          "indexed": true,
          "internalType": "address",
          "name": "from",
          "type": "address"
        },
        {
          "indexed": true,
          "internalType": "address",
          "name": "to",
          "type": "address"
        },
        {
          "indexed": true,
          "internalType": "uint256",
          "name": "tokenId",
          "type": "uint256"
        }
      ],
      "name": "Transfer",
      "type": "event"
    },
    {
      "inputs": [
        {
          "internalType": "address",
          "name": "to",
          "type": "address"
        },
        {
          "internalType": "uint256",
          "name": "tokenId",
          "type": "uint256"
        }
      ],
      "name": "approve",
      "outputs": [],
      "stateMutability": "nonpayable",
      "type": "function"
    },
    {
      "inputs": [
        {
          "internalType": "address",
          "name": "owner",
          "type": "address"
        }
      ],
      "name": "balanceOf",
      "outputs": [
        {
          "internalType": "uint256",
          "name": "",
          "type": "uint256"
        }
      ],
      "stateMutability": "view",
      "type": "function"
    },
    {
      "inputs": [
        {
          "internalType": "uint256",
          "name": "tokenId",
          "type": "uint256"
        }
      ],
      "name": "getApproved",
      "outputs": [
        {
          "internalType": "address",
          "name": "",
          "type": "address"
        }
      ],
      "stateMutability": "view",
      "type": "function"
    },
    {
      "inputs": [
        {
          "internalType": "address",
          "name": "owner",
          "type": "address"
        },
        {
          "internalType": "address",
          "name": "operator",
          "type": "address"
        }
      ],
      "name": "isApprovedForAll",
      "outputs": [
        {
          "internalType": "bool",
          "name": "",
          "type": "bool"
        }
      ],
      "stateMutability": "view",
      "type": "function"
    },
    {
      "inputs": [],
      "name": "name",
      "outputs": [
        {
          "internalType": "string",
          "name": "",
          "type": "string"
        }
      ],
      "stateMutability": "view",
      "type": "function"
    },
    {
      "inputs": [],
      "name": "owner",
      "outputs": [
        {
          "internalType": "address",
          "name": "",
          "type": "address"
        }
      ],
      "stateMutability": "view",
      "type": "function"
    },
    {
      "inputs": [
        {
          "internalType": "uint256",
          "name": "tokenId",
          "type": "uint256"
        }
      ],
      "name": "ownerOf",
      "outputs": [
        {
          "internalType": "address",
          "name": "",
          "type": "address"
        }
      ],
      "stateMutability": "view",
      "type": "function"
    },
    {
      "inputs": [],
      "name": "renounceOwnership",
      "outputs": [],
      "stateMutability": "nonpayable",
      "type": "function"
    },
    {
      "inputs": [
        {
          "internalType": "address",
          "name": "from",
          "type": "address"
        },
        {
          "internalType": "address",
          "name": "to",
          "type": "address"
        },
        {
          "internalType": "uint256",
          "name": "tokenId",
          "type": "uint256"
        }
      ],
      "name": "safeTransferFrom",
      "outputs": [],
      "stateMutability": "nonpayable",
      "type": "function"
    },
    {
      "inputs": [
        {
          "internalType": "address",
          "name": "from",
          "type": "address"
        },
        {
          "internalType": "address",
          "name": "to",
          "type": "address"
        },
        {
          "internalType": "uint256",
          "name": "tokenId",
          "type": "uint256"
        },
        {
          "internalType": "bytes",
          "name": "_data",
          "type": "bytes"
        }
      ],
      "name": "safeTransferFrom",
      "outputs": [],
      "stateMutability": "nonpayable",
      "type": "function"
    },
    {
      "inputs": [
        {
          "internalType": "address",
          "name": "operator",
          "type": "address"
        },
        {
          "internalType": "bool",
          "name": "approved",
          "type": "bool"
        }
      ],
      "name": "setApprovalForAll",
      "outputs": [],
      "stateMutability": "nonpayable",
      "type": "function"
    },
    {
      "inputs": [],
      "name": "symbol",
      "outputs": [
        {
          "internalType": "string",
          "name": "",
          "type": "string"
        }
      ],
      "stateMutability": "view",
      "type": "function"
    },
    {
      "inputs": [
        {
          "internalType": "uint256",
          "name": "index",
          "type": "uint256"
        }
      ],
      "name": "tokenByIndex",
      "outputs": [
        {
          "internalType": "uint256",
          "name": "",
          "type": "uint256"
        }
      ],
      "stateMutability": "view",
      "type": "function"
    },
    {
      "inputs": [
        {
          "internalType": "address",
          "name": "owner",
          "type": "address"
        },
        {
          "internalType": "uint256",
          "name": "index",
          "type": "uint256"
        }
      ],
      "name": "tokenOfOwnerByIndex",
      "outputs": [
        {
          "internalType": "uint256",
          "name": "",
          "type": "uint256"
        }
      ],
      "stateMutability": "view",
      "type": "function"
    },
    {
      "inputs": [],
      "name": "totalSupply",
      "outputs": [
        {
          "internalType": "uint256",
          "name": "",
          "type": "uint256"
        }
      ],
      "stateMutability": "view",
      "type": "function"
    },
    {
      "inputs": [
        {
          "internalType": "address",
          "name": "from",
          "type": "address"
        },
        {
          "internalType": "address",
          "name": "to",
          "type": "address"
        },
        {
          "internalType": "uint256",
          "name": "tokenId",
          "type": "uint256"
        }
      ],
      "name": "transferFrom",
      "outputs": [],
      "stateMutability": "nonpayable",
      "type": "function"
    },
    {
      "inputs": [
        {
          "internalType": "address",
          "name": "newOwner",
          "type": "address"
        }
      ],
      "name": "transferOwnership",
      "outputs": [],
      "stateMutability": "nonpayable",
      "type": "function"
    },
    {
      "inputs": [
        {
          "internalType": "address",
          "name": "userAddress",
          "type": "address"
        }
      ],
      "name": "getOwnershipRecord",
      "outputs": [
        {
          "components": [
            {
              "internalType": "uint256",
              "name": "tokenId",
              "type": "uint256"
            },
            {
              "internalType": "uint256",
              "name": "timeStamp",
              "type": "uint256"
            },
            {
              "internalType": "string",
              "name": "tokenURI",
              "type": "string"
            }
          ],
          "internalType": "struct CollectionData.tokenMetaData[]",
          "name": "",
          "type": "tuple[]"
        }
      ],
      "stateMutability": "view",
      "type": "function"
    },
    {
      "inputs": [
        {
          "internalType": "uint256",
          "name": "tokenId",
          "type": "uint256"
        }
      ],
      "name": "getTokenMetaDataFromID",
      "outputs": [
        {
          "internalType": "uint256",
          "name": "",
          "type": "uint256"
        },
        {
          "internalType": "uint256",
          "name": "",
          "type": "uint256"
        },
        {
          "internalType": "string",
          "name": "",
          "type": "string"
        }
      ],
      "stateMutability": "view",
      "type": "function"
    },
    {
      "inputs": [
        {
          "internalType": "address",
          "name": "_recipient",
          "type": "address"
        },
        {
          "internalType": "string",
          "name": "_tokenURI",
          "type": "string"
        }
      ],
      "name": "mintToken",
      "outputs": [],
      "stateMutability": "nonpayable",
      "type": "function"
    },
    {
      "inputs": [
        {
          "internalType": "bytes4",
          "name": "interfaceId",
          "type": "bytes4"
        }
      ],
      "name": "supportsInterface",
      "outputs": [
        {
          "internalType": "bool",
          "name": "",
          "type": "bool"
        }
      ],
      "stateMutability": "view",
      "type": "function"
    },
    {
      "inputs": [
        {
          "internalType": "uint256",
          "name": "tokenId",
          "type": "uint256"
        }
      ],
      "name": "tokenURI",
      "outputs": [
        {
          "internalType": "string",
          "name": "",
          "type": "string"
        }
      ],
      "stateMutability": "view",
      "type": "function"
    }
  ],
  "bytecode": "0x60806040523480156200001157600080fd5b50604051620026cb380380620026cb8339810160408190526200003491620002dd565b604080518082018252600481527f6e616d650000000000000000000000000000000000000000000000000000000060208083019182528351808501909452600684527f73796d626f6c0000000000000000000000000000000000000000000000000000908401528151919291620000ae9160009162000151565b508051620000c490600190602084019062000151565b505050620000f3620000e4620000fb640100000000026401000000009004565b640100000000620000ff810204565b50506200039c565b3390565b600b8054600160a060020a03838116600160a060020a0319831681179093556040519116919082907f8be0079c531659141344cd1fd0a4f28419497f9722a3daafe3b4186f6b6457e090600090a35050565b8280546200015f9062000347565b90600052602060002090601f016020900481019282620001835760008555620001ce565b82601f106200019e57805160ff1916838001178555620001ce565b82800160010185558215620001ce579182015b82811115620001ce578251825591602001919060010190620001b1565b50620001dc929150620001e0565b5090565b5b80821115620001dc5760008155600101620001e1565b7f4e487b7100000000000000000000000000000000000000000000000000000000600052604160045260246000fd5b600082601f8301126200023857600080fd5b81516001604060020a0380821115620002555762000255620001f7565b604051601f8301601f19908116603f01168101908282118183101715620002805762000280620001f7565b816040528381526020925086838588010111156200029d57600080fd5b600091505b83821015620002c15785820183015181830184015290820190620002a2565b83821115620002d35760008385830101525b9695505050505050565b60008060408385031215620002f157600080fd5b82516001604060020a03808211156200030957600080fd5b620003178683870162000226565b935060208501519150808211156200032e57600080fd5b506200033d8582860162000226565b9150509250929050565b6002810460018216806200035c57607f821691505b60208210810362000396577f4e487b7100000000000000000000000000000000000000000000000000000000600052602260045260246000fd5b50919050565b61231f80620003ac6000396000f3fe608060405234801561001057600080fd5b506004361061015f576000357c01000000000000000000000000000000000000000000000000000000009004806370a08231116100d5578063a22cb46511610099578063a22cb465146102b9578063b88d4fde146102cc578063c87b56dd146102df578063d6fbf0ad146102f2578063e985e9c514610314578063f2fde38b1461035057600080fd5b806370a0823114610265578063715018a6146102785780638da5cb5b1461028057806395d89b4114610291578063a160ee501461029957600080fd5b806323b872dd1161012757806323b872dd146101f35780632f745c59146102065780633d02d0c91461021957806342842e0e1461022c5780634f6ccce71461023f5780636352211e1461025257600080fd5b806301ffc9a71461016457806306fdde031461018c578063081812fc146101a1578063095ea7b3146101cc57806318160ddd146101e1575b600080fd5b610177610172366004611ca3565b610363565b60405190151581526020015b60405180910390f35b610194610374565b6040516101839190611d18565b6101b46101af366004611d2b565b610406565b604051600160a060020a039091168152602001610183565b6101df6101da366004611d60565b6104a7565b005b6008545b604051908152602001610183565b6101df610201366004611d8a565b6105de565b6101e5610214366004611d60565b610612565b6101df610227366004611e55565b6106bd565b6101df61023a366004611d8a565b610719565b6101e561024d366004611d2b565b610734565b6101b4610260366004611d2b565b6107db565b6101e5610273366004611eb7565b610869565b6101df610906565b600b54600160a060020a03166101b4565b61019461093f565b6102ac6102a7366004611eb7565b61094e565b6040516101839190611ed2565b6101df6102c7366004611f4e565b610a69565b6101df6102da366004611f8a565b610a78565b6101946102ed366004611d2b565b610ab3565b610305610300366004611d2b565b610abe565b60405161018393929190612006565b61017761032236600461202e565b600160a060020a03918216600090815260056020908152604080832093909416825291909152205460ff1690565b6101df61035e366004611eb7565b610bfa565b600061036e82610cb2565b92915050565b60606000805461038390612061565b80601f01602080910402602001604051908101604052809291908181526020018280546103af90612061565b80156103fc5780601f106103d1576101008083540402835291602001916103fc565b820191906000526020600020905b8154815290600101906020018083116103df57829003601f168201915b5050505050905090565b600061041182610cf0565b61048b5760405160e560020a62461bcd02815260206004820152602c60248201527f4552433732313a20617070726f76656420717565727920666f72206e6f6e657860448201527f697374656e7420746f6b656e000000000000000000000000000000000000000060648201526084015b60405180910390fd5b50600090815260046020526040902054600160a060020a031690565b60006104b2826107db565b905080600160a060020a031683600160a060020a03160361053e5760405160e560020a62461bcd02815260206004820152602160248201527f4552433732313a20617070726f76616c20746f2063757272656e74206f776e6560448201527f72000000000000000000000000000000000000000000000000000000000000006064820152608401610482565b33600160a060020a038216148061055a575061055a8133610322565b6105cf5760405160e560020a62461bcd02815260206004820152603860248201527f4552433732313a20617070726f76652063616c6c6572206973206e6f74206f7760448201527f6e6572206e6f7220617070726f76656420666f7220616c6c00000000000000006064820152608401610482565b6105d98383610d0d565b505050565b6105e83382610d88565b6106075760405160e560020a62461bcd0281526004016104829061209e565b6105d9838383610e86565b600061061d83610869565b82106106945760405160e560020a62461bcd02815260206004820152602b60248201527f455243373231456e756d657261626c653a206f776e657220696e646578206f7560448201527f74206f6620626f756e64730000000000000000000000000000000000000000006064820152608401610482565b50600160a060020a03919091166000908152600660209081526040808320938352929052205490565b600b54600160a060020a031633146106ea5760405160e560020a62461bcd028152600401610482906120fb565b6106f8600c80546001019055565b6000610703600c5490565b905061070f8382611071565b6105d9818361108b565b6105d983838360405180602001604052806000815250610a78565b600061073f60085490565b82106107b65760405160e560020a62461bcd02815260206004820152602c60248201527f455243373231456e756d657261626c653a20676c6f62616c20696e646578206f60448201527f7574206f6620626f756e647300000000000000000000000000000000000000006064820152608401610482565b600882815481106107c9576107c9612130565b90600052602060002001549050919050565b600081815260026020526040812054600160a060020a03168061036e5760405160e560020a62461bcd02815260206004820152602960248201527f4552433732313a206f776e657220717565727920666f72206e6f6e657869737460448201527f656e7420746f6b656e00000000000000000000000000000000000000000000006064820152608401610482565b6000600160a060020a0382166108ea5760405160e560020a62461bcd02815260206004820152602a60248201527f4552433732313a2062616c616e636520717565727920666f7220746865207a6560448201527f726f2061646472657373000000000000000000000000000000000000000000006064820152608401610482565b50600160a060020a031660009081526003602052604090205490565b600b54600160a060020a031633146109335760405160e560020a62461bcd028152600401610482906120fb565b61093d6000611128565b565b60606001805461038390612061565b600160a060020a0381166000908152600d60209081526040808320805482518185028101850190935280835260609492939192909184015b82821015610a5e578382906000526020600020906003020160405180606001604052908160008201548152602001600182015481526020016002820180546109cd90612061565b80601f01602080910402602001604051908101604052809291908181526020018280546109f990612061565b8015610a465780601f10610a1b57610100808354040283529160200191610a46565b820191906000526020600020905b815481529060010190602001808311610a2957829003601f168201915b50505050508152505081526020019060010190610986565b505050509050919050565b610a74338383611187565b5050565b610a823383610d88565b610aa15760405160e560020a62461bcd0281526004016104829061209e565b610aad84848484611258565b50505050565b606061036e8261128e565b6000806060610acc600c5490565b8411610b435760405160e560020a62461bcd02815260206004820152602360248201527f5468697320746f6b656e204944206861736e74206265656e206d696e7465642060448201527f79657400000000000000000000000000000000000000000000000000000000006064820152608401610482565b6000848152600e6020526040902080546001820154600290920180549192918190610b6d90612061565b80601f0160208091040260200160405190810160405280929190818152602001828054610b9990612061565b8015610be65780601f10610bbb57610100808354040283529160200191610be6565b820191906000526020600020905b815481529060010190602001808311610bc957829003601f168201915b505050505090509250925092509193909250565b600b54600160a060020a03163314610c275760405160e560020a62461bcd028152600401610482906120fb565b600160a060020a038116610ca65760405160e560020a62461bcd02815260206004820152602660248201527f4f776e61626c653a206e6577206f776e657220697320746865207a65726f206160448201527f64647265737300000000000000000000000000000000000000000000000000006064820152608401610482565b610caf81611128565b50565b6000600160e060020a031982167f780e9d6300000000000000000000000000000000000000000000000000000000148061036e575061036e8261140b565b600090815260026020526040902054600160a060020a0316151590565b6000818152600460205260409020805473ffffffffffffffffffffffffffffffffffffffff1916600160a060020a0384169081179091558190610d4f826107db565b600160a060020a03167f8c5be1e5ebec7d5bd14f71427d1e84f3dd0314c0f7b2291e5b200ac8c7c3b92560405160405180910390a45050565b6000610d9382610cf0565b610e085760405160e560020a62461bcd02815260206004820152602c60248201527f4552433732313a206f70657261746f7220717565727920666f72206e6f6e657860448201527f697374656e7420746f6b656e00000000000000000000000000000000000000006064820152608401610482565b6000610e13836107db565b905080600160a060020a031684600160a060020a03161480610e5a5750600160a060020a0380821660009081526005602090815260408083209388168352929052205460ff165b80610e7e575083600160a060020a0316610e7384610406565b600160a060020a0316145b949350505050565b82600160a060020a0316610e99826107db565b600160a060020a031614610f185760405160e560020a62461bcd02815260206004820152602560248201527f4552433732313a207472616e736665722066726f6d20696e636f72726563742060448201527f6f776e65720000000000000000000000000000000000000000000000000000006064820152608401610482565b600160a060020a038216610f965760405160e560020a62461bcd028152602060048201526024808201527f4552433732313a207472616e7366657220746f20746865207a65726f2061646460448201527f72657373000000000000000000000000000000000000000000000000000000006064820152608401610482565b610fa18383836114a6565b610fac600082610d0d565b600160a060020a0383166000908152600360205260408120805460019290610fd5908490612162565b9091555050600160a060020a0382166000908152600360205260408120805460019290611003908490612179565b9091555050600081815260026020526040808220805473ffffffffffffffffffffffffffffffffffffffff1916600160a060020a0386811691821790925591518493918716917fddf252ad1be2c89b69c2b068fc378daa952ba7f163c4a11628f55a4df523b3ef91a4505050565b610a748282604051806020016040528060008152506114b1565b61109482610cf0565b6111095760405160e560020a62461bcd02815260206004820152602e60248201527f45524337323155524953746f726167653a2055524920736574206f66206e6f6e60448201527f6578697374656e7420746f6b656e0000000000000000000000000000000000006064820152608401610482565b6000828152600a6020908152604090912082516105d992840190611bf4565b600b8054600160a060020a0383811673ffffffffffffffffffffffffffffffffffffffff19831681179093556040519116919082907f8be0079c531659141344cd1fd0a4f28419497f9722a3daafe3b4186f6b6457e090600090a35050565b81600160a060020a031683600160a060020a0316036111eb5760405160e560020a62461bcd02815260206004820152601960248201527f4552433732313a20617070726f766520746f2063616c6c6572000000000000006044820152606401610482565b600160a060020a03838116600081815260056020908152604080832094871680845294825291829020805460ff191686151590811790915591519182527f17307eab39ab6107e8899845ad3d59bd9653f200f220920489ca2b5937696c31910160405180910390a3505050565b611263848484610e86565b61126f848484846114e7565b610aad5760405160e560020a62461bcd02815260040161048290612191565b606061129982610cf0565b61130e5760405160e560020a62461bcd02815260206004820152603160248201527f45524337323155524953746f726167653a2055524920717565727920666f722060448201527f6e6f6e6578697374656e7420746f6b656e0000000000000000000000000000006064820152608401610482565b6000828152600a60205260408120805461132790612061565b80601f016020809104026020016040519081016040528092919081815260200182805461135390612061565b80156113a05780601f10611375576101008083540402835291602001916113a0565b820191906000526020600020905b81548152906001019060200180831161138357829003601f168201915b5050505050905060006113be60408051602081019091526000815290565b905080516000036113d0575092915050565b8151156114025780826040516020016113ea9291906121ee565b60405160208183030381529060405292505050919050565b610e7e8461161d565b6000600160e060020a031982167f80ac58cd00000000000000000000000000000000000000000000000000000000148061146e5750600160e060020a031982167f5b5e139f00000000000000000000000000000000000000000000000000000000145b8061036e57507f01ffc9a700000000000000000000000000000000000000000000000000000000600160e060020a031983161461036e565b6105d9838383611706565b6114bb83836117be565b6114c860008484846114e7565b6105d95760405160e560020a62461bcd02815260040161048290612191565b6000600160a060020a0384163b15611612576040517f150b7a02000000000000000000000000000000000000000000000000000000008152600160a060020a0385169063150b7a029061154490339089908890889060040161221d565b6020604051808303816000875af192505050801561157f575060408051601f3d908101601f1916820190925261157c91810190612259565b60015b6115df573d8080156115ad576040519150601f19603f3d011682016040523d82523d6000602084013e6115b2565b606091505b5080516000036115d75760405160e560020a62461bcd02815260040161048290612191565b805181602001fd5b600160e060020a0319167f150b7a0200000000000000000000000000000000000000000000000000000000149050610e7e565b506001949350505050565b606061162882610cf0565b61169d5760405160e560020a62461bcd02815260206004820152602f60248201527f4552433732314d657461646174613a2055524920717565727920666f72206e6f60448201527f6e6578697374656e7420746f6b656e00000000000000000000000000000000006064820152608401610482565b60006116b460408051602081019091526000815290565b905060008151116116d457604051806020016040528060008152506116ff565b806116de84611910565b6040516020016116ef9291906121ee565b6040516020818303038152906040525b9392505050565b600160a060020a0383166117615761175c81600880546000838152600960205260408120829055600182018355919091527ff3f7a9fe364faab93b216da50a3214154f22a0a2b415b23a84c8169e8b636ee30155565b611784565b81600160a060020a031683600160a060020a031614611784576117848382611a64565b600160a060020a03821661179b576105d981611b01565b82600160a060020a031682600160a060020a0316146105d9576105d98282611bb0565b600160a060020a0382166118175760405160e560020a62461bcd02815260206004820181905260248201527f4552433732313a206d696e7420746f20746865207a65726f20616464726573736044820152606401610482565b61182081610cf0565b156118705760405160e560020a62461bcd02815260206004820152601c60248201527f4552433732313a20746f6b656e20616c7265616479206d696e746564000000006044820152606401610482565b61187c600083836114a6565b600160a060020a03821660009081526003602052604081208054600192906118a5908490612179565b9091555050600081815260026020526040808220805473ffffffffffffffffffffffffffffffffffffffff1916600160a060020a03861690811790915590518392907fddf252ad1be2c89b69c2b068fc378daa952ba7f163c4a11628f55a4df523b3ef908290a45050565b60608160000361195357505060408051808201909152600181527f3000000000000000000000000000000000000000000000000000000000000000602082015290565b8160005b811561197d578061196781612276565b91506119769050600a836122a8565b9150611957565b60008167ffffffffffffffff81111561199857611998611dc6565b6040519080825280601f01601f1916602001820160405280156119c2576020820181803683370190505b5090505b8415610e7e576119d7600183612162565b91506119e4600a866122bc565b6119ef906030612179565b7f010000000000000000000000000000000000000000000000000000000000000002818381518110611a2357611a23612130565b60200101907effffffffffffffffffffffffffffffffffffffffffffffffffffffffffffff1916908160001a905350611a5d600a866122a8565b94506119c6565b60006001611a7184610869565b611a7b9190612162565b600083815260076020526040902054909150808214611ace57600160a060020a03841660009081526006602090815260408083208584528252808320548484528184208190558352600790915290208190555b506000918252600760209081526040808420849055600160a060020a039094168352600681528383209183525290812055565b600854600090611b1390600190612162565b60008381526009602052604081205460088054939450909284908110611b3b57611b3b612130565b906000526020600020015490508060088381548110611b5c57611b5c612130565b6000918252602080832090910192909255828152600990915260408082208490558582528120556008805480611b9457611b946122d0565b6001900381819060005260206000200160009055905550505050565b6000611bbb83610869565b600160a060020a039093166000908152600660209081526040808320868452825280832085905593825260079052919091209190915550565b828054611c0090612061565b90600052602060002090601f016020900481019282611c225760008555611c68565b82601f10611c3b57805160ff1916838001178555611c68565b82800160010185558215611c68579182015b82811115611c68578251825591602001919060010190611c4d565b50611c74929150611c78565b5090565b5b80821115611c745760008155600101611c79565b600160e060020a031981168114610caf57600080fd5b600060208284031215611cb557600080fd5b81356116ff81611c8d565b60005b83811015611cdb578181015183820152602001611cc3565b83811115610aad5750506000910152565b60008151808452611d04816020860160208601611cc0565b601f01601f19169290920160200192915050565b6020815260006116ff6020830184611cec565b600060208284031215611d3d57600080fd5b5035919050565b8035600160a060020a0381168114611d5b57600080fd5b919050565b60008060408385031215611d7357600080fd5b611d7c83611d44565b946020939093013593505050565b600080600060608486031215611d9f57600080fd5b611da884611d44565b9250611db660208501611d44565b9150604084013590509250925092565b60e060020a634e487b7102600052604160045260246000fd5b600067ffffffffffffffff80841115611dfa57611dfa611dc6565b604051601f8501601f19908116603f01168101908282118183101715611e2257611e22611dc6565b81604052809350858152868686011115611e3b57600080fd5b858560208301376000602087830101525050509392505050565b60008060408385031215611e6857600080fd5b611e7183611d44565b9150602083013567ffffffffffffffff811115611e8d57600080fd5b8301601f81018513611e9e57600080fd5b611ead85823560208401611ddf565b9150509250929050565b600060208284031215611ec957600080fd5b6116ff82611d44565b60208082528251828201819052600091906040908185019080840286018301878501865b83811015611f4057888303603f1901855281518051845287810151888501528601516060878501819052611f2c81860183611cec565b968901969450505090860190600101611ef6565b509098975050505050505050565b60008060408385031215611f6157600080fd5b611f6a83611d44565b915060208301358015158114611f7f57600080fd5b809150509250929050565b60008060008060808587031215611fa057600080fd5b611fa985611d44565b9350611fb760208601611d44565b925060408501359150606085013567ffffffffffffffff811115611fda57600080fd5b8501601f81018713611feb57600080fd5b611ffa87823560208401611ddf565b91505092959194509250565b8381528260208201526060604082015260006120256060830184611cec565b95945050505050565b6000806040838503121561204157600080fd5b61204a83611d44565b915061205860208401611d44565b90509250929050565b60028104600182168061207557607f821691505b6020821081036120985760e060020a634e487b7102600052602260045260246000fd5b50919050565b60208082526031908201527f4552433732313a207472616e736665722063616c6c6572206973206e6f74206f60408201527f776e6572206e6f7220617070726f766564000000000000000000000000000000606082015260800190565b6020808252818101527f4f776e61626c653a2063616c6c6572206973206e6f7420746865206f776e6572604082015260600190565b60e060020a634e487b7102600052603260045260246000fd5b60e060020a634e487b7102600052601160045260246000fd5b60008282101561217457612174612149565b500390565b6000821982111561218c5761218c612149565b500190565b60208082526032908201527f4552433732313a207472616e7366657220746f206e6f6e20455243373231526560408201527f63656976657220696d706c656d656e7465720000000000000000000000000000606082015260800190565b60008351612200818460208801611cc0565b835190830190612214818360208801611cc0565b01949350505050565b6000600160a060020a0380871683528086166020840152508360408301526080606083015261224f6080830184611cec565b9695505050505050565b60006020828403121561226b57600080fd5b81516116ff81611c8d565b60006001820161228857612288612149565b5060010190565b60e060020a634e487b7102600052601260045260246000fd5b6000826122b7576122b761228f565b500490565b6000826122cb576122cb61228f565b500690565b60e060020a634e487b7102600052603160045260246000fdfea2646970667358221220b234d766bd7b34ca0826e7875556aa06ef76053388986224e18f13707fdaca2464736f6c634300080d0033",
  "immutableReferences": {},
  "source": "// SPDX-License-Identifier: MIT\r\npragma solidity 0.8.13;\r\n\r\nimport \"@openzeppelin/contracts/token/ERC721/ERC721.sol\";\r\nimport \"@openzeppelin/contracts/token/ERC721/extensions/ERC721Enumerable.sol\";\r\nimport \"@openzeppelin/contracts/token/ERC721/extensions/ERC721URIStorage.sol\";\r\nimport \"@openzeppelin/contracts/access/Ownable.sol\";\r\nimport \"@openzeppelin/contracts/utils/Counters.sol\";\r\nimport \"./CollectionData.sol\";\r\n\r\ncontract Collection is ERC721Enumerable, ERC721URIStorage, Ownable, CollectionData {\r\n    using Counters for Counters.Counter;\r\n    Counters.Counter private _tokenIds;\r\n    \r\n    mapping(address=>tokenMetaData[]) private ownershipRecord;\r\n    mapping(uint=>tokenMetaData) private tokenList;\r\n\r\n    constructor (string memory name, string memory symbol) ERC721(\"name\", \"symbol\") {}\r\n\r\n    function getOwnershipRecord(address userAddress) external view returns(tokenMetaData[] memory){\r\n           return ownershipRecord[userAddress];\r\n    }\r\n\r\n    function getTokenMetaDataFromID(uint tokenId) external view returns(uint,uint,string memory){\r\n        require(tokenId > _tokenIds.current(),\"This token ID hasnt been minted yet\");\r\n        return (tokenList[tokenId].tokenId,tokenList[tokenId].timeStamp,tokenList[tokenId].tokenURI);\r\n    }\r\n    \r\n    function mintToken(address _recipient, string memory _tokenURI) external onlyOwner {\r\n        //require(owner()!= _recipient, \"Recipient cannot be the owner of the contract\");\r\n        _tokenIds.increment();\r\n        uint newItemId = _tokenIds.current();\r\n        _safeMint(_recipient, newItemId);/*\r\n        ownershipRecord[_recipient].push(tokenMetaData(newItemId, block.timestamp, \"\"));\r\n        tokenList[_tokenIds.current()] = tokenMetaData(newItemId, block.timestamp, \"\");*/\r\n        _setTokenURI(newItemId, _tokenURI);\r\n    }\r\n\r\n    function _beforeTokenTransfer(\r\n        address from,\r\n        address to,\r\n        uint256 tokenId\r\n    ) internal override (ERC721, ERC721Enumerable){\r\n        ERC721Enumerable._beforeTokenTransfer(from, to, tokenId);\r\n    }\r\n\r\n    function supportsInterface(bytes4 interfaceId) public view virtual override(ERC721, ERC721Enumerable) returns (bool) {\r\n        return ERC721Enumerable.supportsInterface(interfaceId);\r\n    }\r\n\r\n    function _burn(uint256 tokenId) internal virtual override (ERC721, ERC721URIStorage){\r\n        ERC721URIStorage._burn(tokenId);\r\n    }\r\n\r\n    function tokenURI(uint256 tokenId) public view virtual override (ERC721, ERC721URIStorage) returns (string memory) {\r\n        return ERC721URIStorage.tokenURI(tokenId);\r\n    }\r\n\r\n    \r\n}",
  "sourcePath": "/home/ludo/github/NFTPlatform/contracts/Collection.sol",
  "compiler": {
    "name": "solc",
    "version": "0.8.13+commit.abaa5c0e.Emscripten.clang"
  },
  "schemaVersion": "3.4.6",
  "updatedAt": "2022-05-09T16:46:30.068Z",
  "networkType": "ethereum",
  "devdoc": {
    "kind": "dev",
    "methods": {
      "approve(address,uint256)": {
        "details": "See {IERC721-approve}."
      },
      "balanceOf(address)": {
        "details": "See {IERC721-balanceOf}."
      },
      "getApproved(uint256)": {
        "details": "See {IERC721-getApproved}."
      },
      "isApprovedForAll(address,address)": {
        "details": "See {IERC721-isApprovedForAll}."
      },
      "name()": {
        "details": "See {IERC721Metadata-name}."
      },
      "owner()": {
        "details": "Returns the address of the current owner."
      },
      "ownerOf(uint256)": {
        "details": "See {IERC721-ownerOf}."
      },
      "renounceOwnership()": {
        "details": "Leaves the contract without owner. It will not be possible to call `onlyOwner` functions anymore. Can only be called by the current owner. NOTE: Renouncing ownership will leave the contract without an owner, thereby removing any functionality that is only available to the owner."
      },
      "safeTransferFrom(address,address,uint256)": {
        "details": "See {IERC721-safeTransferFrom}."
      },
      "safeTransferFrom(address,address,uint256,bytes)": {
        "details": "See {IERC721-safeTransferFrom}."
      },
      "setApprovalForAll(address,bool)": {
        "details": "See {IERC721-setApprovalForAll}."
      },
      "symbol()": {
        "details": "See {IERC721Metadata-symbol}."
      },
      "tokenByIndex(uint256)": {
        "details": "See {IERC721Enumerable-tokenByIndex}."
      },
      "tokenOfOwnerByIndex(address,uint256)": {
        "details": "See {IERC721Enumerable-tokenOfOwnerByIndex}."
      },
      "totalSupply()": {
        "details": "See {IERC721Enumerable-totalSupply}."
      },
      "transferFrom(address,address,uint256)": {
        "details": "See {IERC721-transferFrom}."
      },
      "transferOwnership(address)": {
        "details": "Transfers ownership of the contract to a new account (`newOwner`). Can only be called by the current owner."
      }
    },
    "version": 1
  },
  "userdoc": {
    "kind": "user",
    "methods": {},
    "version": 1
  }
}