{
  "contractName": "Collection",
  "abi": [
    {
      "inputs": [
        {
          "internalType": "string",
          "name": "name",
          "type": "string"
        },
        {
          "internalType": "string",
          "name": "symbol",
          "type": "string"
        }
      ],
      "stateMutability": "nonpayable",
      "type": "constructor"
    },
    {
      "anonymous": false,
      "inputs": [
        {
          "indexed": true,
          "internalType": "address",
          "name": "owner",
          "type": "address"
        },
        {
          "indexed": true,
          "internalType": "address",
          "name": "approved",
          "type": "address"
        },
        {
          "indexed": true,
          "internalType": "uint256",
          "name": "tokenId",
          "type": "uint256"
        }
      ],
      "name": "Approval",
      "type": "event"
    },
    {
      "anonymous": false,
      "inputs": [
        {
          "indexed": true,
          "internalType": "address",
          "name": "owner",
          "type": "address"
        },
        {
          "indexed": true,
          "internalType": "address",
          "name": "operator",
          "type": "address"
        },
        {
          "indexed": false,
          "internalType": "bool",
          "name": "approved",
          "type": "bool"
        }
      ],
      "name": "ApprovalForAll",
      "type": "event"
    },
    {
      "anonymous": false,
      "inputs": [
        {
          "indexed": true,
          "internalType": "address",
          "name": "previousOwner",
          "type": "address"
        },
        {
          "indexed": true,
          "internalType": "address",
          "name": "newOwner",
          "type": "address"
        }
      ],
      "name": "OwnershipTransferred",
      "type": "event"
    },
    {
      "anonymous": false,
      "inputs": [
        {
          "indexed": false,
          "internalType": "uint256",
          "name": "tokenId",
          "type": "uint256"
        },
        {
          "indexed": false,
          "internalType": "address",
          "name": "recipient",
          "type": "address"
        },
        {
          "indexed": false,
          "internalType": "string",
          "name": "tokenURI",
          "type": "string"
        }
      ],
      "name": "TokenMinted",
      "type": "event"
    },
    {
      "anonymous": false,
      "inputs": [
        {
          "indexed": true,
          "internalType": "address",
          "name": "from",
          "type": "address"
        },
        {
          "indexed": true,
          "internalType": "address",
          "name": "to",
          "type": "address"
        },
        {
          "indexed": true,
          "internalType": "uint256",
          "name": "tokenId",
          "type": "uint256"
        }
      ],
      "name": "Transfer",
      "type": "event"
    },
    {
      "inputs": [
        {
          "internalType": "address",
          "name": "to",
          "type": "address"
        },
        {
          "internalType": "uint256",
          "name": "tokenId",
          "type": "uint256"
        }
      ],
      "name": "approve",
      "outputs": [],
      "stateMutability": "nonpayable",
      "type": "function"
    },
    {
      "inputs": [
        {
          "internalType": "address",
          "name": "owner",
          "type": "address"
        }
      ],
      "name": "balanceOf",
      "outputs": [
        {
          "internalType": "uint256",
          "name": "",
          "type": "uint256"
        }
      ],
      "stateMutability": "view",
      "type": "function"
    },
    {
      "inputs": [
        {
          "internalType": "uint256",
          "name": "tokenId",
          "type": "uint256"
        }
      ],
      "name": "getApproved",
      "outputs": [
        {
          "internalType": "address",
          "name": "",
          "type": "address"
        }
      ],
      "stateMutability": "view",
      "type": "function"
    },
    {
      "inputs": [
        {
          "internalType": "address",
          "name": "owner",
          "type": "address"
        },
        {
          "internalType": "address",
          "name": "operator",
          "type": "address"
        }
      ],
      "name": "isApprovedForAll",
      "outputs": [
        {
          "internalType": "bool",
          "name": "",
          "type": "bool"
        }
      ],
      "stateMutability": "view",
      "type": "function"
    },
    {
      "inputs": [],
      "name": "name",
      "outputs": [
        {
          "internalType": "string",
          "name": "",
          "type": "string"
        }
      ],
      "stateMutability": "view",
      "type": "function"
    },
    {
      "inputs": [],
      "name": "owner",
      "outputs": [
        {
          "internalType": "address",
          "name": "",
          "type": "address"
        }
      ],
      "stateMutability": "view",
      "type": "function"
    },
    {
      "inputs": [
        {
          "internalType": "uint256",
          "name": "tokenId",
          "type": "uint256"
        }
      ],
      "name": "ownerOf",
      "outputs": [
        {
          "internalType": "address",
          "name": "",
          "type": "address"
        }
      ],
      "stateMutability": "view",
      "type": "function"
    },
    {
      "inputs": [],
      "name": "renounceOwnership",
      "outputs": [],
      "stateMutability": "nonpayable",
      "type": "function"
    },
    {
      "inputs": [
        {
          "internalType": "address",
          "name": "from",
          "type": "address"
        },
        {
          "internalType": "address",
          "name": "to",
          "type": "address"
        },
        {
          "internalType": "uint256",
          "name": "tokenId",
          "type": "uint256"
        }
      ],
      "name": "safeTransferFrom",
      "outputs": [],
      "stateMutability": "nonpayable",
      "type": "function"
    },
    {
      "inputs": [
        {
          "internalType": "address",
          "name": "from",
          "type": "address"
        },
        {
          "internalType": "address",
          "name": "to",
          "type": "address"
        },
        {
          "internalType": "uint256",
          "name": "tokenId",
          "type": "uint256"
        },
        {
          "internalType": "bytes",
          "name": "_data",
          "type": "bytes"
        }
      ],
      "name": "safeTransferFrom",
      "outputs": [],
      "stateMutability": "nonpayable",
      "type": "function"
    },
    {
      "inputs": [
        {
          "internalType": "address",
          "name": "operator",
          "type": "address"
        },
        {
          "internalType": "bool",
          "name": "approved",
          "type": "bool"
        }
      ],
      "name": "setApprovalForAll",
      "outputs": [],
      "stateMutability": "nonpayable",
      "type": "function"
    },
    {
      "inputs": [],
      "name": "symbol",
      "outputs": [
        {
          "internalType": "string",
          "name": "",
          "type": "string"
        }
      ],
      "stateMutability": "view",
      "type": "function"
    },
    {
      "inputs": [
        {
          "internalType": "uint256",
          "name": "index",
          "type": "uint256"
        }
      ],
      "name": "tokenByIndex",
      "outputs": [
        {
          "internalType": "uint256",
          "name": "",
          "type": "uint256"
        }
      ],
      "stateMutability": "view",
      "type": "function"
    },
    {
      "inputs": [
        {
          "internalType": "uint256",
          "name": "",
          "type": "uint256"
        }
      ],
      "name": "tokenMetaDataFromIdMap",
      "outputs": [
        {
          "internalType": "uint256",
          "name": "tokenId",
          "type": "uint256"
        },
        {
          "internalType": "uint256",
          "name": "timeStamp",
          "type": "uint256"
        },
        {
          "internalType": "string",
          "name": "tokenURI",
          "type": "string"
        }
      ],
      "stateMutability": "view",
      "type": "function"
    },
    {
      "inputs": [
        {
          "internalType": "address",
          "name": "owner",
          "type": "address"
        },
        {
          "internalType": "uint256",
          "name": "index",
          "type": "uint256"
        }
      ],
      "name": "tokenOfOwnerByIndex",
      "outputs": [
        {
          "internalType": "uint256",
          "name": "",
          "type": "uint256"
        }
      ],
      "stateMutability": "view",
      "type": "function"
    },
    {
      "inputs": [],
      "name": "totalSupply",
      "outputs": [
        {
          "internalType": "uint256",
          "name": "",
          "type": "uint256"
        }
      ],
      "stateMutability": "view",
      "type": "function"
    },
    {
      "inputs": [
        {
          "internalType": "address",
          "name": "from",
          "type": "address"
        },
        {
          "internalType": "address",
          "name": "to",
          "type": "address"
        },
        {
          "internalType": "uint256",
          "name": "tokenId",
          "type": "uint256"
        }
      ],
      "name": "transferFrom",
      "outputs": [],
      "stateMutability": "nonpayable",
      "type": "function"
    },
    {
      "inputs": [
        {
          "internalType": "address",
          "name": "newOwner",
          "type": "address"
        }
      ],
      "name": "transferOwnership",
      "outputs": [],
      "stateMutability": "nonpayable",
      "type": "function"
    },
    {
      "inputs": [
        {
          "internalType": "address",
          "name": "recipient_",
          "type": "address"
        },
        {
          "internalType": "string",
          "name": "tokenURI_",
          "type": "string"
        }
      ],
      "name": "mintToken",
      "outputs": [],
      "stateMutability": "nonpayable",
      "type": "function"
    },
    {
      "inputs": [
        {
          "internalType": "bytes4",
          "name": "interfaceId",
          "type": "bytes4"
        }
      ],
      "name": "supportsInterface",
      "outputs": [
        {
          "internalType": "bool",
          "name": "",
          "type": "bool"
        }
      ],
      "stateMutability": "view",
      "type": "function"
    },
    {
      "inputs": [
        {
          "internalType": "uint256",
          "name": "tokenId",
          "type": "uint256"
        }
      ],
      "name": "tokenURI",
      "outputs": [
        {
          "internalType": "string",
          "name": "",
          "type": "string"
        }
      ],
      "stateMutability": "view",
      "type": "function"
    }
  ],
  "bytecode": "0x60806040523480156200001157600080fd5b5060405162002544380380620025448339810160408190526200003491620002dd565b604080518082018252600481527f6e616d650000000000000000000000000000000000000000000000000000000060208083019182528351808501909452600684527f73796d626f6c0000000000000000000000000000000000000000000000000000908401528151919291620000ae9160009162000151565b508051620000c490600190602084019062000151565b505050620000f3620000e4620000fb640100000000026401000000009004565b640100000000620000ff810204565b50506200039c565b3390565b600b8054600160a060020a03838116600160a060020a0319831681179093556040519116919082907f8be0079c531659141344cd1fd0a4f28419497f9722a3daafe3b4186f6b6457e090600090a35050565b8280546200015f9062000347565b90600052602060002090601f016020900481019282620001835760008555620001ce565b82601f106200019e57805160ff1916838001178555620001ce565b82800160010185558215620001ce579182015b82811115620001ce578251825591602001919060010190620001b1565b50620001dc929150620001e0565b5090565b5b80821115620001dc5760008155600101620001e1565b7f4e487b7100000000000000000000000000000000000000000000000000000000600052604160045260246000fd5b600082601f8301126200023857600080fd5b81516001604060020a0380821115620002555762000255620001f7565b604051601f8301601f19908116603f01168101908282118183101715620002805762000280620001f7565b816040528381526020925086838588010111156200029d57600080fd5b600091505b83821015620002c15785820183015181830184015290820190620002a2565b83821115620002d35760008385830101525b9695505050505050565b60008060408385031215620002f157600080fd5b82516001604060020a03808211156200030957600080fd5b620003178683870162000226565b935060208501519150808211156200032e57600080fd5b506200033d8582860162000226565b9150509250929050565b6002810460018216806200035c57607f821691505b60208210810362000396577f4e487b7100000000000000000000000000000000000000000000000000000000600052602260045260246000fd5b50919050565b61219880620003ac6000396000f3fe608060405234801561001057600080fd5b5060043610610154576000357c0100000000000000000000000000000000000000000000000000000000900480634f6ccce7116100d557806395d89b411161009957806395d89b41146102a8578063a22cb465146102b0578063b88d4fde146102c3578063c87b56dd146102d6578063e985e9c5146102e9578063f2fde38b1461032557600080fd5b80634f6ccce7146102565780636352211e1461026957806370a082311461027c578063715018a61461028f5780638da5cb5b1461029757600080fd5b806323b872dd1161011c57806323b872dd146101e85780632f745c59146101fb5780633d02d0c91461020e5780633f694fa21461022157806342842e0e1461024357600080fd5b806301ffc9a71461015957806306fdde0314610181578063081812fc14610196578063095ea7b3146101c157806318160ddd146101d6575b600080fd5b61016c610167366004611b70565b610338565b60405190151581526020015b60405180910390f35b610189610349565b6040516101789190611be5565b6101a96101a4366004611bf8565b6103db565b604051600160a060020a039091168152602001610178565b6101d46101cf366004611c2d565b61047c565b005b6008545b604051908152602001610178565b6101d46101f6366004611c57565b6105b3565b6101da610209366004611c2d565b6105e7565b6101d461021c366004611d22565b610692565b61023461022f366004611bf8565b610792565b60405161017893929190611d84565b6101d4610251366004611c57565b61083d565b6101da610264366004611bf8565b610858565b6101a9610277366004611bf8565b6108ff565b6101da61028a366004611dac565b61098d565b6101d4610a2a565b600b54600160a060020a03166101a9565b610189610a63565b6101d46102be366004611dc7565b610a72565b6101d46102d1366004611e03565b610a81565b6101896102e4366004611bf8565b610abc565b61016c6102f7366004611e7f565b600160a060020a03918216600090815260056020908152604080832093909416825291909152205460ff1690565b6101d4610333366004611dac565b610ac7565b600061034382610b7f565b92915050565b60606000805461035890611eb2565b80601f016020809104026020016040519081016040528092919081815260200182805461038490611eb2565b80156103d15780601f106103a6576101008083540402835291602001916103d1565b820191906000526020600020905b8154815290600101906020018083116103b457829003601f168201915b5050505050905090565b60006103e682610bbd565b6104605760405160e560020a62461bcd02815260206004820152602c60248201527f4552433732313a20617070726f76656420717565727920666f72206e6f6e657860448201527f697374656e7420746f6b656e000000000000000000000000000000000000000060648201526084015b60405180910390fd5b50600090815260046020526040902054600160a060020a031690565b6000610487826108ff565b905080600160a060020a031683600160a060020a0316036105135760405160e560020a62461bcd02815260206004820152602160248201527f4552433732313a20617070726f76616c20746f2063757272656e74206f776e6560448201527f72000000000000000000000000000000000000000000000000000000000000006064820152608401610457565b33600160a060020a038216148061052f575061052f81336102f7565b6105a45760405160e560020a62461bcd02815260206004820152603860248201527f4552433732313a20617070726f76652063616c6c6572206973206e6f74206f7760448201527f6e6572206e6f7220617070726f76656420666f7220616c6c00000000000000006064820152608401610457565b6105ae8383610bda565b505050565b6105bd3382610c55565b6105dc5760405160e560020a62461bcd02815260040161045790611eef565b6105ae838383610d53565b60006105f28361098d565b82106106695760405160e560020a62461bcd02815260206004820152602b60248201527f455243373231456e756d657261626c653a206f776e657220696e646578206f7560448201527f74206f6620626f756e64730000000000000000000000000000000000000000006064820152608401610457565b50600160a060020a03919091166000908152600660209081526040808320938352929052205490565b600b54600160a060020a031633146106bf5760405160e560020a62461bcd02815260040161045790611f4c565b60006106ca600c5490565b90506106d68382610f3e565b7fec2cd236ed6d37bf5a71276ac93889db12834493a090efd543a3d2eca8dcdcc881848460405161070993929190611f81565b60405180910390a161071b8183610f58565b604051806060016040528082815260200142815260200183815250600d6000610743600c5490565b815260200190815260200160002060008201518160000155602082015181600101556040820151816002019080519060200190610781929190611ac1565b5050600c8054600101905550505050565b600d60205260009081526040902080546001820154600283018054929391926107ba90611eb2565b80601f01602080910402602001604051908101604052809291908181526020018280546107e690611eb2565b80156108335780601f1061080857610100808354040283529160200191610833565b820191906000526020600020905b81548152906001019060200180831161081657829003601f168201915b5050505050905083565b6105ae83838360405180602001604052806000815250610a81565b600061086360085490565b82106108da5760405160e560020a62461bcd02815260206004820152602c60248201527f455243373231456e756d657261626c653a20676c6f62616c20696e646578206f60448201527f7574206f6620626f756e647300000000000000000000000000000000000000006064820152608401610457565b600882815481106108ed576108ed611fa9565b90600052602060002001549050919050565b600081815260026020526040812054600160a060020a0316806103435760405160e560020a62461bcd02815260206004820152602960248201527f4552433732313a206f776e657220717565727920666f72206e6f6e657869737460448201527f656e7420746f6b656e00000000000000000000000000000000000000000000006064820152608401610457565b6000600160a060020a038216610a0e5760405160e560020a62461bcd02815260206004820152602a60248201527f4552433732313a2062616c616e636520717565727920666f7220746865207a6560448201527f726f2061646472657373000000000000000000000000000000000000000000006064820152608401610457565b50600160a060020a031660009081526003602052604090205490565b600b54600160a060020a03163314610a575760405160e560020a62461bcd02815260040161045790611f4c565b610a616000610ff5565b565b60606001805461035890611eb2565b610a7d338383611054565b5050565b610a8b3383610c55565b610aaa5760405160e560020a62461bcd02815260040161045790611eef565b610ab684848484611125565b50505050565b60606103438261115b565b600b54600160a060020a03163314610af45760405160e560020a62461bcd02815260040161045790611f4c565b600160a060020a038116610b735760405160e560020a62461bcd02815260206004820152602660248201527f4f776e61626c653a206e6577206f776e657220697320746865207a65726f206160448201527f64647265737300000000000000000000000000000000000000000000000000006064820152608401610457565b610b7c81610ff5565b50565b6000600160e060020a031982167f780e9d630000000000000000000000000000000000000000000000000000000014806103435750610343826112d8565b600090815260026020526040902054600160a060020a0316151590565b6000818152600460205260409020805473ffffffffffffffffffffffffffffffffffffffff1916600160a060020a0384169081179091558190610c1c826108ff565b600160a060020a03167f8c5be1e5ebec7d5bd14f71427d1e84f3dd0314c0f7b2291e5b200ac8c7c3b92560405160405180910390a45050565b6000610c6082610bbd565b610cd55760405160e560020a62461bcd02815260206004820152602c60248201527f4552433732313a206f70657261746f7220717565727920666f72206e6f6e657860448201527f697374656e7420746f6b656e00000000000000000000000000000000000000006064820152608401610457565b6000610ce0836108ff565b905080600160a060020a031684600160a060020a03161480610d275750600160a060020a0380821660009081526005602090815260408083209388168352929052205460ff165b80610d4b575083600160a060020a0316610d40846103db565b600160a060020a0316145b949350505050565b82600160a060020a0316610d66826108ff565b600160a060020a031614610de55760405160e560020a62461bcd02815260206004820152602560248201527f4552433732313a207472616e736665722066726f6d20696e636f72726563742060448201527f6f776e65720000000000000000000000000000000000000000000000000000006064820152608401610457565b600160a060020a038216610e635760405160e560020a62461bcd028152602060048201526024808201527f4552433732313a207472616e7366657220746f20746865207a65726f2061646460448201527f72657373000000000000000000000000000000000000000000000000000000006064820152608401610457565b610e6e838383611373565b610e79600082610bda565b600160a060020a0383166000908152600360205260408120805460019290610ea2908490611fdb565b9091555050600160a060020a0382166000908152600360205260408120805460019290610ed0908490611ff2565b9091555050600081815260026020526040808220805473ffffffffffffffffffffffffffffffffffffffff1916600160a060020a0386811691821790925591518493918716917fddf252ad1be2c89b69c2b068fc378daa952ba7f163c4a11628f55a4df523b3ef91a4505050565b610a7d82826040518060200160405280600081525061137e565b610f6182610bbd565b610fd65760405160e560020a62461bcd02815260206004820152602e60248201527f45524337323155524953746f726167653a2055524920736574206f66206e6f6e60448201527f6578697374656e7420746f6b656e0000000000000000000000000000000000006064820152608401610457565b6000828152600a6020908152604090912082516105ae92840190611ac1565b600b8054600160a060020a0383811673ffffffffffffffffffffffffffffffffffffffff19831681179093556040519116919082907f8be0079c531659141344cd1fd0a4f28419497f9722a3daafe3b4186f6b6457e090600090a35050565b81600160a060020a031683600160a060020a0316036110b85760405160e560020a62461bcd02815260206004820152601960248201527f4552433732313a20617070726f766520746f2063616c6c6572000000000000006044820152606401610457565b600160a060020a03838116600081815260056020908152604080832094871680845294825291829020805460ff191686151590811790915591519182527f17307eab39ab6107e8899845ad3d59bd9653f200f220920489ca2b5937696c31910160405180910390a3505050565b611130848484610d53565b61113c848484846113b4565b610ab65760405160e560020a62461bcd0281526004016104579061200a565b606061116682610bbd565b6111db5760405160e560020a62461bcd02815260206004820152603160248201527f45524337323155524953746f726167653a2055524920717565727920666f722060448201527f6e6f6e6578697374656e7420746f6b656e0000000000000000000000000000006064820152608401610457565b6000828152600a6020526040812080546111f490611eb2565b80601f016020809104026020016040519081016040528092919081815260200182805461122090611eb2565b801561126d5780601f106112425761010080835404028352916020019161126d565b820191906000526020600020905b81548152906001019060200180831161125057829003601f168201915b50505050509050600061128b60408051602081019091526000815290565b9050805160000361129d575092915050565b8151156112cf5780826040516020016112b7929190612067565b60405160208183030381529060405292505050919050565b610d4b846114ea565b6000600160e060020a031982167f80ac58cd00000000000000000000000000000000000000000000000000000000148061133b5750600160e060020a031982167f5b5e139f00000000000000000000000000000000000000000000000000000000145b8061034357507f01ffc9a700000000000000000000000000000000000000000000000000000000600160e060020a0319831614610343565b6105ae8383836115d3565b611388838361168b565b61139560008484846113b4565b6105ae5760405160e560020a62461bcd0281526004016104579061200a565b6000600160a060020a0384163b156114df576040517f150b7a02000000000000000000000000000000000000000000000000000000008152600160a060020a0385169063150b7a0290611411903390899088908890600401612096565b6020604051808303816000875af192505050801561144c575060408051601f3d908101601f19168201909252611449918101906120d2565b60015b6114ac573d80801561147a576040519150601f19603f3d011682016040523d82523d6000602084013e61147f565b606091505b5080516000036114a45760405160e560020a62461bcd0281526004016104579061200a565b805181602001fd5b600160e060020a0319167f150b7a0200000000000000000000000000000000000000000000000000000000149050610d4b565b506001949350505050565b60606114f582610bbd565b61156a5760405160e560020a62461bcd02815260206004820152602f60248201527f4552433732314d657461646174613a2055524920717565727920666f72206e6f60448201527f6e6578697374656e7420746f6b656e00000000000000000000000000000000006064820152608401610457565b600061158160408051602081019091526000815290565b905060008151116115a157604051806020016040528060008152506115cc565b806115ab846117dd565b6040516020016115bc929190612067565b6040516020818303038152906040525b9392505050565b600160a060020a03831661162e5761162981600880546000838152600960205260408120829055600182018355919091527ff3f7a9fe364faab93b216da50a3214154f22a0a2b415b23a84c8169e8b636ee30155565b611651565b81600160a060020a031683600160a060020a031614611651576116518382611931565b600160a060020a038216611668576105ae816119ce565b82600160a060020a031682600160a060020a0316146105ae576105ae8282611a7d565b600160a060020a0382166116e45760405160e560020a62461bcd02815260206004820181905260248201527f4552433732313a206d696e7420746f20746865207a65726f20616464726573736044820152606401610457565b6116ed81610bbd565b1561173d5760405160e560020a62461bcd02815260206004820152601c60248201527f4552433732313a20746f6b656e20616c7265616479206d696e746564000000006044820152606401610457565b61174960008383611373565b600160a060020a0382166000908152600360205260408120805460019290611772908490611ff2565b9091555050600081815260026020526040808220805473ffffffffffffffffffffffffffffffffffffffff1916600160a060020a03861690811790915590518392907fddf252ad1be2c89b69c2b068fc378daa952ba7f163c4a11628f55a4df523b3ef908290a45050565b60608160000361182057505060408051808201909152600181527f3000000000000000000000000000000000000000000000000000000000000000602082015290565b8160005b811561184a5780611834816120ef565b91506118439050600a83612121565b9150611824565b60008167ffffffffffffffff81111561186557611865611c93565b6040519080825280601f01601f19166020018201604052801561188f576020820181803683370190505b5090505b8415610d4b576118a4600183611fdb565b91506118b1600a86612135565b6118bc906030611ff2565b7f0100000000000000000000000000000000000000000000000000000000000000028183815181106118f0576118f0611fa9565b60200101907effffffffffffffffffffffffffffffffffffffffffffffffffffffffffffff1916908160001a90535061192a600a86612121565b9450611893565b6000600161193e8461098d565b6119489190611fdb565b60008381526007602052604090205490915080821461199b57600160a060020a03841660009081526006602090815260408083208584528252808320548484528184208190558352600790915290208190555b506000918252600760209081526040808420849055600160a060020a039094168352600681528383209183525290812055565b6008546000906119e090600190611fdb565b60008381526009602052604081205460088054939450909284908110611a0857611a08611fa9565b906000526020600020015490508060088381548110611a2957611a29611fa9565b6000918252602080832090910192909255828152600990915260408082208490558582528120556008805480611a6157611a61612149565b6001900381819060005260206000200160009055905550505050565b6000611a888361098d565b600160a060020a039093166000908152600660209081526040808320868452825280832085905593825260079052919091209190915550565b828054611acd90611eb2565b90600052602060002090601f016020900481019282611aef5760008555611b35565b82601f10611b0857805160ff1916838001178555611b35565b82800160010185558215611b35579182015b82811115611b35578251825591602001919060010190611b1a565b50611b41929150611b45565b5090565b5b80821115611b415760008155600101611b46565b600160e060020a031981168114610b7c57600080fd5b600060208284031215611b8257600080fd5b81356115cc81611b5a565b60005b83811015611ba8578181015183820152602001611b90565b83811115610ab65750506000910152565b60008151808452611bd1816020860160208601611b8d565b601f01601f19169290920160200192915050565b6020815260006115cc6020830184611bb9565b600060208284031215611c0a57600080fd5b5035919050565b8035600160a060020a0381168114611c2857600080fd5b919050565b60008060408385031215611c4057600080fd5b611c4983611c11565b946020939093013593505050565b600080600060608486031215611c6c57600080fd5b611c7584611c11565b9250611c8360208501611c11565b9150604084013590509250925092565b60e060020a634e487b7102600052604160045260246000fd5b600067ffffffffffffffff80841115611cc757611cc7611c93565b604051601f8501601f19908116603f01168101908282118183101715611cef57611cef611c93565b81604052809350858152868686011115611d0857600080fd5b858560208301376000602087830101525050509392505050565b60008060408385031215611d3557600080fd5b611d3e83611c11565b9150602083013567ffffffffffffffff811115611d5a57600080fd5b8301601f81018513611d6b57600080fd5b611d7a85823560208401611cac565b9150509250929050565b838152826020820152606060408201526000611da36060830184611bb9565b95945050505050565b600060208284031215611dbe57600080fd5b6115cc82611c11565b60008060408385031215611dda57600080fd5b611de383611c11565b915060208301358015158114611df857600080fd5b809150509250929050565b60008060008060808587031215611e1957600080fd5b611e2285611c11565b9350611e3060208601611c11565b925060408501359150606085013567ffffffffffffffff811115611e5357600080fd5b8501601f81018713611e6457600080fd5b611e7387823560208401611cac565b91505092959194509250565b60008060408385031215611e9257600080fd5b611e9b83611c11565b9150611ea960208401611c11565b90509250929050565b600281046001821680611ec657607f821691505b602082108103611ee95760e060020a634e487b7102600052602260045260246000fd5b50919050565b60208082526031908201527f4552433732313a207472616e736665722063616c6c6572206973206e6f74206f60408201527f776e6572206e6f7220617070726f766564000000000000000000000000000000606082015260800190565b6020808252818101527f4f776e61626c653a2063616c6c6572206973206e6f7420746865206f776e6572604082015260600190565b838152600160a060020a0383166020820152606060408201526000611da36060830184611bb9565b60e060020a634e487b7102600052603260045260246000fd5b60e060020a634e487b7102600052601160045260246000fd5b600082821015611fed57611fed611fc2565b500390565b6000821982111561200557612005611fc2565b500190565b60208082526032908201527f4552433732313a207472616e7366657220746f206e6f6e20455243373231526560408201527f63656976657220696d706c656d656e7465720000000000000000000000000000606082015260800190565b60008351612079818460208801611b8d565b83519083019061208d818360208801611b8d565b01949350505050565b6000600160a060020a038087168352808616602084015250836040830152608060608301526120c86080830184611bb9565b9695505050505050565b6000602082840312156120e457600080fd5b81516115cc81611b5a565b60006001820161210157612101611fc2565b5060010190565b60e060020a634e487b7102600052601260045260246000fd5b60008261213057612130612108565b500490565b60008261214457612144612108565b500690565b60e060020a634e487b7102600052603160045260246000fdfea2646970667358221220376943c2a5e30b7303988bd6cdedff4b91d1cf9021824d1706288bf86135014064736f6c634300080d0033",
  "immutableReferences": {},
  "source": "// SPDX-License-Identifier: MIT\npragma solidity 0.8.13;\n\nimport \"@openzeppelin/contracts/token/ERC721/ERC721.sol\";\nimport \"@openzeppelin/contracts/token/ERC721/IERC721.sol\";\nimport \"@openzeppelin/contracts/token/ERC721/extensions/ERC721Enumerable.sol\";\nimport \"@openzeppelin/contracts/token/ERC721/extensions/ERC721URIStorage.sol\";\nimport \"@openzeppelin/contracts/access/Ownable.sol\";\nimport \"@openzeppelin/contracts/utils/Counters.sol\";\n\ncontract Collection is ERC721, ERC721Enumerable, ERC721URIStorage, Ownable {\n    using Counters for Counters.Counter;\n    Counters.Counter private _tokenIds; \n\n    struct tokenMetaData{\n        uint tokenId;\n        uint timeStamp;\n        string tokenURI;\n    }\n\n    event TokenMinted(\n        uint tokenId,\n        address recipient,\n        string tokenURI\n    );\n\n    //address public collectionCreator;\n    mapping(uint=>tokenMetaData) public tokenMetaDataFromIdMap; \n\n    constructor (string memory name, string memory symbol) ERC721(\"name\", \"symbol\") {}\n\n    /*function setCollectionCreator(address creator) external onlyOwner{\n        collectionCreator = creator;\n    }*/\n\n    function mintToken(address recipient_, string memory tokenURI_) external onlyOwner {\n        uint newTokenId = _tokenIds.current();\n\n        _safeMint(recipient_, newTokenId);\n        emit TokenMinted(newTokenId, recipient_, tokenURI_);\n        _setTokenURI(newTokenId, tokenURI_);\n\n        tokenMetaDataFromIdMap[_tokenIds.current()] = tokenMetaData(newTokenId, block.timestamp, tokenURI_);\n        _tokenIds.increment();\n    }\n\n    function _beforeTokenTransfer(\n        address from,\n        address to,\n        uint256 tokenId\n    ) internal override (ERC721, ERC721Enumerable){\n        ERC721Enumerable._beforeTokenTransfer(from, to, tokenId);\n    }\n\n    function supportsInterface(bytes4 interfaceId) public view virtual override(ERC721, ERC721Enumerable) returns (bool) {\n        return ERC721Enumerable.supportsInterface(interfaceId);\n    }\n\n    function _burn(uint256 tokenId) internal virtual override (ERC721, ERC721URIStorage){\n        ERC721URIStorage._burn(tokenId);\n    }\n\n    function tokenURI(uint256 tokenId) public view virtual override (ERC721, ERC721URIStorage) returns (string memory) {\n        return ERC721URIStorage.tokenURI(tokenId);\n    } \n\n/*\n\n   function getAllTokens() external view returns(tokenMetaData[] memory){\n        tokenMetaData[] memory allTokensMetaDataInCollection = new tokenMetaData[](totalSupply);\n\n        for(uint i=0; i<totalSupply; i++){\n            allTokensMetaDataInCollection[i] = getMetadataFromToken( _collectionMap[collectionAddress].tokenByIndex(i));\n        }\n\n        return allTokensMetaDataInCollection;\n    }\n\n    function getCollectionCreator() external view returns(address){\n        return collectionCreator;\n    }\n\n    function getTokenMetaDataFromID(uint tokenId) external view returns(tokenMetaData memory){\n        require(tokenId <= _tokenIds.current(),\"This token ID hasnt been minted yet\");\n        return tokenMetaData(tokenMetaDataFromIdMap[tokenId].tokenId,tokenMetaDataFromIdMap[tokenId].timeStamp,tokenMetaDataFromIdMap[tokenId].tokenURI);\n    }*/\n}",
  "sourcePath": "/home/erika/NFTPlatform/contracts/Collection.sol",
  "compiler": {
    "name": "solc",
    "version": "0.8.13+commit.abaa5c0e.Emscripten.clang"
  },
  "schemaVersion": "3.4.6",
  "updatedAt": "2022-05-15T08:44:11.168Z",
  "devdoc": {
    "kind": "dev",
    "methods": {
      "approve(address,uint256)": {
        "details": "See {IERC721-approve}."
      },
      "balanceOf(address)": {
        "details": "See {IERC721-balanceOf}."
      },
      "getApproved(uint256)": {
        "details": "See {IERC721-getApproved}."
      },
      "isApprovedForAll(address,address)": {
        "details": "See {IERC721-isApprovedForAll}."
      },
      "name()": {
        "details": "See {IERC721Metadata-name}."
      },
      "owner()": {
        "details": "Returns the address of the current owner."
      },
      "ownerOf(uint256)": {
        "details": "See {IERC721-ownerOf}."
      },
      "renounceOwnership()": {
        "details": "Leaves the contract without owner. It will not be possible to call `onlyOwner` functions anymore. Can only be called by the current owner. NOTE: Renouncing ownership will leave the contract without an owner, thereby removing any functionality that is only available to the owner."
      },
      "safeTransferFrom(address,address,uint256)": {
        "details": "See {IERC721-safeTransferFrom}."
      },
      "safeTransferFrom(address,address,uint256,bytes)": {
        "details": "See {IERC721-safeTransferFrom}."
      },
      "setApprovalForAll(address,bool)": {
        "details": "See {IERC721-setApprovalForAll}."
      },
      "symbol()": {
        "details": "See {IERC721Metadata-symbol}."
      },
      "tokenByIndex(uint256)": {
        "details": "See {IERC721Enumerable-tokenByIndex}."
      },
      "tokenOfOwnerByIndex(address,uint256)": {
        "details": "See {IERC721Enumerable-tokenOfOwnerByIndex}."
      },
      "totalSupply()": {
        "details": "See {IERC721Enumerable-totalSupply}."
      },
      "transferFrom(address,address,uint256)": {
        "details": "See {IERC721-transferFrom}."
      },
      "transferOwnership(address)": {
        "details": "Transfers ownership of the contract to a new account (`newOwner`). Can only be called by the current owner."
      }
    },
    "version": 1
  },
  "userdoc": {
    "kind": "user",
    "methods": {},
    "version": 1
  }
}