{
  "contractName": "CollectionLinker",
  "abi": [
    {
      "anonymous": false,
      "inputs": [
        {
          "indexed": true,
          "internalType": "address",
          "name": "previousOwner",
          "type": "address"
        },
        {
          "indexed": true,
          "internalType": "address",
          "name": "newOwner",
          "type": "address"
        }
      ],
      "name": "OwnershipTransferred",
      "type": "event"
    },
    {
      "inputs": [],
      "name": "owner",
      "outputs": [
        {
          "internalType": "address",
          "name": "",
          "type": "address"
        }
      ],
      "stateMutability": "view",
      "type": "function"
    },
    {
      "inputs": [],
      "name": "renounceOwnership",
      "outputs": [],
      "stateMutability": "nonpayable",
      "type": "function"
    },
    {
      "inputs": [
        {
          "internalType": "address",
          "name": "newOwner",
          "type": "address"
        }
      ],
      "name": "transferOwnership",
      "outputs": [],
      "stateMutability": "nonpayable",
      "type": "function"
    },
    {
      "inputs": [
        {
          "internalType": "address",
          "name": "",
          "type": "address"
        },
        {
          "internalType": "uint256",
          "name": "",
          "type": "uint256"
        }
      ],
      "name": "usersCollectionLinks",
      "outputs": [
        {
          "internalType": "address",
          "name": "collectionContractAddress",
          "type": "address"
        },
        {
          "internalType": "bool",
          "name": "hasBalanceInCollection",
          "type": "bool"
        }
      ],
      "stateMutability": "view",
      "type": "function"
    },
    {
      "inputs": [
        {
          "internalType": "address",
          "name": "collectionAddress",
          "type": "address"
        },
        {
          "internalType": "address",
          "name": "userAddress",
          "type": "address"
        }
      ],
      "name": "addCollectionToAddress",
      "outputs": [],
      "stateMutability": "nonpayable",
      "type": "function"
    },
    {
      "inputs": [
        {
          "internalType": "address",
          "name": "collectionAddress",
          "type": "address"
        },
        {
          "internalType": "address",
          "name": "userAddress",
          "type": "address"
        }
      ],
      "name": "removeCollectionToAddress",
      "outputs": [],
      "stateMutability": "nonpayable",
      "type": "function"
    },
    {
      "inputs": [
        {
          "internalType": "address",
          "name": "collectionAddress",
          "type": "address"
        },
        {
          "internalType": "address",
          "name": "userAddress",
          "type": "address"
        }
      ],
      "name": "hasCollectionLink",
      "outputs": [
        {
          "components": [
            {
              "internalType": "bool",
              "name": "hasLink",
              "type": "bool"
            },
            {
              "internalType": "uint256",
              "name": "linkIndex",
              "type": "uint256"
            }
          ],
          "internalType": "struct CollectionLinker.hasCollectionLinkResult",
          "name": "",
          "type": "tuple"
        }
      ],
      "stateMutability": "view",
      "type": "function"
    }
  ],
  "bytecode": "0x608060405234801561001057600080fd5b5061002d61002261003260201b60201c565b61003a60201b60201c565b6100fe565b600033905090565b60008060009054906101000a900473ffffffffffffffffffffffffffffffffffffffff169050816000806101000a81548173ffffffffffffffffffffffffffffffffffffffff021916908373ffffffffffffffffffffffffffffffffffffffff1602179055508173ffffffffffffffffffffffffffffffffffffffff168173ffffffffffffffffffffffffffffffffffffffff167f8be0079c531659141344cd1fd0a4f28419497f9722a3daafe3b4186f6b6457e060405160405180910390a35050565b6110648061010d6000396000f3fe608060405234801561001057600080fd5b506004361061007d5760003560e01c8063949eecd71161005b578063949eecd7146100db578063b03413b2146100f7578063f26cab2714610113578063f2fde38b146101435761007d565b80633bc5df3414610082578063715018a6146100b35780638da5cb5b146100bd575b600080fd5b61009c60048036038101906100979190610c93565b61015f565b6040516100aa929190610cfd565b60405180910390f35b6100bb6101c9565b005b6100c5610251565b6040516100d29190610d26565b60405180910390f35b6100f560048036038101906100f09190610d41565b61027a565b005b610111600480360381019061010c9190610d41565b610744565b005b61012d60048036038101906101289190610d41565b6108bf565b60405161013a9190610dce565b60405180910390f35b61015d60048036038101906101589190610de9565b610a1b565b005b6001602052816000526040600020818154811061017b57600080fd5b90600052602060002001600091509150508060000160009054906101000a900473ffffffffffffffffffffffffffffffffffffffff16908060000160149054906101000a900460ff16905082565b6101d1610b12565b73ffffffffffffffffffffffffffffffffffffffff166101ef610251565b73ffffffffffffffffffffffffffffffffffffffff1614610245576040517f08c379a000000000000000000000000000000000000000000000000000000000815260040161023c90610e73565b60405180910390fd5b61024f6000610b1a565b565b60008060009054906101000a900473ffffffffffffffffffffffffffffffffffffffff16905090565b610282610b12565b73ffffffffffffffffffffffffffffffffffffffff166102a0610251565b73ffffffffffffffffffffffffffffffffffffffff16146102f6576040517f08c379a00000000000000000000000000000000000000000000000000000000081526004016102ed90610e73565b60405180910390fd5b600061030283836108bf565b905080600001511561073f576000600160008473ffffffffffffffffffffffffffffffffffffffff1673ffffffffffffffffffffffffffffffffffffffff16815260200190815260200160002082602001518154811061036557610364610e93565b5b906000526020600020016040518060400160405290816000820160009054906101000a900473ffffffffffffffffffffffffffffffffffffffff1673ffffffffffffffffffffffffffffffffffffffff1673ffffffffffffffffffffffffffffffffffffffff1681526020016000820160149054906101000a900460ff1615151515815250509050600160008473ffffffffffffffffffffffffffffffffffffffff1673ffffffffffffffffffffffffffffffffffffffff16815260200190815260200160002060018060008673ffffffffffffffffffffffffffffffffffffffff1673ffffffffffffffffffffffffffffffffffffffff1681526020019081526020016000208054905061047a9190610ef1565b8154811061048b5761048a610e93565b5b90600052602060002001600160008573ffffffffffffffffffffffffffffffffffffffff1673ffffffffffffffffffffffffffffffffffffffff1681526020019081526020016000208360200151815481106104ea576104e9610e93565b5b906000526020600020016000820160009054906101000a900473ffffffffffffffffffffffffffffffffffffffff168160000160006101000a81548173ffffffffffffffffffffffffffffffffffffffff021916908373ffffffffffffffffffffffffffffffffffffffff1602179055506000820160149054906101000a900460ff168160000160146101000a81548160ff02191690831515021790555090505080600160008573ffffffffffffffffffffffffffffffffffffffff1673ffffffffffffffffffffffffffffffffffffffff16815260200190815260200160002060018060008773ffffffffffffffffffffffffffffffffffffffff1673ffffffffffffffffffffffffffffffffffffffff168152602001908152602001600020805490506106199190610ef1565b8154811061062a57610629610e93565b5b9060005260206000200160008201518160000160006101000a81548173ffffffffffffffffffffffffffffffffffffffff021916908373ffffffffffffffffffffffffffffffffffffffff16021790555060208201518160000160146101000a81548160ff021916908315150217905550905050600160008473ffffffffffffffffffffffffffffffffffffffff1673ffffffffffffffffffffffffffffffffffffffff1681526020019081526020016000208054806106ed576106ec610f25565b5b60019003818190600052602060002001600080820160006101000a81549073ffffffffffffffffffffffffffffffffffffffff02191690556000820160146101000a81549060ff021916905550509055505b505050565b61074c610b12565b73ffffffffffffffffffffffffffffffffffffffff1661076a610251565b73ffffffffffffffffffffffffffffffffffffffff16146107c0576040517f08c379a00000000000000000000000000000000000000000000000000000000081526004016107b790610e73565b60405180910390fd5b600160008273ffffffffffffffffffffffffffffffffffffffff1673ffffffffffffffffffffffffffffffffffffffff16815260200190815260200160002060405180604001604052808473ffffffffffffffffffffffffffffffffffffffff168152602001600115158152509080600181540180825580915050600190039060005260206000200160009091909190915060008201518160000160006101000a81548173ffffffffffffffffffffffffffffffffffffffff021916908373ffffffffffffffffffffffffffffffffffffffff16021790555060208201518160000160146101000a81548160ff02191690831515021790555050505050565b6108c7610bde565b60005b600160008473ffffffffffffffffffffffffffffffffffffffff1673ffffffffffffffffffffffffffffffffffffffff168152602001908152602001600020805490508110156109f8578373ffffffffffffffffffffffffffffffffffffffff16600160008573ffffffffffffffffffffffffffffffffffffffff1673ffffffffffffffffffffffffffffffffffffffff168152602001908152602001600020828154811061097c5761097b610e93565b5b9060005260206000200160000160009054906101000a900473ffffffffffffffffffffffffffffffffffffffff1673ffffffffffffffffffffffffffffffffffffffff16036109e557604051806040016040528060011515815260200182815250915050610a15565b80806109f090610f54565b9150506108ca565b506040518060400160405280600015158152602001600081525090505b92915050565b610a23610b12565b73ffffffffffffffffffffffffffffffffffffffff16610a41610251565b73ffffffffffffffffffffffffffffffffffffffff1614610a97576040517f08c379a0000000000000000000000000000000000000000000000000000000008152600401610a8e90610e73565b60405180910390fd5b600073ffffffffffffffffffffffffffffffffffffffff168173ffffffffffffffffffffffffffffffffffffffff1603610b06576040517f08c379a0000000000000000000000000000000000000000000000000000000008152600401610afd9061100e565b60405180910390fd5b610b0f81610b1a565b50565b600033905090565b60008060009054906101000a900473ffffffffffffffffffffffffffffffffffffffff169050816000806101000a81548173ffffffffffffffffffffffffffffffffffffffff021916908373ffffffffffffffffffffffffffffffffffffffff1602179055508173ffffffffffffffffffffffffffffffffffffffff168173ffffffffffffffffffffffffffffffffffffffff167f8be0079c531659141344cd1fd0a4f28419497f9722a3daafe3b4186f6b6457e060405160405180910390a35050565b6040518060400160405280600015158152602001600081525090565b600080fd5b600073ffffffffffffffffffffffffffffffffffffffff82169050919050565b6000610c2a82610bff565b9050919050565b610c3a81610c1f565b8114610c4557600080fd5b50565b600081359050610c5781610c31565b92915050565b6000819050919050565b610c7081610c5d565b8114610c7b57600080fd5b50565b600081359050610c8d81610c67565b92915050565b60008060408385031215610caa57610ca9610bfa565b5b6000610cb885828601610c48565b9250506020610cc985828601610c7e565b9150509250929050565b610cdc81610c1f565b82525050565b60008115159050919050565b610cf781610ce2565b82525050565b6000604082019050610d126000830185610cd3565b610d1f6020830184610cee565b9392505050565b6000602082019050610d3b6000830184610cd3565b92915050565b60008060408385031215610d5857610d57610bfa565b5b6000610d6685828601610c48565b9250506020610d7785828601610c48565b9150509250929050565b610d8a81610ce2565b82525050565b610d9981610c5d565b82525050565b604082016000820151610db56000850182610d81565b506020820151610dc86020850182610d90565b50505050565b6000604082019050610de36000830184610d9f565b92915050565b600060208284031215610dff57610dfe610bfa565b5b6000610e0d84828501610c48565b91505092915050565b600082825260208201905092915050565b7f4f776e61626c653a2063616c6c6572206973206e6f7420746865206f776e6572600082015250565b6000610e5d602083610e16565b9150610e6882610e27565b602082019050919050565b60006020820190508181036000830152610e8c81610e50565b9050919050565b7f4e487b7100000000000000000000000000000000000000000000000000000000600052603260045260246000fd5b7f4e487b7100000000000000000000000000000000000000000000000000000000600052601160045260246000fd5b6000610efc82610c5d565b9150610f0783610c5d565b925082821015610f1a57610f19610ec2565b5b828203905092915050565b7f4e487b7100000000000000000000000000000000000000000000000000000000600052603160045260246000fd5b6000610f5f82610c5d565b91507fffffffffffffffffffffffffffffffffffffffffffffffffffffffffffffffff8203610f9157610f90610ec2565b5b600182019050919050565b7f4f776e61626c653a206e6577206f776e657220697320746865207a65726f206160008201527f6464726573730000000000000000000000000000000000000000000000000000602082015250565b6000610ff8602683610e16565b915061100382610f9c565b604082019050919050565b6000602082019050818103600083015261102781610feb565b905091905056fea264697066735822122028666bf0d0c75293ee6054bf9b4375d7326eb09997baff2c4c7828125b07d67e64736f6c634300080d0033",
  "immutableReferences": {},
  "source": "// SPDX-License-Identifier: MIT\npragma solidity 0.8.13;\n\nimport \"@openzeppelin/contracts/access/Ownable.sol\";\n\ncontract CollectionLinker is Ownable {\n\n    struct collectionLink{\n        address collectionContractAddress;\n        bool hasBalanceInCollection;\n    }\n\n    struct hasCollectionLinkResult{\n        bool hasLink; \n        uint linkIndex;\n    }\n\n    mapping(address=>collectionLink[]) public usersCollectionLinks;\n\n    function addCollectionToAddress(address collectionAddress, address userAddress) public onlyOwner {\n        usersCollectionLinks[userAddress].push(collectionLink(collectionAddress,true));\n    }\n\n    function removeCollectionToAddress(address collectionAddress, address userAddress) public onlyOwner {\n        hasCollectionLinkResult memory result = hasCollectionLink(collectionAddress, userAddress);\n        if(result.hasLink){\n            collectionLink memory tempcollectionLink = usersCollectionLinks[userAddress][result.linkIndex];\n            usersCollectionLinks[userAddress][result.linkIndex] = usersCollectionLinks[userAddress][usersCollectionLinks[userAddress].length-1];\n            usersCollectionLinks[userAddress][usersCollectionLinks[userAddress].length-1] = tempcollectionLink;\n            usersCollectionLinks[userAddress].pop();\n        }\n    }\n\n    function hasCollectionLink(address collectionAddress, address userAddress) public view returns(hasCollectionLinkResult memory) {\n        for(uint i=0; i<usersCollectionLinks[userAddress].length; i++){\n            if(usersCollectionLinks[userAddress][i].collectionContractAddress == collectionAddress){\n                return hasCollectionLinkResult(true,i);\n            }\n        }\n       return hasCollectionLinkResult(false,0);\n    }\n    \n}",
  "sourcePath": "/home/erika/NFTPlatform/contracts/CollectionLinker.sol",
  "compiler": {
    "name": "solc",
    "version": "0.8.13+commit.abaa5c0e.Emscripten.clang"
  },
  "schemaVersion": "3.4.6",
  "updatedAt": "2022-05-09T16:21:14.147Z",
  "devdoc": {
    "kind": "dev",
    "methods": {
      "owner()": {
        "details": "Returns the address of the current owner."
      },
      "renounceOwnership()": {
        "details": "Leaves the contract without owner. It will not be possible to call `onlyOwner` functions anymore. Can only be called by the current owner. NOTE: Renouncing ownership will leave the contract without an owner, thereby removing any functionality that is only available to the owner."
      },
      "transferOwnership(address)": {
        "details": "Transfers ownership of the contract to a new account (`newOwner`). Can only be called by the current owner."
      }
    },
    "version": 1
  },
  "userdoc": {
    "kind": "user",
    "methods": {},
    "version": 1
  }
}