{
  "contractName": "CollectionFactory",
  "abi": [
    {
      "anonymous": false,
      "inputs": [
        {
          "indexed": false,
          "internalType": "string",
          "name": "_artistName",
          "type": "string"
        },
        {
          "indexed": false,
          "internalType": "address",
          "name": "_collectionAddress",
          "type": "address"
        },
        {
          "indexed": false,
          "internalType": "uint256",
          "name": "_timestamp",
          "type": "uint256"
        }
      ],
      "name": "CollectionCreated",
      "type": "event"
    },
    {
      "inputs": [
        {
          "internalType": "string",
          "name": "name",
          "type": "string"
        },
        {
          "internalType": "string",
          "name": "symbol",
          "type": "string"
        }
      ],
      "name": "createCollection",
      "outputs": [
        {
          "internalType": "address",
          "name": "collectionAddress",
          "type": "address"
        }
      ],
      "stateMutability": "nonpayable",
      "type": "function"
    }
  ],
  "bytecode": "0x608060405234801561001057600080fd5b506144a9806100206000396000f3fe60806040523480156200001157600080fd5b50600436106200002e5760003560e01c8063176b9b751462000033575b600080fd5b6200005160048036038101906200004b919062000274565b62000069565b6040516200006091906200033e565b60405180910390f35b60008083836040516200007c90620000f0565b62000089929190620003ee565b604051809103906000f080158015620000a6573d6000803e3d6000fd5b5090507f390c6973f7c33da4f84f0fc3f9077215df1bd11473219153515709b655cdbcd9848342604051620000de9392919062000444565b60405180910390a18091505092915050565b613feb806200048983390190565b6000604051905090565b600080fd5b600080fd5b600080fd5b600080fd5b6000601f19601f8301169050919050565b7f4e487b7100000000000000000000000000000000000000000000000000000000600052604160045260246000fd5b62000167826200011c565b810181811067ffffffffffffffff821117156200018957620001886200012d565b5b80604052505050565b60006200019e620000fe565b9050620001ac82826200015c565b919050565b600067ffffffffffffffff821115620001cf57620001ce6200012d565b5b620001da826200011c565b9050602081019050919050565b82818337600083830152505050565b60006200020d6200020784620001b1565b62000192565b9050828152602081018484840111156200022c576200022b62000117565b5b62000239848285620001e7565b509392505050565b600082601f83011262000259576200025862000112565b5b81356200026b848260208601620001f6565b91505092915050565b600080604083850312156200028e576200028d62000108565b5b600083013567ffffffffffffffff811115620002af57620002ae6200010d565b5b620002bd8582860162000241565b925050602083013567ffffffffffffffff811115620002e157620002e06200010d565b5b620002ef8582860162000241565b9150509250929050565b600073ffffffffffffffffffffffffffffffffffffffff82169050919050565b60006200032682620002f9565b9050919050565b620003388162000319565b82525050565b60006020820190506200035560008301846200032d565b92915050565b600081519050919050565b600082825260208201905092915050565b60005b83811015620003975780820151818401526020810190506200037a565b83811115620003a7576000848401525b50505050565b6000620003ba826200035b565b620003c6818562000366565b9350620003d881856020860162000377565b620003e3816200011c565b840191505092915050565b600060408201905081810360008301526200040a8185620003ad565b90508181036020830152620004208184620003ad565b90509392505050565b6000819050919050565b6200043e8162000429565b82525050565b60006060820190508181036000830152620004608186620003ad565b90506200047160208301856200032d565b62000480604083018462000433565b94935050505056fe60806040523480156200001157600080fd5b5060405162003feb38038062003feb83398181016040528101906200003791906200041a565b6040518060400160405280600481526020017f6e616d65000000000000000000000000000000000000000000000000000000008152506040518060400160405280600681526020017f73796d626f6c00000000000000000000000000000000000000000000000000008152508160009080519060200190620000bb929190620001cd565b508060019080519060200190620000d4929190620001cd565b505050620000f7620000eb620000ff60201b60201c565b6200010760201b60201c565b505062000503565b600033905090565b6000600b60009054906101000a900473ffffffffffffffffffffffffffffffffffffffff16905081600b60006101000a81548173ffffffffffffffffffffffffffffffffffffffff021916908373ffffffffffffffffffffffffffffffffffffffff1602179055508173ffffffffffffffffffffffffffffffffffffffff168173ffffffffffffffffffffffffffffffffffffffff167f8be0079c531659141344cd1fd0a4f28419497f9722a3daafe3b4186f6b6457e060405160405180910390a35050565b828054620001db90620004ce565b90600052602060002090601f016020900481019282620001ff57600085556200024b565b82601f106200021a57805160ff19168380011785556200024b565b828001600101855582156200024b579182015b828111156200024a5782518255916020019190600101906200022d565b5b5090506200025a91906200025e565b5090565b5b80821115620002795760008160009055506001016200025f565b5090565b6000604051905090565b600080fd5b600080fd5b600080fd5b600080fd5b6000601f19601f8301169050919050565b7f4e487b7100000000000000000000000000000000000000000000000000000000600052604160045260246000fd5b620002e6826200029b565b810181811067ffffffffffffffff82111715620003085762000307620002ac565b5b80604052505050565b60006200031d6200027d565b90506200032b8282620002db565b919050565b600067ffffffffffffffff8211156200034e576200034d620002ac565b5b62000359826200029b565b9050602081019050919050565b60005b838110156200038657808201518184015260208101905062000369565b8381111562000396576000848401525b50505050565b6000620003b3620003ad8462000330565b62000311565b905082815260208101848484011115620003d257620003d162000296565b5b620003df84828562000366565b509392505050565b600082601f830112620003ff57620003fe62000291565b5b8151620004118482602086016200039c565b91505092915050565b6000806040838503121562000434576200043362000287565b5b600083015167ffffffffffffffff8111156200045557620004546200028c565b5b6200046385828601620003e7565b925050602083015167ffffffffffffffff8111156200048757620004866200028c565b5b6200049585828601620003e7565b9150509250929050565b7f4e487b7100000000000000000000000000000000000000000000000000000000600052602260045260246000fd5b60006002820490506001821680620004e757607f821691505b602082108103620004fd57620004fc6200049f565b5b50919050565b613ad880620005136000396000f3fe608060405234801561001057600080fd5b50600436106101375760003560e01c80634f6ccce7116100b857806395d89b411161007c57806395d89b4114610362578063a22cb46514610380578063b88d4fde1461039c578063c87b56dd146103b8578063e985e9c5146103e8578063f2fde38b1461041857610137565b80634f6ccce7146102aa5780636352211e146102da57806370a082311461030a578063715018a61461033a5780638da5cb5b1461034457610137565b806323b872dd116100ff57806323b872dd146101f45780632f745c591461021057806337746cc5146102405780633d02d0c91461027257806342842e0e1461028e57610137565b806301ffc9a71461013c57806306fdde031461016c578063081812fc1461018a578063095ea7b3146101ba57806318160ddd146101d6575b600080fd5b6101566004803603810190610151919061251b565b610434565b6040516101639190612563565b60405180910390f35b610174610446565b6040516101819190612617565b60405180910390f35b6101a4600480360381019061019f919061266f565b6104d8565b6040516101b191906126dd565b60405180910390f35b6101d460048036038101906101cf9190612724565b61055d565b005b6101de610674565b6040516101eb9190612773565b60405180910390f35b61020e6004803603810190610209919061278e565b610681565b005b61022a60048036038101906102259190612724565b6106e1565b6040516102379190612773565b60405180910390f35b61025a60048036038101906102559190612724565b610786565b604051610269939291906127e1565b60405180910390f35b61028c60048036038101906102879190612954565b610855565b005b6102a860048036038101906102a3919061278e565b6109c0565b005b6102c460048036038101906102bf919061266f565b6109e0565b6040516102d19190612773565b60405180910390f35b6102f460048036038101906102ef919061266f565b610a51565b60405161030191906126dd565b60405180910390f35b610324600480360381019061031f91906129b0565b610b02565b6040516103319190612773565b60405180910390f35b610342610bb9565b005b61034c610c41565b60405161035991906126dd565b60405180910390f35b61036a610c6b565b6040516103779190612617565b60405180910390f35b61039a60048036038101906103959190612a09565b610cfd565b005b6103b660048036038101906103b19190612aea565b610d13565b005b6103d260048036038101906103cd919061266f565b610d75565b6040516103df9190612617565b60405180910390f35b61040260048036038101906103fd9190612b6d565b610d87565b60405161040f9190612563565b60405180910390f35b610432600480360381019061042d91906129b0565b610e1b565b005b600061043f82610f12565b9050919050565b60606000805461045590612bdc565b80601f016020809104026020016040519081016040528092919081815260200182805461048190612bdc565b80156104ce5780601f106104a3576101008083540402835291602001916104ce565b820191906000526020600020905b8154815290600101906020018083116104b157829003601f168201915b5050505050905090565b60006104e382610f8c565b610522576040517f08c379a000000000000000000000000000000000000000000000000000000000815260040161051990612c7f565b60405180910390fd5b6004600083815260200190815260200160002060009054906101000a900473ffffffffffffffffffffffffffffffffffffffff169050919050565b600061056882610a51565b90508073ffffffffffffffffffffffffffffffffffffffff168373ffffffffffffffffffffffffffffffffffffffff16036105d8576040517f08c379a00000000000000000000000000000000000000000000000000000000081526004016105cf90612d11565b60405180910390fd5b8073ffffffffffffffffffffffffffffffffffffffff166105f7610ff8565b73ffffffffffffffffffffffffffffffffffffffff161480610626575061062581610620610ff8565b610d87565b5b610665576040517f08c379a000000000000000000000000000000000000000000000000000000000815260040161065c90612da3565b60405180910390fd5b61066f8383611000565b505050565b6000600880549050905090565b61069261068c610ff8565b826110b9565b6106d1576040517f08c379a00000000000000000000000000000000000000000000000000000000081526004016106c890612e35565b60405180910390fd5b6106dc838383611197565b505050565b60006106ec83610b02565b821061072d576040517f08c379a000000000000000000000000000000000000000000000000000000000815260040161072490612ec7565b60405180910390fd5b600660008473ffffffffffffffffffffffffffffffffffffffff1673ffffffffffffffffffffffffffffffffffffffff168152602001908152602001600020600083815260200190815260200160002054905092915050565b600d60205281600052604060002081815481106107a257600080fd5b9060005260206000209060030201600091509150508060000154908060010154908060020180546107d290612bdc565b80601f01602080910402602001604051908101604052809291908181526020018280546107fe90612bdc565b801561084b5780601f106108205761010080835404028352916020019161084b565b820191906000526020600020905b81548152906001019060200180831161082e57829003601f168201915b5050505050905083565b8173ffffffffffffffffffffffffffffffffffffffff16610874610c41565b73ffffffffffffffffffffffffffffffffffffffff16036108ca576040517f08c379a00000000000000000000000000000000000000000000000000000000081526004016108c190612f59565b60405180910390fd5b6108d4600c6113fd565b60006108e0600c611413565b90506108ec3382611421565b600d60008473ffffffffffffffffffffffffffffffffffffffff1673ffffffffffffffffffffffffffffffffffffffff1681526020019081526020016000206040518060600160405280838152602001428152602001604051806020016040528060008152508152509080600181540180825580915050600190039060005260206000209060030201600090919091909150600082015181600001556020820151816001015560408201518160020190805190602001906109ae92919061240c565b5050506109bb818361143f565b505050565b6109db83838360405180602001604052806000815250610d13565b505050565b60006109ea610674565b8210610a2b576040517f08c379a0000000000000000000000000000000000000000000000000000000008152600401610a2290612feb565b60405180910390fd5b60088281548110610a3f57610a3e61300b565b5b90600052602060002001549050919050565b6000806002600084815260200190815260200160002060009054906101000a900473ffffffffffffffffffffffffffffffffffffffff169050600073ffffffffffffffffffffffffffffffffffffffff168173ffffffffffffffffffffffffffffffffffffffff1603610af9576040517f08c379a0000000000000000000000000000000000000000000000000000000008152600401610af0906130ac565b60405180910390fd5b80915050919050565b60008073ffffffffffffffffffffffffffffffffffffffff168273ffffffffffffffffffffffffffffffffffffffff1603610b72576040517f08c379a0000000000000000000000000000000000000000000000000000000008152600401610b699061313e565b60405180910390fd5b600360008373ffffffffffffffffffffffffffffffffffffffff1673ffffffffffffffffffffffffffffffffffffffff168152602001908152602001600020549050919050565b610bc1610ff8565b73ffffffffffffffffffffffffffffffffffffffff16610bdf610c41565b73ffffffffffffffffffffffffffffffffffffffff1614610c35576040517f08c379a0000000000000000000000000000000000000000000000000000000008152600401610c2c906131aa565b60405180910390fd5b610c3f60006114b3565b565b6000600b60009054906101000a900473ffffffffffffffffffffffffffffffffffffffff16905090565b606060018054610c7a90612bdc565b80601f0160208091040260200160405190810160405280929190818152602001828054610ca690612bdc565b8015610cf35780601f10610cc857610100808354040283529160200191610cf3565b820191906000526020600020905b815481529060010190602001808311610cd657829003601f168201915b5050505050905090565b610d0f610d08610ff8565b8383611579565b5050565b610d24610d1e610ff8565b836110b9565b610d63576040517f08c379a0000000000000000000000000000000000000000000000000000000008152600401610d5a90612e35565b60405180910390fd5b610d6f848484846116e5565b50505050565b6060610d8082611741565b9050919050565b6000600560008473ffffffffffffffffffffffffffffffffffffffff1673ffffffffffffffffffffffffffffffffffffffff16815260200190815260200160002060008373ffffffffffffffffffffffffffffffffffffffff1673ffffffffffffffffffffffffffffffffffffffff16815260200190815260200160002060009054906101000a900460ff16905092915050565b610e23610ff8565b73ffffffffffffffffffffffffffffffffffffffff16610e41610c41565b73ffffffffffffffffffffffffffffffffffffffff1614610e97576040517f08c379a0000000000000000000000000000000000000000000000000000000008152600401610e8e906131aa565b60405180910390fd5b600073ffffffffffffffffffffffffffffffffffffffff168173ffffffffffffffffffffffffffffffffffffffff1603610f06576040517f08c379a0000000000000000000000000000000000000000000000000000000008152600401610efd9061323c565b60405180910390fd5b610f0f816114b3565b50565b60007f780e9d63000000000000000000000000000000000000000000000000000000007bffffffffffffffffffffffffffffffffffffffffffffffffffffffff1916827bffffffffffffffffffffffffffffffffffffffffffffffffffffffff19161480610f855750610f8482611892565b5b9050919050565b60008073ffffffffffffffffffffffffffffffffffffffff166002600084815260200190815260200160002060009054906101000a900473ffffffffffffffffffffffffffffffffffffffff1673ffffffffffffffffffffffffffffffffffffffff1614159050919050565b600033905090565b816004600083815260200190815260200160002060006101000a81548173ffffffffffffffffffffffffffffffffffffffff021916908373ffffffffffffffffffffffffffffffffffffffff160217905550808273ffffffffffffffffffffffffffffffffffffffff1661107383610a51565b73ffffffffffffffffffffffffffffffffffffffff167f8c5be1e5ebec7d5bd14f71427d1e84f3dd0314c0f7b2291e5b200ac8c7c3b92560405160405180910390a45050565b60006110c482610f8c565b611103576040517f08c379a00000000000000000000000000000000000000000000000000000000081526004016110fa906132ce565b60405180910390fd5b600061110e83610a51565b90508073ffffffffffffffffffffffffffffffffffffffff168473ffffffffffffffffffffffffffffffffffffffff161480611150575061114f8185610d87565b5b8061118e57508373ffffffffffffffffffffffffffffffffffffffff16611176846104d8565b73ffffffffffffffffffffffffffffffffffffffff16145b91505092915050565b8273ffffffffffffffffffffffffffffffffffffffff166111b782610a51565b73ffffffffffffffffffffffffffffffffffffffff161461120d576040517f08c379a000000000000000000000000000000000000000000000000000000000815260040161120490613360565b60405180910390fd5b600073ffffffffffffffffffffffffffffffffffffffff168273ffffffffffffffffffffffffffffffffffffffff160361127c576040517f08c379a0000000000000000000000000000000000000000000000000000000008152600401611273906133f2565b60405180910390fd5b611287838383611974565b611292600082611000565b6001600360008573ffffffffffffffffffffffffffffffffffffffff1673ffffffffffffffffffffffffffffffffffffffff16815260200190815260200160002060008282546112e29190613441565b925050819055506001600360008473ffffffffffffffffffffffffffffffffffffffff1673ffffffffffffffffffffffffffffffffffffffff16815260200190815260200160002060008282546113399190613475565b92505081905550816002600083815260200190815260200160002060006101000a81548173ffffffffffffffffffffffffffffffffffffffff021916908373ffffffffffffffffffffffffffffffffffffffff160217905550808273ffffffffffffffffffffffffffffffffffffffff168473ffffffffffffffffffffffffffffffffffffffff167fddf252ad1be2c89b69c2b068fc378daa952ba7f163c4a11628f55a4df523b3ef60405160405180910390a46113f8838383611984565b505050565b6001816000016000828254019250508190555050565b600081600001549050919050565b61143b828260405180602001604052806000815250611989565b5050565b61144882610f8c565b611487576040517f08c379a000000000000000000000000000000000000000000000000000000000815260040161147e9061353d565b60405180910390fd5b80600a600084815260200190815260200160002090805190602001906114ae92919061240c565b505050565b6000600b60009054906101000a900473ffffffffffffffffffffffffffffffffffffffff16905081600b60006101000a81548173ffffffffffffffffffffffffffffffffffffffff021916908373ffffffffffffffffffffffffffffffffffffffff1602179055508173ffffffffffffffffffffffffffffffffffffffff168173ffffffffffffffffffffffffffffffffffffffff167f8be0079c531659141344cd1fd0a4f28419497f9722a3daafe3b4186f6b6457e060405160405180910390a35050565b8173ffffffffffffffffffffffffffffffffffffffff168373ffffffffffffffffffffffffffffffffffffffff16036115e7576040517f08c379a00000000000000000000000000000000000000000000000000000000081526004016115de906135a9565b60405180910390fd5b80600560008573ffffffffffffffffffffffffffffffffffffffff1673ffffffffffffffffffffffffffffffffffffffff16815260200190815260200160002060008473ffffffffffffffffffffffffffffffffffffffff1673ffffffffffffffffffffffffffffffffffffffff16815260200190815260200160002060006101000a81548160ff0219169083151502179055508173ffffffffffffffffffffffffffffffffffffffff168373ffffffffffffffffffffffffffffffffffffffff167f17307eab39ab6107e8899845ad3d59bd9653f200f220920489ca2b5937696c31836040516116d89190612563565b60405180910390a3505050565b6116f0848484611197565b6116fc848484846119e4565b61173b576040517f08c379a00000000000000000000000000000000000000000000000000000000081526004016117329061363b565b60405180910390fd5b50505050565b606061174c82610f8c565b61178b576040517f08c379a0000000000000000000000000000000000000000000000000000000008152600401611782906136cd565b60405180910390fd5b6000600a600084815260200190815260200160002080546117ab90612bdc565b80601f01602080910402602001604051908101604052809291908181526020018280546117d790612bdc565b80156118245780601f106117f957610100808354040283529160200191611824565b820191906000526020600020905b81548152906001019060200180831161180757829003601f168201915b505050505090506000611835611b6b565b9050600081510361184a57819250505061188d565b60008251111561187f578082604051602001611867929190613729565b6040516020818303038152906040529250505061188d565b61188884611b82565b925050505b919050565b60007f80ac58cd000000000000000000000000000000000000000000000000000000007bffffffffffffffffffffffffffffffffffffffffffffffffffffffff1916827bffffffffffffffffffffffffffffffffffffffffffffffffffffffff1916148061195d57507f5b5e139f000000000000000000000000000000000000000000000000000000007bffffffffffffffffffffffffffffffffffffffffffffffffffffffff1916827bffffffffffffffffffffffffffffffffffffffffffffffffffffffff1916145b8061196d575061196c82611c29565b5b9050919050565b61197f838383611c93565b505050565b505050565b6119938383611da5565b6119a060008484846119e4565b6119df576040517f08c379a00000000000000000000000000000000000000000000000000000000081526004016119d69061363b565b60405180910390fd5b505050565b6000611a058473ffffffffffffffffffffffffffffffffffffffff16611f7e565b15611b5e578373ffffffffffffffffffffffffffffffffffffffff1663150b7a02611a2e610ff8565b8786866040518563ffffffff1660e01b8152600401611a5094939291906137a2565b6020604051808303816000875af1925050508015611a8c57506040513d601f19601f82011682018060405250810190611a899190613803565b60015b611b0e573d8060008114611abc576040519150601f19603f3d011682016040523d82523d6000602084013e611ac1565b606091505b506000815103611b06576040517f08c379a0000000000000000000000000000000000000000000000000000000008152600401611afd9061363b565b60405180910390fd5b805181602001fd5b63150b7a0260e01b7bffffffffffffffffffffffffffffffffffffffffffffffffffffffff1916817bffffffffffffffffffffffffffffffffffffffffffffffffffffffff191614915050611b63565b600190505b949350505050565b606060405180602001604052806000815250905090565b6060611b8d82610f8c565b611bcc576040517f08c379a0000000000000000000000000000000000000000000000000000000008152600401611bc3906138a2565b60405180910390fd5b6000611bd6611b6b565b90506000815111611bf65760405180602001604052806000815250611c21565b80611c0084611fa1565b604051602001611c11929190613729565b6040516020818303038152906040525b915050919050565b60007f01ffc9a7000000000000000000000000000000000000000000000000000000007bffffffffffffffffffffffffffffffffffffffffffffffffffffffff1916827bffffffffffffffffffffffffffffffffffffffffffffffffffffffff1916149050919050565b611c9e838383612101565b600073ffffffffffffffffffffffffffffffffffffffff168373ffffffffffffffffffffffffffffffffffffffff1603611ce057611cdb81612106565b611d1f565b8173ffffffffffffffffffffffffffffffffffffffff168373ffffffffffffffffffffffffffffffffffffffff1614611d1e57611d1d838261214f565b5b5b600073ffffffffffffffffffffffffffffffffffffffff168273ffffffffffffffffffffffffffffffffffffffff1603611d6157611d5c816122bc565b611da0565b8273ffffffffffffffffffffffffffffffffffffffff168273ffffffffffffffffffffffffffffffffffffffff1614611d9f57611d9e828261238d565b5b5b505050565b600073ffffffffffffffffffffffffffffffffffffffff168273ffffffffffffffffffffffffffffffffffffffff1603611e14576040517f08c379a0000000000000000000000000000000000000000000000000000000008152600401611e0b9061390e565b60405180910390fd5b611e1d81610f8c565b15611e5d576040517f08c379a0000000000000000000000000000000000000000000000000000000008152600401611e549061397a565b60405180910390fd5b611e6960008383611974565b6001600360008473ffffffffffffffffffffffffffffffffffffffff1673ffffffffffffffffffffffffffffffffffffffff1681526020019081526020016000206000828254611eb99190613475565b92505081905550816002600083815260200190815260200160002060006101000a81548173ffffffffffffffffffffffffffffffffffffffff021916908373ffffffffffffffffffffffffffffffffffffffff160217905550808273ffffffffffffffffffffffffffffffffffffffff16600073ffffffffffffffffffffffffffffffffffffffff167fddf252ad1be2c89b69c2b068fc378daa952ba7f163c4a11628f55a4df523b3ef60405160405180910390a4611f7a60008383611984565b5050565b6000808273ffffffffffffffffffffffffffffffffffffffff163b119050919050565b606060008203611fe8576040518060400160405280600181526020017f300000000000000000000000000000000000000000000000000000000000000081525090506120fc565b600082905060005b6000821461201a5780806120039061399a565b915050600a826120139190613a11565b9150611ff0565b60008167ffffffffffffffff81111561203657612035612829565b5b6040519080825280601f01601f1916602001820160405280156120685781602001600182028036833780820191505090505b5090505b600085146120f5576001826120819190613441565b9150600a856120909190613a42565b603061209c9190613475565b60f81b8183815181106120b2576120b161300b565b5b60200101907effffffffffffffffffffffffffffffffffffffffffffffffffffffffffffff1916908160001a905350600a856120ee9190613a11565b945061206c565b8093505050505b919050565b505050565b6008805490506009600083815260200190815260200160002081905550600881908060018154018082558091505060019003906000526020600020016000909190919091505550565b6000600161215c84610b02565b6121669190613441565b905060006007600084815260200190815260200160002054905081811461224b576000600660008673ffffffffffffffffffffffffffffffffffffffff1673ffffffffffffffffffffffffffffffffffffffff168152602001908152602001600020600084815260200190815260200160002054905080600660008773ffffffffffffffffffffffffffffffffffffffff1673ffffffffffffffffffffffffffffffffffffffff168152602001908152602001600020600084815260200190815260200160002081905550816007600083815260200190815260200160002081905550505b6007600084815260200190815260200160002060009055600660008573ffffffffffffffffffffffffffffffffffffffff1673ffffffffffffffffffffffffffffffffffffffff16815260200190815260200160002060008381526020019081526020016000206000905550505050565b600060016008805490506122d09190613441565b9050600060096000848152602001908152602001600020549050600060088381548110612300576122ff61300b565b5b9060005260206000200154905080600883815481106123225761232161300b565b5b90600052602060002001819055508160096000838152602001908152602001600020819055506009600085815260200190815260200160002060009055600880548061237157612370613a73565b5b6001900381819060005260206000200160009055905550505050565b600061239883610b02565b905081600660008573ffffffffffffffffffffffffffffffffffffffff1673ffffffffffffffffffffffffffffffffffffffff168152602001908152602001600020600083815260200190815260200160002081905550806007600084815260200190815260200160002081905550505050565b82805461241890612bdc565b90600052602060002090601f01602090048101928261243a5760008555612481565b82601f1061245357805160ff1916838001178555612481565b82800160010185558215612481579182015b82811115612480578251825591602001919060010190612465565b5b50905061248e9190612492565b5090565b5b808211156124ab576000816000905550600101612493565b5090565b6000604051905090565b600080fd5b600080fd5b60007fffffffff0000000000000000000000000000000000000000000000000000000082169050919050565b6124f8816124c3565b811461250357600080fd5b50565b600081359050612515816124ef565b92915050565b600060208284031215612531576125306124b9565b5b600061253f84828501612506565b91505092915050565b60008115159050919050565b61255d81612548565b82525050565b60006020820190506125786000830184612554565b92915050565b600081519050919050565b600082825260208201905092915050565b60005b838110156125b857808201518184015260208101905061259d565b838111156125c7576000848401525b50505050565b6000601f19601f8301169050919050565b60006125e98261257e565b6125f38185612589565b935061260381856020860161259a565b61260c816125cd565b840191505092915050565b6000602082019050818103600083015261263181846125de565b905092915050565b6000819050919050565b61264c81612639565b811461265757600080fd5b50565b60008135905061266981612643565b92915050565b600060208284031215612685576126846124b9565b5b60006126938482850161265a565b91505092915050565b600073ffffffffffffffffffffffffffffffffffffffff82169050919050565b60006126c78261269c565b9050919050565b6126d7816126bc565b82525050565b60006020820190506126f260008301846126ce565b92915050565b612701816126bc565b811461270c57600080fd5b50565b60008135905061271e816126f8565b92915050565b6000806040838503121561273b5761273a6124b9565b5b60006127498582860161270f565b925050602061275a8582860161265a565b9150509250929050565b61276d81612639565b82525050565b60006020820190506127886000830184612764565b92915050565b6000806000606084860312156127a7576127a66124b9565b5b60006127b58682870161270f565b93505060206127c68682870161270f565b92505060406127d78682870161265a565b9150509250925092565b60006060820190506127f66000830186612764565b6128036020830185612764565b818103604083015261281581846125de565b9050949350505050565b600080fd5b600080fd5b7f4e487b7100000000000000000000000000000000000000000000000000000000600052604160045260246000fd5b612861826125cd565b810181811067ffffffffffffffff821117156128805761287f612829565b5b80604052505050565b60006128936124af565b905061289f8282612858565b919050565b600067ffffffffffffffff8211156128bf576128be612829565b5b6128c8826125cd565b9050602081019050919050565b82818337600083830152505050565b60006128f76128f2846128a4565b612889565b90508281526020810184848401111561291357612912612824565b5b61291e8482856128d5565b509392505050565b600082601f83011261293b5761293a61281f565b5b813561294b8482602086016128e4565b91505092915050565b6000806040838503121561296b5761296a6124b9565b5b60006129798582860161270f565b925050602083013567ffffffffffffffff81111561299a576129996124be565b5b6129a685828601612926565b9150509250929050565b6000602082840312156129c6576129c56124b9565b5b60006129d48482850161270f565b91505092915050565b6129e681612548565b81146129f157600080fd5b50565b600081359050612a03816129dd565b92915050565b60008060408385031215612a2057612a1f6124b9565b5b6000612a2e8582860161270f565b9250506020612a3f858286016129f4565b9150509250929050565b600067ffffffffffffffff821115612a6457612a63612829565b5b612a6d826125cd565b9050602081019050919050565b6000612a8d612a8884612a49565b612889565b905082815260208101848484011115612aa957612aa8612824565b5b612ab48482856128d5565b509392505050565b600082601f830112612ad157612ad061281f565b5b8135612ae1848260208601612a7a565b91505092915050565b60008060008060808587031215612b0457612b036124b9565b5b6000612b128782880161270f565b9450506020612b238782880161270f565b9350506040612b348782880161265a565b925050606085013567ffffffffffffffff811115612b5557612b546124be565b5b612b6187828801612abc565b91505092959194509250565b60008060408385031215612b8457612b836124b9565b5b6000612b928582860161270f565b9250506020612ba38582860161270f565b9150509250929050565b7f4e487b7100000000000000000000000000000000000000000000000000000000600052602260045260246000fd5b60006002820490506001821680612bf457607f821691505b602082108103612c0757612c06612bad565b5b50919050565b7f4552433732313a20617070726f76656420717565727920666f72206e6f6e657860008201527f697374656e7420746f6b656e0000000000000000000000000000000000000000602082015250565b6000612c69602c83612589565b9150612c7482612c0d565b604082019050919050565b60006020820190508181036000830152612c9881612c5c565b9050919050565b7f4552433732313a20617070726f76616c20746f2063757272656e74206f776e6560008201527f7200000000000000000000000000000000000000000000000000000000000000602082015250565b6000612cfb602183612589565b9150612d0682612c9f565b604082019050919050565b60006020820190508181036000830152612d2a81612cee565b9050919050565b7f4552433732313a20617070726f76652063616c6c6572206973206e6f74206f7760008201527f6e6572206e6f7220617070726f76656420666f7220616c6c0000000000000000602082015250565b6000612d8d603883612589565b9150612d9882612d31565b604082019050919050565b60006020820190508181036000830152612dbc81612d80565b9050919050565b7f4552433732313a207472616e736665722063616c6c6572206973206e6f74206f60008201527f776e6572206e6f7220617070726f766564000000000000000000000000000000602082015250565b6000612e1f603183612589565b9150612e2a82612dc3565b604082019050919050565b60006020820190508181036000830152612e4e81612e12565b9050919050565b7f455243373231456e756d657261626c653a206f776e657220696e646578206f7560008201527f74206f6620626f756e6473000000000000000000000000000000000000000000602082015250565b6000612eb1602b83612589565b9150612ebc82612e55565b604082019050919050565b60006020820190508181036000830152612ee081612ea4565b9050919050565b7f526563697069656e742063616e6e6f7420626520746865206f776e6572206f6660008201527f2074686520636f6e747261637400000000000000000000000000000000000000602082015250565b6000612f43602d83612589565b9150612f4e82612ee7565b604082019050919050565b60006020820190508181036000830152612f7281612f36565b9050919050565b7f455243373231456e756d657261626c653a20676c6f62616c20696e646578206f60008201527f7574206f6620626f756e64730000000000000000000000000000000000000000602082015250565b6000612fd5602c83612589565b9150612fe082612f79565b604082019050919050565b6000602082019050818103600083015261300481612fc8565b9050919050565b7f4e487b7100000000000000000000000000000000000000000000000000000000600052603260045260246000fd5b7f4552433732313a206f776e657220717565727920666f72206e6f6e657869737460008201527f656e7420746f6b656e0000000000000000000000000000000000000000000000602082015250565b6000613096602983612589565b91506130a18261303a565b604082019050919050565b600060208201905081810360008301526130c581613089565b9050919050565b7f4552433732313a2062616c616e636520717565727920666f7220746865207a6560008201527f726f206164647265737300000000000000000000000000000000000000000000602082015250565b6000613128602a83612589565b9150613133826130cc565b604082019050919050565b600060208201905081810360008301526131578161311b565b9050919050565b7f4f776e61626c653a2063616c6c6572206973206e6f7420746865206f776e6572600082015250565b6000613194602083612589565b915061319f8261315e565b602082019050919050565b600060208201905081810360008301526131c381613187565b9050919050565b7f4f776e61626c653a206e6577206f776e657220697320746865207a65726f206160008201527f6464726573730000000000000000000000000000000000000000000000000000602082015250565b6000613226602683612589565b9150613231826131ca565b604082019050919050565b6000602082019050818103600083015261325581613219565b9050919050565b7f4552433732313a206f70657261746f7220717565727920666f72206e6f6e657860008201527f697374656e7420746f6b656e0000000000000000000000000000000000000000602082015250565b60006132b8602c83612589565b91506132c38261325c565b604082019050919050565b600060208201905081810360008301526132e7816132ab565b9050919050565b7f4552433732313a207472616e736665722066726f6d20696e636f72726563742060008201527f6f776e6572000000000000000000000000000000000000000000000000000000602082015250565b600061334a602583612589565b9150613355826132ee565b604082019050919050565b600060208201905081810360008301526133798161333d565b9050919050565b7f4552433732313a207472616e7366657220746f20746865207a65726f2061646460008201527f7265737300000000000000000000000000000000000000000000000000000000602082015250565b60006133dc602483612589565b91506133e782613380565b604082019050919050565b6000602082019050818103600083015261340b816133cf565b9050919050565b7f4e487b7100000000000000000000000000000000000000000000000000000000600052601160045260246000fd5b600061344c82612639565b915061345783612639565b92508282101561346a57613469613412565b5b828203905092915050565b600061348082612639565b915061348b83612639565b9250827fffffffffffffffffffffffffffffffffffffffffffffffffffffffffffffffff038211156134c0576134bf613412565b5b828201905092915050565b7f45524337323155524953746f726167653a2055524920736574206f66206e6f6e60008201527f6578697374656e7420746f6b656e000000000000000000000000000000000000602082015250565b6000613527602e83612589565b9150613532826134cb565b604082019050919050565b600060208201905081810360008301526135568161351a565b9050919050565b7f4552433732313a20617070726f766520746f2063616c6c657200000000000000600082015250565b6000613593601983612589565b915061359e8261355d565b602082019050919050565b600060208201905081810360008301526135c281613586565b9050919050565b7f4552433732313a207472616e7366657220746f206e6f6e20455243373231526560008201527f63656976657220696d706c656d656e7465720000000000000000000000000000602082015250565b6000613625603283612589565b9150613630826135c9565b604082019050919050565b6000602082019050818103600083015261365481613618565b9050919050565b7f45524337323155524953746f726167653a2055524920717565727920666f722060008201527f6e6f6e6578697374656e7420746f6b656e000000000000000000000000000000602082015250565b60006136b7603183612589565b91506136c28261365b565b604082019050919050565b600060208201905081810360008301526136e6816136aa565b9050919050565b600081905092915050565b60006137038261257e565b61370d81856136ed565b935061371d81856020860161259a565b80840191505092915050565b600061373582856136f8565b915061374182846136f8565b91508190509392505050565b600081519050919050565b600082825260208201905092915050565b60006137748261374d565b61377e8185613758565b935061378e81856020860161259a565b613797816125cd565b840191505092915050565b60006080820190506137b760008301876126ce565b6137c460208301866126ce565b6137d16040830185612764565b81810360608301526137e38184613769565b905095945050505050565b6000815190506137fd816124ef565b92915050565b600060208284031215613819576138186124b9565b5b6000613827848285016137ee565b91505092915050565b7f4552433732314d657461646174613a2055524920717565727920666f72206e6f60008201527f6e6578697374656e7420746f6b656e0000000000000000000000000000000000602082015250565b600061388c602f83612589565b915061389782613830565b604082019050919050565b600060208201905081810360008301526138bb8161387f565b9050919050565b7f4552433732313a206d696e7420746f20746865207a65726f2061646472657373600082015250565b60006138f8602083612589565b9150613903826138c2565b602082019050919050565b60006020820190508181036000830152613927816138eb565b9050919050565b7f4552433732313a20746f6b656e20616c7265616479206d696e74656400000000600082015250565b6000613964601c83612589565b915061396f8261392e565b602082019050919050565b6000602082019050818103600083015261399381613957565b9050919050565b60006139a582612639565b91507fffffffffffffffffffffffffffffffffffffffffffffffffffffffffffffffff82036139d7576139d6613412565b5b600182019050919050565b7f4e487b7100000000000000000000000000000000000000000000000000000000600052601260045260246000fd5b6000613a1c82612639565b9150613a2783612639565b925082613a3757613a366139e2565b5b828204905092915050565b6000613a4d82612639565b9150613a5883612639565b925082613a6857613a676139e2565b5b828206905092915050565b7f4e487b7100000000000000000000000000000000000000000000000000000000600052603160045260246000fdfea26469706673582212200c9532afa8d2d34771b6395e1a5f273b2604ea4ed4d96195b2f03bacbbda0d2f64736f6c634300080d0033a26469706673582212201ff2c5bac0bae00cf5d3d8e6e91d3878b3939b633dded458181d7d20358e5b9164736f6c634300080d0033",
  "immutableReferences": {},
  "source": "// SPDX-License-Identifier: MIT\npragma solidity 0.8.13;\nimport \"./Collection.sol\";\n\n/** \n  * @notice Give the ability to deploy a contract to manage ERC-721 tokens for an Artist. \n  * @dev    If the contract is already deployed for an _artistName, it will revert.\n  */\ncontract CollectionFactory {\n    event CollectionCreated(\n        string _artistName,\n        address _collectionAddress,\n        uint _timestamp\n    );\n\n /**\n      * @notice Deploy the ERC-721 Collection contract of the artist caller to be able to create NFTs later\n      * @return collectionAddress the address of the created collection contract\n      */\n    \n    function createCollection(string memory name, string memory symbol) public returns (address collectionAddress) {\n        Collection collection = new Collection(name, symbol);\n        emit CollectionCreated(name, collectionAddress, block.timestamp);\n        return address(collection);\n    }\n}\n        /*\n        // Import the bytecode of the contract to deploy\n        bytes memory collectionBytecode = type(Collection).creationCode;\n\t\t\t\t// Make a random salt based on the artist name\n        bytes32 salt = keccak256(abi.encodePacked(_artistName));\n \n        assembly {\n            collectionAddress := create2(0, add(collectionBytecode, 0x20), mload(collectionBytecode), salt)\n            if iszero(extcodesize(collectionAddress)) {\n                // revert if something gone wrong (collectionAddress doesn't contain an address)\n                revert(0, 0)\n            }\n        }\n        // Initialize the collection contract with the artist settings\n        //Collection(collectionAddress).init(_artistName, _artistSymbol);\n      \n        emit CollectionCreated(_artistName, collectionAddress, block.timestamp);*/\n\n\n",
  "sourcePath": "/home/erika/NFTPlatform/contracts/CollectionFactory.sol",
  "compiler": {
    "name": "solc",
    "version": "0.8.13+commit.abaa5c0e.Emscripten.clang"
  },
  "schemaVersion": "3.4.6",
  "updatedAt": "2022-05-09T16:21:36.881Z",
  "networkType": "ethereum",
  "devdoc": {
    "details": "If the contract is already deployed for an _artistName, it will revert.",
    "kind": "dev",
    "methods": {
      "createCollection(string,string)": {
        "returns": {
          "collectionAddress": "the address of the created collection contract"
        }
      }
    },
    "version": 1
  },
  "userdoc": {
    "kind": "user",
    "methods": {
      "createCollection(string,string)": {
        "notice": "Deploy the ERC-721 Collection contract of the artist caller to be able to create NFTs later"
      }
    },
    "notice": "Give the ability to deploy a contract to manage ERC-721 tokens for an Artist. ",
    "version": 1
  }
}