{
  "contractName": "CollectionLinker",
  "abi": [
    {
      "anonymous": false,
      "inputs": [
        {
          "indexed": true,
          "internalType": "address",
          "name": "previousOwner",
          "type": "address"
        },
        {
          "indexed": true,
          "internalType": "address",
          "name": "newOwner",
          "type": "address"
        }
      ],
      "name": "OwnershipTransferred",
      "type": "event"
    },
    {
      "inputs": [],
      "name": "owner",
      "outputs": [
        {
          "internalType": "address",
          "name": "",
          "type": "address"
        }
      ],
      "stateMutability": "view",
      "type": "function"
    },
    {
      "inputs": [],
      "name": "renounceOwnership",
      "outputs": [],
      "stateMutability": "nonpayable",
      "type": "function"
    },
    {
      "inputs": [
        {
          "internalType": "address",
          "name": "newOwner",
          "type": "address"
        }
      ],
      "name": "transferOwnership",
      "outputs": [],
      "stateMutability": "nonpayable",
      "type": "function"
    },
    {
      "inputs": [
        {
          "internalType": "address",
          "name": "userAddress",
          "type": "address"
        }
      ],
      "name": "getAllCollectionsWithBalance",
      "outputs": [
        {
          "internalType": "contract Collection[]",
          "name": "result",
          "type": "address[]"
        }
      ],
      "stateMutability": "view",
      "type": "function"
    },
    {
      "inputs": [
        {
          "internalType": "address",
          "name": "collectionAddress",
          "type": "address"
        },
        {
          "internalType": "address",
          "name": "userAddress",
          "type": "address"
        }
      ],
      "name": "hasCollectionBalance",
      "outputs": [
        {
          "internalType": "uint256",
          "name": "",
          "type": "uint256"
        }
      ],
      "stateMutability": "view",
      "type": "function"
    },
    {
      "inputs": [
        {
          "internalType": "address",
          "name": "collectionAddress",
          "type": "address"
        },
        {
          "internalType": "address",
          "name": "userAddress",
          "type": "address"
        }
      ],
      "name": "getAllTokensMetaDataOwnedFromCollection",
      "outputs": [
        {
          "components": [
            {
              "internalType": "uint256",
              "name": "tokenId",
              "type": "uint256"
            },
            {
              "internalType": "uint256",
              "name": "timeStamp",
              "type": "uint256"
            },
            {
              "internalType": "string",
              "name": "tokenURI",
              "type": "string"
            }
          ],
          "internalType": "struct CollectionData.tokenMetaData[]",
          "name": "ownedNFTsFromCollection",
          "type": "tuple[]"
        }
      ],
      "stateMutability": "view",
      "type": "function"
    },
    {
      "inputs": [
        {
          "internalType": "address",
          "name": "collectionAddress",
          "type": "address"
        }
      ],
      "name": "getCollectionOwner",
      "outputs": [
        {
          "internalType": "address",
          "name": "owner",
          "type": "address"
        }
      ],
      "stateMutability": "view",
      "type": "function"
    }
  ],
  "bytecode": "0x608060405234801561001057600080fd5b50610033610025640100000000610038810204565b64010000000061003c810204565b61008c565b3390565b60008054600160a060020a03838116600160a060020a0319831681178455604051919092169283917f8be0079c531659141344cd1fd0a4f28419497f9722a3daafe3b4186f6b6457e09190a35050565b610d158061009b6000396000f3fe608060405234801561001057600080fd5b506004361061009a576000357c010000000000000000000000000000000000000000000000000000000090048063a0c92d6d11610078578063a0c92d6d146100ea578063bf6a8ee11461010b578063e64641f81461012b578063f2fde38b1461014b57600080fd5b8063715018a61461009f578063745b69ca146100a95780638da5cb5b146100d9575b600080fd5b6100a761015e565b005b6100bc6100b736600461087b565b6101e3565b604051600160a060020a0390911681526020015b60405180910390f35b600054600160a060020a03166100bc565b6100fd6100f836600461089f565b61027d565b6040519081526020016100d0565b61011e61011936600461089f565b61038e565b6040516100d09190610908565b61013e61013936600461087b565b610628565b6040516100d0919061099e565b6100a761015936600461087b565b6106f3565b600054600160a060020a031633146101d7576040517f08c379a000000000000000000000000000000000000000000000000000000000815260206004820181905260248201527f4f776e61626c653a2063616c6c6572206973206e6f7420746865206f776e657260448201526064015b60405180910390fd5b6101e16000610809565b565b600160a060020a0380821660009081526001602090815260408083205481517f8da5cb5b000000000000000000000000000000000000000000000000000000008152915193941692638da5cb5b926004808401939192918290030181865afa158015610253573d6000803e3d6000fd5b505050506040513d601f19601f8201168201806040525081019061027791906109eb565b92915050565b6000805b6002548110156103845783600160a060020a0316600282815481106102a8576102a8610a08565b600091825260209091200154600160a060020a03160361037257600281815481106102d5576102d5610a08565b6000918252602090912001546040517fa160ee50000000000000000000000000000000000000000000000000000000008152600160a060020a0385811660048301529091169063a160ee5090602401600060405180830381865afa158015610341573d6000803e3d6000fd5b505050506040513d6000823e601f3d908101601f191682016040526103699190810190610b2c565b51915050610277565b8061037c81610c36565b915050610281565b5060009392505050565b6060600061039c848461027d565b90508067ffffffffffffffff8111156103b7576103b7610a37565b60405190808252806020026020018201604052801561040c57816020015b6103f960405180606001604052806000815260200160008152602001606081525090565b8152602001906001900390816103d55790505b50915060005b6002548110156106205784600160a060020a03166002828154811061043957610439610a08565b600091825260209091200154600160a060020a03160361060e5760005b8281101561060c5760006002838154811061047357610473610a08565b6000918252602090912001546040517f2f745c59000000000000000000000000000000000000000000000000000000008152600160a060020a0388811660048301526024820185905290911690632f745c5990604401602060405180830381865afa1580156104e6573d6000803e3d6000fd5b505050506040513d601f19601f8201168201806040525081019061050a9190610c76565b905060008060006002868154811061052457610524610a08565b6000918252602090912001546040517fd6fbf0ad00000000000000000000000000000000000000000000000000000000815260048101869052600160a060020a039091169063d6fbf0ad90602401600060405180830381865afa15801561058f573d6000803e3d6000fd5b505050506040513d6000823e601f3d908101601f191682016040526105b79190810190610c8f565b9250925092506040518060600160405280848152602001838152602001828152508886815181106105ea576105ea610a08565b602002602001018190525050505050808061060490610c36565b915050610456565b505b8061061881610c36565b915050610412565b505092915050565b60606000805b6002548110156106ec57600061066b6002838154811061065057610650610a08565b600091825260209091200154600160a060020a03168661027d565b11156106da576002818154811061068457610684610a08565b9060005260206000200160009054906101000a9004600160a060020a03168383815181106106b4576106b4610a08565b600160a060020a0390921660209283029190910190910152816106d681610c36565b9250505b806106e481610c36565b91505061062e565b5050919050565b600054600160a060020a03163314610767576040517f08c379a000000000000000000000000000000000000000000000000000000000815260206004820181905260248201527f4f776e61626c653a2063616c6c6572206973206e6f7420746865206f776e657260448201526064016101ce565b600160a060020a0381166107fd576040517f08c379a000000000000000000000000000000000000000000000000000000000815260206004820152602660248201527f4f776e61626c653a206e6577206f776e657220697320746865207a65726f206160448201527f646472657373000000000000000000000000000000000000000000000000000060648201526084016101ce565b61080681610809565b50565b60008054600160a060020a0383811673ffffffffffffffffffffffffffffffffffffffff19831681178455604051919092169283917f8be0079c531659141344cd1fd0a4f28419497f9722a3daafe3b4186f6b6457e09190a35050565b600160a060020a038116811461080657600080fd5b60006020828403121561088d57600080fd5b813561089881610866565b9392505050565b600080604083850312156108b257600080fd5b82356108bd81610866565b915060208301356108cd81610866565b809150509250929050565b60005b838110156108f35781810151838201526020016108db565b83811115610902576000848401525b50505050565b60208082528251828201819052600091906040908185019080840286018301878501865b8381101561099057888303603f1901855281518051845287810151888501528601516060878501819052815190850181905260809061097081838801858d016108d8565b96890196601f01601f19169490940190930192509086019060010161092c565b509098975050505050505050565b6020808252825182820181905260009190848201906040850190845b818110156109df578351600160a060020a0316835292840192918401916001016109ba565b50909695505050505050565b6000602082840312156109fd57600080fd5b815161089881610866565b7f4e487b7100000000000000000000000000000000000000000000000000000000600052603260045260246000fd5b7f4e487b7100000000000000000000000000000000000000000000000000000000600052604160045260246000fd5b6040516060810167ffffffffffffffff81118282101715610a8957610a89610a37565b60405290565b604051601f8201601f1916810167ffffffffffffffff81118282101715610ab857610ab8610a37565b604052919050565b600082601f830112610ad157600080fd5b815167ffffffffffffffff811115610aeb57610aeb610a37565b610afe601f8201601f1916602001610a8f565b818152846020838601011115610b1357600080fd5b610b248260208301602087016108d8565b949350505050565b60006020808385031215610b3f57600080fd5b825167ffffffffffffffff80821115610b5757600080fd5b818501915085601f830112610b6b57600080fd5b815181811115610b7d57610b7d610a37565b838102610b8b858201610a8f565b9182528381018501918581019089841115610ba557600080fd5b86860192505b83831015610c2957825185811115610bc35760008081fd5b86016060818c03601f1901811315610bdb5760008081fd5b610be3610a66565b828a01518152604080840151828c0152918301519188831115610c065760008081fd5b610c148e8c85870101610ac0565b90820152845250509186019190860190610bab565b9998505050505050505050565b600060018201610c6f577f4e487b7100000000000000000000000000000000000000000000000000000000600052601160045260246000fd5b5060010190565b600060208284031215610c8857600080fd5b5051919050565b600080600060608486031215610ca457600080fd5b8351925060208401519150604084015167ffffffffffffffff811115610cc957600080fd5b610cd586828701610ac0565b915050925092509256fea26469706673582212202dae119d19b8cef75666d0fdfd3704a346e9ad926277f0299f2f27d08583e0cd64736f6c634300080d0033",
  "immutableReferences": {},
  "source": "// SPDX-License-Identifier: MIT\npragma solidity 0.8.13;\n\nimport \"@openzeppelin/contracts/access/Ownable.sol\";\nimport \"./Collection.sol\";\nimport \"./CollectionData.sol\";\n\ncontract CollectionLinker is Ownable, CollectionData {\n    //mapping from collection address to contracts\n    mapping(address=>Collection) internal _collectionMap;\n    Collection[] internal _collectionArray;\n\n    function getAllCollectionsWithBalance(address userAddress) public view returns(Collection[] memory result){\n        uint counter = 0 ;\n        for(uint i=0; i < _collectionArray.length; i++){\n           if(hasCollectionBalance(address(_collectionArray[i]), userAddress) > 0){\n               result[counter]=_collectionArray[i];\n               counter++;\n           }\n        }\n    }\n\n    function hasCollectionBalance(address collectionAddress, address userAddress) public view returns(uint) {\n        for(uint i=0; i < _collectionArray.length; i++){\n           if(address(_collectionArray[i]) == collectionAddress){\n             return _collectionArray[i].getOwnershipRecord(userAddress).length;\n           }\n        }\n       return 0;\n    }\n\n    function getAllTokensMetaDataOwnedFromCollection(address collectionAddress, address userAddress) external view returns(tokenMetaData[] memory ownedNFTsFromCollection) {\n        uint balance = hasCollectionBalance(collectionAddress, userAddress);\n        ownedNFTsFromCollection = new tokenMetaData[](balance);\n       \n        for(uint i=0; i < _collectionArray.length; i++){\n            if(address(_collectionArray[i]) == collectionAddress){\n                for(uint j=0; j < balance; j++){\n                    uint tokenId = _collectionArray[i].tokenOfOwnerByIndex(userAddress,j);\n                    (uint metaDataTokenId, uint metaDataTimeStamp, string memory metaDataTokenURI) = _collectionArray[i].getTokenMetaDataFromID(tokenId);\n                    ownedNFTsFromCollection[j] = tokenMetaData(metaDataTokenId,metaDataTimeStamp,metaDataTokenURI);\n                }\n            }\n        }\n    }\n\n    function getCollectionOwner(address collectionAddress) external view returns(address owner){\n       owner = _collectionMap[collectionAddress].owner();\n    }\n}",
  "sourcePath": "/home/erika/NFTPlatform/contracts/CollectionLinker.sol",
  "compiler": {
    "name": "solc",
    "version": "0.8.13+commit.abaa5c0e.Emscripten.clang"
  },
  "schemaVersion": "3.4.6",
  "updatedAt": "2022-05-09T17:35:54.636Z",
  "devdoc": {
    "kind": "dev",
    "methods": {
      "owner()": {
        "details": "Returns the address of the current owner."
      },
      "renounceOwnership()": {
        "details": "Leaves the contract without owner. It will not be possible to call `onlyOwner` functions anymore. Can only be called by the current owner. NOTE: Renouncing ownership will leave the contract without an owner, thereby removing any functionality that is only available to the owner."
      },
      "transferOwnership(address)": {
        "details": "Transfers ownership of the contract to a new account (`newOwner`). Can only be called by the current owner."
      }
    },
    "version": 1
  },
  "userdoc": {
    "kind": "user",
    "methods": {},
    "version": 1
  }
}