{
  "contractName": "CollectionLinker",
  "abi": [
    {
      "anonymous": false,
      "inputs": [
        {
          "indexed": true,
          "internalType": "address",
          "name": "previousOwner",
          "type": "address"
        },
        {
          "indexed": true,
          "internalType": "address",
          "name": "newOwner",
          "type": "address"
        }
      ],
      "name": "OwnershipTransferred",
      "type": "event"
    },
    {
      "inputs": [],
      "name": "owner",
      "outputs": [
        {
          "internalType": "address",
          "name": "",
          "type": "address"
        }
      ],
      "stateMutability": "view",
      "type": "function"
    },
    {
      "inputs": [],
      "name": "renounceOwnership",
      "outputs": [],
      "stateMutability": "nonpayable",
      "type": "function"
    },
    {
      "inputs": [
        {
          "internalType": "address",
          "name": "newOwner",
          "type": "address"
        }
      ],
      "name": "transferOwnership",
      "outputs": [],
      "stateMutability": "nonpayable",
      "type": "function"
    },
    {
      "inputs": [],
      "name": "getAllCollections",
      "outputs": [
        {
          "internalType": "address[]",
          "name": "",
          "type": "address[]"
        }
      ],
      "stateMutability": "view",
      "type": "function"
    },
    {
      "inputs": [
        {
          "internalType": "address",
          "name": "collectionAddress",
          "type": "address"
        }
      ],
      "name": "getAllTokensFromCollection",
      "outputs": [
        {
          "components": [
            {
              "internalType": "uint256",
              "name": "tokenId",
              "type": "uint256"
            },
            {
              "internalType": "uint256",
              "name": "timeStamp",
              "type": "uint256"
            },
            {
              "internalType": "string",
              "name": "tokenURI",
              "type": "string"
            }
          ],
          "internalType": "struct CollectionData.tokenMetaData[]",
          "name": "",
          "type": "tuple[]"
        }
      ],
      "stateMutability": "view",
      "type": "function"
    },
    {
      "inputs": [
        {
          "internalType": "address",
          "name": "collectionAddress",
          "type": "address"
        },
        {
          "internalType": "uint256",
          "name": "tokenId",
          "type": "uint256"
        }
      ],
      "name": "getMetadataFromToken",
      "outputs": [
        {
          "components": [
            {
              "internalType": "uint256",
              "name": "tokenId",
              "type": "uint256"
            },
            {
              "internalType": "uint256",
              "name": "timeStamp",
              "type": "uint256"
            },
            {
              "internalType": "string",
              "name": "tokenURI",
              "type": "string"
            }
          ],
          "internalType": "struct CollectionData.tokenMetaData",
          "name": "",
          "type": "tuple"
        }
      ],
      "stateMutability": "view",
      "type": "function"
    }
  ],
  "bytecode": "0x608060405234801561001057600080fd5b50610033610025640100000000610038810204565b64010000000061003c810204565b61008c565b3390565b60008054600160a060020a03838116600160a060020a0319831681178455604051919092169283917f8be0079c531659141344cd1fd0a4f28419497f9722a3daafe3b4186f6b6457e09190a35050565b610a3c8061009b6000396000f3fe608060405234801561001057600080fd5b506004361061007e577c010000000000000000000000000000000000000000000000000000000060003504630cdfd1e0811461008357806357ad48ac146100ac5780636804a958146100cc578063715018a6146100e15780638da5cb5b146100eb578063f2fde38b14610106575b600080fd5b610096610091366004610699565b610119565b6040516100a3919061073d565b60405180910390f35b6100bf6100ba366004610757565b610143565b6040516100a39190610772565b6100d46103b8565b6040516100a391906107d3565b6100e9610485565b005b600054604051600160a060020a0390911681526020016100a3565b6100e9610114366004610757565b61050a565b61013d60405180606001604052806000815260200160008152602001606081525090565b92915050565b600160a060020a0380821660009081526001602090815260408083205481517f18160ddd000000000000000000000000000000000000000000000000000000008152915160609591909116926318160ddd92600480820193918290030181865afa1580156101b5573d6000803e3d6000fd5b505050506040513d601f19601f820116820180604052508101906101d99190610820565b905060008167ffffffffffffffff8111156101f6576101f6610839565b60405190808252806020026020018201604052801561024b57816020015b61023860405180606001604052806000815260200160008152602001606081525090565b8152602001906001900390816102145790505b50905060005b828110156103b057600160a060020a03858116600090815260016020526040908190205490517f4f6ccce7000000000000000000000000000000000000000000000000000000008152600481018490523092630cdfd1e0928992911690634f6ccce790602401602060405180830381865afa1580156102d4573d6000803e3d6000fd5b505050506040513d601f19601f820116820180604052508101906102f89190610820565b6040517c010000000000000000000000000000000000000000000000000000000063ffffffff8516028152600160a060020a0390921660048301526024820152604401600060405180830381865afa158015610358573d6000803e3d6000fd5b505050506040513d6000823e601f3d908101601f1916820160405261038091908101906108c2565b82828151811061039257610392610997565b602002602001018190525080806103a8906109c6565b915050610251565b509392505050565b60025460609060009067ffffffffffffffff8111156103d9576103d9610839565b604051908082528060200260200182016040528015610402578160200160208202803683370190505b50905060005b60025481101561047f576002818154811061042557610425610997565b9060005260206000200160009054906101000a9004600160a060020a031682828151811061045557610455610997565b600160a060020a039092166020928302919091019091015280610477816109c6565b915050610408565b50919050565b600054600160a060020a031633146104fe576040517f08c379a000000000000000000000000000000000000000000000000000000000815260206004820181905260248201527f4f776e61626c653a2063616c6c6572206973206e6f7420746865206f776e657260448201526064015b60405180910390fd5b6105086000610620565b565b600054600160a060020a0316331461057e576040517f08c379a000000000000000000000000000000000000000000000000000000000815260206004820181905260248201527f4f776e61626c653a2063616c6c6572206973206e6f7420746865206f776e657260448201526064016104f5565b600160a060020a038116610614576040517f08c379a000000000000000000000000000000000000000000000000000000000815260206004820152602660248201527f4f776e61626c653a206e6577206f776e657220697320746865207a65726f206160448201527f646472657373000000000000000000000000000000000000000000000000000060648201526084016104f5565b61061d81610620565b50565b60008054600160a060020a0383811673ffffffffffffffffffffffffffffffffffffffff19831681178455604051919092169283917f8be0079c531659141344cd1fd0a4f28419497f9722a3daafe3b4186f6b6457e09190a35050565b8035600160a060020a038116811461069457600080fd5b919050565b600080604083850312156106ac57600080fd5b6106b58361067d565b946020939093013593505050565b60005b838110156106de5781810151838201526020016106c6565b838111156106ed576000848401525b50505050565b8051825260208101516020830152600060408201516060604085015280518060608601526107288160808701602085016106c3565b601f01601f1916939093016080019392505050565b60208152600061075060208301846106f3565b9392505050565b60006020828403121561076957600080fd5b6107508261067d565b600060208083018184528085518083526040860191506040848202870101925083870160005b828110156107c657603f198886030184526107b48583516106f3565b94509285019290850190600101610798565b5092979650505050505050565b6020808252825182820181905260009190848201906040850190845b81811015610814578351600160a060020a0316835292840192918401916001016107ef565b50909695505050505050565b60006020828403121561083257600080fd5b5051919050565b7f4e487b7100000000000000000000000000000000000000000000000000000000600052604160045260246000fd5b6040516060810167ffffffffffffffff8111828210171561088b5761088b610839565b60405290565b604051601f8201601f1916810167ffffffffffffffff811182821017156108ba576108ba610839565b604052919050565b600060208083850312156108d557600080fd5b825167ffffffffffffffff808211156108ed57600080fd5b908401906060828703121561090157600080fd5b610909610868565b82518152838301518482015260408301518281111561092757600080fd5b80840193505086601f84011261093c57600080fd5b82518281111561094e5761094e610839565b610960601f8201601f19168601610891565b9250808352878582860101111561097657600080fd5b610985818685018787016106c3565b50604081019190915295945050505050565b7f4e487b7100000000000000000000000000000000000000000000000000000000600052603260045260246000fd5b6000600182016109ff577f4e487b7100000000000000000000000000000000000000000000000000000000600052601160045260246000fd5b506001019056fea26469706673582212207509185a864e02c973f4e872ec803e5d2e41d93079bfd3331e9318030bc0333b64736f6c634300080d0033",
  "immutableReferences": {},
  "source": "// SPDX-License-Identifier: MIT\npragma solidity 0.8.13;\n\nimport \"@openzeppelin/contracts/access/Ownable.sol\";\nimport \"../Collection.sol\";\nimport \"./CollectionData.sol\";\n\ncontract CollectionLinker is Ownable, CollectionData {\n    //mapping from collection address to contracts\n    mapping(address=>Collection) internal _collectionMap;\n    Collection[] internal _collectionArray;\n\n    //Platform Based\n    function getAllCollections() external view returns(address[] memory){\n        address[] memory collectionList = new address[](_collectionArray.length);\n\n        for(uint i=0; i<_collectionArray.length; i++){\n            collectionList[i] = address(_collectionArray[i]);\n        }\n\n        return collectionList;\n    }\n\n    function getAllTokensFromCollection(address collectionAddress) external view returns(tokenMetaData[] memory){\n        uint totalSupply = _collectionMap[collectionAddress].totalSupply();\n        tokenMetaData[] memory allTokensMetaDataInCollection = new tokenMetaData[](totalSupply);\n\n        for(uint i=0; i<totalSupply; i++){\n            allTokensMetaDataInCollection[i] = this.getMetadataFromToken(collectionAddress, _collectionMap[collectionAddress].tokenByIndex(i));\n        }\n\n        return allTokensMetaDataInCollection;\n    }\n\n    function getMetadataFromToken(address collectionAddress, uint tokenId) external view returns(tokenMetaData memory){\n        //return _collectionMap[collectionAddress].getTokenMetaDataFromID(tokenId);\n    }\n\n    //UserBased\n    /*\n    function getAllCollectionsWithBalance(address userAddress) external view returns(Collection[] memory){\n        uint counter = 0 ;\n        Collection[] memory tempCollectionsWithBalance = new Collection[](_collectionArray.length);\n        \n        for(uint i=0; i < _collectionArray.length; i++){\n           if(hasCollectionBalance(address(_collectionArray[i]), userAddress) > 0){\n               tempCollectionsWithBalance[counter] = _collectionArray[i];\n               counter++;\n           }\n        }\n\n        Collection[] memory collectionsWithBalance = new Collection[](counter);\n        for(uint j=0; j < counter; j++){\n            collectionsWithBalance[j]=tempCollectionsWithBalance[j];\n        }\n\n        return collectionsWithBalance;\n    }\n\n    function hasCollectionBalance(address collectionAddress, address userAddress) public view returns(uint) {\n        return _collectionMap[collectionAddress].balanceOf(userAddress);\n    }\n\n    function getAllTokensMetaDataOwnedFromCollection(address collectionAddress, address userAddress) external view returns(tokenMetaData[] memory ownedNFTsFromCollection) {\n        uint balance = hasCollectionBalance(collectionAddress, userAddress);\n        ownedNFTsFromCollection = new tokenMetaData[](balance);\n\n        for(uint i=0; i < balance; i++){\n            uint tokenId = _collectionMap[collectionAddress].tokenOfOwnerByIndex(userAddress,i);\n            ownedNFTsFromCollection[i] = _collectionMap[collectionAddress].getTokenMetaDataFromID(tokenId);\n        }\n    }\n\n    function getCollectionOwner(address collectionAddress) external view returns(address owner){\n       owner = _collectionMap[collectionAddress].owner();\n    }\n\n    function getTokenOwner(address collectionAddress, uint tokenId) external view returns(address owner){\n       owner = _collectionMap[collectionAddress].ownerOf(tokenId);\n    }*/\n}",
  "sourcePath": "/home/erika/NFTPlatform/contracts/NotUsed/CollectionLinker.sol",
  "compiler": {
    "name": "solc",
    "version": "0.8.13+commit.abaa5c0e.Emscripten.clang"
  },
  "schemaVersion": "3.4.6",
  "updatedAt": "2022-05-15T08:44:11.204Z",
  "devdoc": {
    "kind": "dev",
    "methods": {
      "owner()": {
        "details": "Returns the address of the current owner."
      },
      "renounceOwnership()": {
        "details": "Leaves the contract without owner. It will not be possible to call `onlyOwner` functions anymore. Can only be called by the current owner. NOTE: Renouncing ownership will leave the contract without an owner, thereby removing any functionality that is only available to the owner."
      },
      "transferOwnership(address)": {
        "details": "Transfers ownership of the contract to a new account (`newOwner`). Can only be called by the current owner."
      }
    },
    "version": 1
  },
  "userdoc": {
    "kind": "user",
    "methods": {},
    "version": 1
  }
}