{
  "contractName": "Factory",
  "abi": [
    {
      "inputs": [],
      "stateMutability": "nonpayable",
      "type": "constructor"
    },
    {
      "anonymous": false,
      "inputs": [
        {
          "indexed": false,
          "internalType": "address",
          "name": "_creator",
          "type": "address"
        },
        {
          "indexed": false,
          "internalType": "string",
          "name": "_collectionName",
          "type": "string"
        },
        {
          "indexed": false,
          "internalType": "string",
          "name": "_collectionSymbol",
          "type": "string"
        },
        {
          "indexed": false,
          "internalType": "address",
          "name": "_collectionAddress",
          "type": "address"
        },
        {
          "indexed": false,
          "internalType": "uint256",
          "name": "_timestamp",
          "type": "uint256"
        }
      ],
      "name": "CollectionCreated",
      "type": "event"
    },
    {
      "inputs": [
        {
          "internalType": "address",
          "name": "",
          "type": "address"
        }
      ],
      "name": "NFTCollections",
      "outputs": [
        {
          "internalType": "string",
          "name": "collectionName",
          "type": "string"
        },
        {
          "internalType": "string",
          "name": "collectionSymbol",
          "type": "string"
        },
        {
          "internalType": "address",
          "name": "creator",
          "type": "address"
        }
      ],
      "stateMutability": "view",
      "type": "function",
      "constant": true
    },
    {
      "inputs": [
        {
          "internalType": "string",
          "name": "_name",
          "type": "string"
        },
        {
          "internalType": "string",
          "name": "_symbol",
          "type": "string"
        }
      ],
      "name": "createCollection",
      "outputs": [
        {
          "internalType": "address",
          "name": "",
          "type": "address"
        }
      ],
      "stateMutability": "nonpayable",
      "type": "function"
    },
    {
      "inputs": [],
      "name": "getImplementation",
      "outputs": [
        {
          "internalType": "address",
          "name": "",
          "type": "address"
        }
      ],
      "stateMutability": "view",
      "type": "function",
      "constant": true
    }
  ],
  "bytecode": "0x60a060405234801561001057600080fd5b5060405161001d9061004b565b604051809103906000f080158015610039573d6000803e3d6000fd5b506001600160a01b0316608052610058565b611c02806107b283390190565b60805161073a610078600039600081816078015260c6015261073a6000f3fe608060405234801561001057600080fd5b50600436106100415760003560e01c8063176b9b7514610046578063aaf10f4214610076578063fd2f418d1461009c575b600080fd5b610059610054366004610533565b6100be565b6040516001600160a01b0390911681526020015b60405180910390f35b7f0000000000000000000000000000000000000000000000000000000000000000610059565b6100af6100aa366004610597565b61021b565b60405161006d93929190610614565b6000806100ea7f0000000000000000000000000000000000000000000000000000000000000000610356565b60405163266c45bb60e11b81529091506001600160a01b03821690634cd88b769061011b9087908790600401610652565b600060405180830381600087803b15801561013557600080fd5b505af1158015610149573d6000803e3d6000fd5b505060408051606081018252878152602080820188905233828401526001600160a01b038616600090815280825292909220815180519295509093506101939284929101906103f7565b5060208281015180516101ac92600185019201906103f7565b5060409182015160029190910180546001600160a01b0319166001600160a01b03909216919091179055517f087b93787f5709015369bda78ded645b96a3b36fb2aecacff8b0a173524ede8d9061020c9033908790879086904290610680565b60405180910390a19392505050565b600060208190529081526040902080548190610236906106ca565b80601f0160208091040260200160405190810160405280929190818152602001828054610262906106ca565b80156102af5780601f10610284576101008083540402835291602001916102af565b820191906000526020600020905b81548152906001019060200180831161029257829003601f168201915b5050505050908060010180546102c4906106ca565b80601f01602080910402602001604051908101604052809291908181526020018280546102f0906106ca565b801561033d5780601f106103125761010080835404028352916020019161033d565b820191906000526020600020905b81548152906001019060200180831161032057829003601f168201915b505050600290930154919250506001600160a01b031683565b6000604051733d602d80600a3d3981f3363d3d373d3d3d363d7360601b81528260601b60148201526e5af43d82803e903d91602b57fd5bf360881b60288201526037816000f09150506001600160a01b0381166103f25760405162461bcd60e51b8152602060048201526016602482015275115490cc4c4d8dce8818dc99585d194819985a5b195960521b604482015260640160405180910390fd5b919050565b828054610403906106ca565b90600052602060002090601f016020900481019282610425576000855561046b565b82601f1061043e57805160ff191683800117855561046b565b8280016001018555821561046b579182015b8281111561046b578251825591602001919060010190610450565b5061047792915061047b565b5090565b5b80821115610477576000815560010161047c565b634e487b7160e01b600052604160045260246000fd5b600082601f8301126104b757600080fd5b813567ffffffffffffffff808211156104d2576104d2610490565b604051601f8301601f19908116603f011681019082821181831017156104fa576104fa610490565b8160405283815286602085880101111561051357600080fd5b836020870160208301376000602085830101528094505050505092915050565b6000806040838503121561054657600080fd5b823567ffffffffffffffff8082111561055e57600080fd5b61056a868387016104a6565b9350602085013591508082111561058057600080fd5b5061058d858286016104a6565b9150509250929050565b6000602082840312156105a957600080fd5b81356001600160a01b03811681146105c057600080fd5b9392505050565b6000815180845260005b818110156105ed576020818501810151868301820152016105d1565b818111156105ff576000602083870101525b50601f01601f19169290920160200192915050565b60608152600061062760608301866105c7565b828103602084015261063981866105c7565b91505060018060a01b0383166040830152949350505050565b60408152600061066560408301856105c7565b828103602084015261067781856105c7565b95945050505050565b600060018060a01b03808816835260a060208401526106a260a08401886105c7565b83810360408501526106b481886105c7565b9590911660608401525050608001529392505050565b600181811c908216806106de57607f821691505b6020821081036106fe57634e487b7160e01b600052602260045260246000fd5b5091905056fea264697066735822122088df26f9b6640e4959c8b60b296085e32e58826801c1d6f647f1ed88dacca07864736f6c634300080e003360806040523480156200001157600080fd5b50604080518082018252600481527f6e616d650000000000000000000000000000000000000000000000000000000060208083019182528351808501909452600684527f73796d626f6c00000000000000000000000000000000000000000000000000009084015281519192916200008c91600091620000ab565b508051620000a2906001906020840190620000ab565b505050620001a6565b828054620000b99062000151565b90600052602060002090601f016020900481019282620000dd576000855562000128565b82601f10620000f857805160ff191683800117855562000128565b8280016001018555821562000128579182015b82811115620001285782518255916020019190600101906200010b565b50620001369291506200013a565b5090565b5b808211156200013657600081556001016200013b565b600181811c908216806200016657607f821691505b602082108103620001a0577f4e487b7100000000000000000000000000000000000000000000000000000000600052602260045260246000fd5b50919050565b611a4c80620001b66000396000f3fe608060405234801561001057600080fd5b506004361061010b5760003560e01c80634cd88b76116100a2578063a22cb46511610071578063a22cb4651461021d578063b88d4fde14610230578063c87b56dd14610243578063e5326ab114610256578063e985e9c51461025e57600080fd5b80634cd88b76146101ce5780636352211e146101e157806370a08231146101f457806395d89b411461021557600080fd5b806323b872dd116100de57806323b872dd1461018d5780632f39352a146101a05780633d02d0c9146101a857806342842e0e146101bb57600080fd5b806301ffc9a71461011057806306fdde0314610138578063081812fc1461014d578063095ea7b314610178575b600080fd5b61012361011e366004611405565b61029a565b60405190151581526020015b60405180910390f35b6101406102ec565b60405161012f919061147a565b61016061015b36600461148d565b61037e565b6040516001600160a01b03909116815260200161012f565b61018b6101863660046114bd565b61040b565b005b61018b61019b3660046114e7565b610520565b610140610551565b61018b6101b63660046115cf565b6105df565b61018b6101c93660046114e7565b61064e565b61018b6101dc36600461161d565b610669565b6101606101ef36600461148d565b6106f7565b610207610202366004611677565b61076e565b60405190815260200161012f565b6101406107f5565b61018b61022b366004611692565b610804565b61018b61023e3660046116ce565b610813565b61014061025136600461148d565b61084b565b6101406109c1565b61012361026c36600461174a565b6001600160a01b03918216600090815260056020908152604080832093909416825291909152205460ff1690565b60006001600160e01b031982166380ac58cd60e01b14806102cb57506001600160e01b03198216635b5e139f60e01b145b806102e657506301ffc9a760e01b6001600160e01b03198316145b92915050565b6060600080546102fb9061177d565b80601f01602080910402602001604051908101604052809291908181526020018280546103279061177d565b80156103745780601f1061034957610100808354040283529160200191610374565b820191906000526020600020905b81548152906001019060200180831161035757829003601f168201915b5050505050905090565b6000610389826109ce565b6103ef5760405162461bcd60e51b815260206004820152602c60248201527f4552433732313a20617070726f76656420717565727920666f72206e6f6e657860448201526b34b9ba32b73a103a37b5b2b760a11b60648201526084015b60405180910390fd5b506000908152600460205260409020546001600160a01b031690565b6000610416826106f7565b9050806001600160a01b0316836001600160a01b0316036104835760405162461bcd60e51b815260206004820152602160248201527f4552433732313a20617070726f76616c20746f2063757272656e74206f776e656044820152603960f91b60648201526084016103e6565b336001600160a01b038216148061049f575061049f813361026c565b6105115760405162461bcd60e51b815260206004820152603860248201527f4552433732313a20617070726f76652063616c6c6572206973206e6f74206f7760448201527f6e6572206e6f7220617070726f76656420666f7220616c6c000000000000000060648201526084016103e6565b61051b83836109eb565b505050565b61052a3382610a59565b6105465760405162461bcd60e51b81526004016103e6906117b7565b61051b838383610b42565b600a805461055e9061177d565b80601f016020809104026020016040519081016040528092919081815260200182805461058a9061177d565b80156105d75780601f106105ac576101008083540402835291602001916105d7565b820191906000526020600020905b8154815290600101906020018083116105ba57829003601f168201915b505050505081565b6105ed600880546001019055565b60006105f860085490565b90506106048382610cde565b61060e8183610cf8565b7fec2cd236ed6d37bf5a71276ac93889db12834493a090efd543a3d2eca8dcdcc881848460405161064193929190611808565b60405180910390a1505050565b61051b83838360405180602001604052806000815250610813565b60006106756001610d83565b9050801561068d576007805461ff0019166101001790555b82516106a0906009906020860190611353565b5081516106b490600a906020850190611353565b50801561051b576007805461ff0019169055604051600181527f7f26b83ff96e1f2b6a682f133852f6798a09c465da95921460cefb384740249890602001610641565b6000818152600260205260408120546001600160a01b0316806102e65760405162461bcd60e51b815260206004820152602960248201527f4552433732313a206f776e657220717565727920666f72206e6f6e657869737460448201526832b73a103a37b5b2b760b91b60648201526084016103e6565b60006001600160a01b0382166107d95760405162461bcd60e51b815260206004820152602a60248201527f4552433732313a2062616c616e636520717565727920666f7220746865207a65604482015269726f206164647265737360b01b60648201526084016103e6565b506001600160a01b031660009081526003602052604090205490565b6060600180546102fb9061177d565b61080f338383610e12565b5050565b61081d3383610a59565b6108395760405162461bcd60e51b81526004016103e6906117b7565b61084584848484610ee0565b50505050565b6060610856826109ce565b6108bc5760405162461bcd60e51b815260206004820152603160248201527f45524337323155524953746f726167653a2055524920717565727920666f72206044820152703737b732bc34b9ba32b73a103a37b5b2b760791b60648201526084016103e6565b600082815260066020526040812080546108d59061177d565b80601f01602080910402602001604051908101604052809291908181526020018280546109019061177d565b801561094e5780601f106109235761010080835404028352916020019161094e565b820191906000526020600020905b81548152906001019060200180831161093157829003601f168201915b50505050509050600061096c60408051602081019091526000815290565b9050805160000361097e575092915050565b8151156109b057808260405160200161099892919061183b565b60405160208183030381529060405292505050919050565b6109b984610f13565b949350505050565b6009805461055e9061177d565b6000908152600260205260409020546001600160a01b0316151590565b600081815260046020526040902080546001600160a01b0319166001600160a01b0384169081179091558190610a20826106f7565b6001600160a01b03167f8c5be1e5ebec7d5bd14f71427d1e84f3dd0314c0f7b2291e5b200ac8c7c3b92560405160405180910390a45050565b6000610a64826109ce565b610ac55760405162461bcd60e51b815260206004820152602c60248201527f4552433732313a206f70657261746f7220717565727920666f72206e6f6e657860448201526b34b9ba32b73a103a37b5b2b760a11b60648201526084016103e6565b6000610ad0836106f7565b9050806001600160a01b0316846001600160a01b03161480610b1757506001600160a01b0380821660009081526005602090815260408083209388168352929052205460ff165b806109b95750836001600160a01b0316610b308461037e565b6001600160a01b031614949350505050565b826001600160a01b0316610b55826106f7565b6001600160a01b031614610bb95760405162461bcd60e51b815260206004820152602560248201527f4552433732313a207472616e736665722066726f6d20696e636f72726563742060448201526437bbb732b960d91b60648201526084016103e6565b6001600160a01b038216610c1b5760405162461bcd60e51b8152602060048201526024808201527f4552433732313a207472616e7366657220746f20746865207a65726f206164646044820152637265737360e01b60648201526084016103e6565b610c266000826109eb565b6001600160a01b0383166000908152600360205260408120805460019290610c4f908490611880565b90915550506001600160a01b0382166000908152600360205260408120805460019290610c7d908490611897565b909155505060008181526002602052604080822080546001600160a01b0319166001600160a01b0386811691821790925591518493918716917fddf252ad1be2c89b69c2b068fc378daa952ba7f163c4a11628f55a4df523b3ef91a4505050565b61080f828260405180602001604052806000815250610feb565b610d01826109ce565b610d645760405162461bcd60e51b815260206004820152602e60248201527f45524337323155524953746f726167653a2055524920736574206f66206e6f6e60448201526d32bc34b9ba32b73a103a37b5b2b760911b60648201526084016103e6565b6000828152600660209081526040909120825161051b92840190611353565b600754600090610100900460ff1615610dcc578160ff166001148015610da85750303b155b610dc45760405162461bcd60e51b81526004016103e6906118af565b506000919050565b60075460ff808416911610610df35760405162461bcd60e51b81526004016103e6906118af565b506007805460ff191660ff92909216919091179055600190565b919050565b816001600160a01b0316836001600160a01b031603610e735760405162461bcd60e51b815260206004820152601960248201527f4552433732313a20617070726f766520746f2063616c6c65720000000000000060448201526064016103e6565b6001600160a01b03838116600081815260056020908152604080832094871680845294825291829020805460ff191686151590811790915591519182527f17307eab39ab6107e8899845ad3d59bd9653f200f220920489ca2b5937696c31910160405180910390a3505050565b610eeb848484610b42565b610ef78484848461101e565b6108455760405162461bcd60e51b81526004016103e6906118fd565b6060610f1e826109ce565b610f825760405162461bcd60e51b815260206004820152602f60248201527f4552433732314d657461646174613a2055524920717565727920666f72206e6f60448201526e3732bc34b9ba32b73a103a37b5b2b760891b60648201526084016103e6565b6000610f9960408051602081019091526000815290565b90506000815111610fb95760405180602001604052806000815250610fe4565b80610fc38461111f565b604051602001610fd492919061183b565b6040516020818303038152906040525b9392505050565b610ff58383611220565b611002600084848461101e565b61051b5760405162461bcd60e51b81526004016103e6906118fd565b60006001600160a01b0384163b1561111457604051630a85bd0160e11b81526001600160a01b0385169063150b7a029061106290339089908890889060040161194f565b6020604051808303816000875af192505050801561109d575060408051601f3d908101601f1916820190925261109a9181019061198c565b60015b6110fa573d8080156110cb576040519150601f19603f3d011682016040523d82523d6000602084013e6110d0565b606091505b5080516000036110f25760405162461bcd60e51b81526004016103e6906118fd565b805181602001fd5b6001600160e01b031916630a85bd0160e11b1490506109b9565b506001949350505050565b6060816000036111465750506040805180820190915260018152600360fc1b602082015290565b8160005b8115611170578061115a816119a9565b91506111699050600a836119d8565b915061114a565b60008167ffffffffffffffff81111561118b5761118b611523565b6040519080825280601f01601f1916602001820160405280156111b5576020820181803683370190505b5090505b84156109b9576111ca600183611880565b91506111d7600a866119ec565b6111e2906030611897565b60f81b8183815181106111f7576111f7611a00565b60200101906001600160f81b031916908160001a905350611219600a866119d8565b94506111b9565b6001600160a01b0382166112765760405162461bcd60e51b815260206004820181905260248201527f4552433732313a206d696e7420746f20746865207a65726f206164647265737360448201526064016103e6565b61127f816109ce565b156112cc5760405162461bcd60e51b815260206004820152601c60248201527f4552433732313a20746f6b656e20616c7265616479206d696e7465640000000060448201526064016103e6565b6001600160a01b03821660009081526003602052604081208054600192906112f5908490611897565b909155505060008181526002602052604080822080546001600160a01b0319166001600160a01b03861690811790915590518392907fddf252ad1be2c89b69c2b068fc378daa952ba7f163c4a11628f55a4df523b3ef908290a45050565b82805461135f9061177d565b90600052602060002090601f01602090048101928261138157600085556113c7565b82601f1061139a57805160ff19168380011785556113c7565b828001600101855582156113c7579182015b828111156113c75782518255916020019190600101906113ac565b506113d39291506113d7565b5090565b5b808211156113d357600081556001016113d8565b6001600160e01b03198116811461140257600080fd5b50565b60006020828403121561141757600080fd5b8135610fe4816113ec565b60005b8381101561143d578181015183820152602001611425565b838111156108455750506000910152565b60008151808452611466816020860160208601611422565b601f01601f19169290920160200192915050565b602081526000610fe4602083018461144e565b60006020828403121561149f57600080fd5b5035919050565b80356001600160a01b0381168114610e0d57600080fd5b600080604083850312156114d057600080fd5b6114d9836114a6565b946020939093013593505050565b6000806000606084860312156114fc57600080fd5b611505846114a6565b9250611513602085016114a6565b9150604084013590509250925092565b634e487b7160e01b600052604160045260246000fd5b600067ffffffffffffffff8084111561155457611554611523565b604051601f8501601f19908116603f0116810190828211818310171561157c5761157c611523565b8160405280935085815286868601111561159557600080fd5b858560208301376000602087830101525050509392505050565b600082601f8301126115c057600080fd5b610fe483833560208501611539565b600080604083850312156115e257600080fd5b6115eb836114a6565b9150602083013567ffffffffffffffff81111561160757600080fd5b611613858286016115af565b9150509250929050565b6000806040838503121561163057600080fd5b823567ffffffffffffffff8082111561164857600080fd5b611654868387016115af565b9350602085013591508082111561166a57600080fd5b50611613858286016115af565b60006020828403121561168957600080fd5b610fe4826114a6565b600080604083850312156116a557600080fd5b6116ae836114a6565b9150602083013580151581146116c357600080fd5b809150509250929050565b600080600080608085870312156116e457600080fd5b6116ed856114a6565b93506116fb602086016114a6565b925060408501359150606085013567ffffffffffffffff81111561171e57600080fd5b8501601f8101871361172f57600080fd5b61173e87823560208401611539565b91505092959194509250565b6000806040838503121561175d57600080fd5b611766836114a6565b9150611774602084016114a6565b90509250929050565b600181811c9082168061179157607f821691505b6020821081036117b157634e487b7160e01b600052602260045260246000fd5b50919050565b60208082526031908201527f4552433732313a207472616e736665722063616c6c6572206973206e6f74206f6040820152701ddb995c881b9bdc88185c1c1c9bdd9959607a1b606082015260800190565b8381526001600160a01b03831660208201526060604082018190526000906118329083018461144e565b95945050505050565b6000835161184d818460208801611422565b835190830190611861818360208801611422565b01949350505050565b634e487b7160e01b600052601160045260246000fd5b6000828210156118925761189261186a565b500390565b600082198211156118aa576118aa61186a565b500190565b6020808252602e908201527f496e697469616c697a61626c653a20636f6e747261637420697320616c72656160408201526d191e481a5b9a5d1a585b1a5e995960921b606082015260800190565b60208082526032908201527f4552433732313a207472616e7366657220746f206e6f6e20455243373231526560408201527131b2b4bb32b91034b6b83632b6b2b73a32b960711b606082015260800190565b6001600160a01b03858116825284166020820152604081018390526080606082018190526000906119829083018461144e565b9695505050505050565b60006020828403121561199e57600080fd5b8151610fe4816113ec565b6000600182016119bb576119bb61186a565b5060010190565b634e487b7160e01b600052601260045260246000fd5b6000826119e7576119e76119c2565b500490565b6000826119fb576119fb6119c2565b500690565b634e487b7160e01b600052603260045260246000fdfea2646970667358221220d6576ddc6ad4185e5f7b687f9e0980ef7ebc3f200f7608916989d621bc1236f264736f6c634300080e0033",
  "immutableReferences": {
    "2157": [
      {
        "length": 32,
        "start": 120
      },
      {
        "length": 32,
        "start": 198
      }
    ]
  },
  "source": "// SPDX-License-Identifier: MIT\npragma solidity 0.8.14;\n\nimport \"./NFTCollection.sol\";\nimport \"@openzeppelin/contracts/proxy/Clones.sol\";\n\ncontract Factory {\n    address immutable NFTCollectionImplementation;\n    \n    struct NFTCollectionClone {\n        string collectionName;\n        string collectionSymbol;\n        address creator;\n    }\n\n    mapping(address=>NFTCollectionClone) public NFTCollections; \n    \n    event CollectionCreated(\n        address _creator,\n        string _collectionName,\n        string _collectionSymbol,\n        address _collectionAddress,\n        uint _timestamp\n    );\n\n    constructor() {\n       NFTCollectionImplementation = address(new NFTCollection());\n    }\n\n    function createCollection(string memory _name, string memory _symbol) external returns (address) {\n        address clone = Clones.clone(NFTCollectionImplementation);\n        NFTCollection(clone).initialize(_name, _symbol);\n        NFTCollections[clone]= NFTCollectionClone(_name, _symbol, msg.sender);\n        emit CollectionCreated(msg.sender, _name, _symbol, clone, block.timestamp);\n        return clone;\n    }\n\n    function getImplementation() external view returns (address) {\n        return NFTCollectionImplementation;\n    }\n}",
  "sourcePath": "/home/erika/SkyStamps/contracts/Factory.sol",
  "compiler": {
    "name": "solc",
    "version": "0.8.14+commit.80d49f37.Emscripten.clang"
  },
  "schemaVersion": "3.4.6",
  "updatedAt": "2022-05-30T08:30:46.558Z",
  "networkType": "ethereum",
  "devdoc": {
    "kind": "dev",
    "methods": {},
    "version": 1
  },
  "userdoc": {
    "kind": "user",
    "methods": {},
    "version": 1
  }
}