{
  "contractName": "Marketplace",
  "abi": [
    {
      "anonymous": false,
      "inputs": [
        {
          "indexed": false,
          "internalType": "address",
          "name": "userAdress",
          "type": "address"
        },
        {
          "indexed": false,
          "internalType": "uint256",
          "name": "amount",
          "type": "uint256"
        }
      ],
      "name": "ClaimedSalesRevenue",
      "type": "event"
    },
    {
      "anonymous": false,
      "inputs": [
        {
          "indexed": false,
          "internalType": "address",
          "name": "_creator",
          "type": "address"
        },
        {
          "indexed": false,
          "internalType": "string",
          "name": "_collectionName",
          "type": "string"
        },
        {
          "indexed": false,
          "internalType": "address",
          "name": "_collectionAddress",
          "type": "address"
        },
        {
          "indexed": false,
          "internalType": "uint256",
          "name": "_timestamp",
          "type": "uint256"
        }
      ],
      "name": "CollectionCreated",
      "type": "event"
    },
    {
      "anonymous": false,
      "inputs": [
        {
          "indexed": false,
          "internalType": "address",
          "name": "seller",
          "type": "address"
        },
        {
          "indexed": false,
          "internalType": "address",
          "name": "tokenCollection",
          "type": "address"
        },
        {
          "indexed": false,
          "internalType": "uint256",
          "name": "tokenId",
          "type": "uint256"
        }
      ],
      "name": "ListingCanceled",
      "type": "event"
    },
    {
      "anonymous": false,
      "inputs": [
        {
          "indexed": true,
          "internalType": "address",
          "name": "previousOwner",
          "type": "address"
        },
        {
          "indexed": true,
          "internalType": "address",
          "name": "newOwner",
          "type": "address"
        }
      ],
      "name": "OwnershipTransferred",
      "type": "event"
    },
    {
      "anonymous": false,
      "inputs": [
        {
          "indexed": false,
          "internalType": "address",
          "name": "operator",
          "type": "address"
        },
        {
          "indexed": false,
          "internalType": "address",
          "name": "from",
          "type": "address"
        },
        {
          "indexed": false,
          "internalType": "uint256",
          "name": "tokenId",
          "type": "uint256"
        },
        {
          "indexed": false,
          "internalType": "bytes",
          "name": "data",
          "type": "bytes"
        }
      ],
      "name": "ReceivedERC721",
      "type": "event"
    },
    {
      "anonymous": false,
      "inputs": [
        {
          "indexed": false,
          "internalType": "address",
          "name": "seller",
          "type": "address"
        },
        {
          "indexed": false,
          "internalType": "address",
          "name": "tokenCollection",
          "type": "address"
        },
        {
          "indexed": false,
          "internalType": "uint256",
          "name": "tokenId",
          "type": "uint256"
        },
        {
          "indexed": false,
          "internalType": "uint256",
          "name": "price",
          "type": "uint256"
        }
      ],
      "name": "TokenListed",
      "type": "event"
    },
    {
      "anonymous": false,
      "inputs": [
        {
          "indexed": false,
          "internalType": "address",
          "name": "seller",
          "type": "address"
        },
        {
          "indexed": false,
          "internalType": "address",
          "name": "buyer",
          "type": "address"
        },
        {
          "indexed": false,
          "internalType": "address",
          "name": "tokenCollection",
          "type": "address"
        },
        {
          "indexed": false,
          "internalType": "uint256",
          "name": "tokenId",
          "type": "uint256"
        },
        {
          "indexed": false,
          "internalType": "uint256",
          "name": "price",
          "type": "uint256"
        }
      ],
      "name": "TokenSold",
      "type": "event"
    },
    {
      "inputs": [
        {
          "internalType": "uint256",
          "name": "",
          "type": "uint256"
        }
      ],
      "name": "_collectionArray",
      "outputs": [
        {
          "internalType": "contract Collection",
          "name": "",
          "type": "address"
        }
      ],
      "stateMutability": "view",
      "type": "function",
      "constant": true
    },
    {
      "inputs": [
        {
          "internalType": "address",
          "name": "",
          "type": "address"
        }
      ],
      "name": "_collectionMap",
      "outputs": [
        {
          "internalType": "contract Collection",
          "name": "",
          "type": "address"
        }
      ],
      "stateMutability": "view",
      "type": "function",
      "constant": true
    },
    {
      "inputs": [
        {
          "internalType": "address",
          "name": "collectionAddress",
          "type": "address"
        },
        {
          "internalType": "uint256",
          "name": "tokenId",
          "type": "uint256"
        }
      ],
      "name": "buyListedToken",
      "outputs": [],
      "stateMutability": "payable",
      "type": "function",
      "payable": true
    },
    {
      "inputs": [
        {
          "internalType": "address",
          "name": "collectionAddress",
          "type": "address"
        },
        {
          "internalType": "uint256",
          "name": "tokenId",
          "type": "uint256"
        }
      ],
      "name": "cancelListing",
      "outputs": [],
      "stateMutability": "nonpayable",
      "type": "function"
    },
    {
      "inputs": [
        {
          "internalType": "string",
          "name": "name",
          "type": "string"
        },
        {
          "internalType": "string",
          "name": "symbol",
          "type": "string"
        }
      ],
      "name": "createCollection",
      "outputs": [
        {
          "internalType": "address",
          "name": "",
          "type": "address"
        }
      ],
      "stateMutability": "nonpayable",
      "type": "function"
    },
    {
      "inputs": [
        {
          "internalType": "address",
          "name": "collectionAddress",
          "type": "address"
        },
        {
          "internalType": "uint256",
          "name": "tokenId",
          "type": "uint256"
        }
      ],
      "name": "getListing",
      "outputs": [
        {
          "components": [
            {
              "internalType": "address",
              "name": "seller",
              "type": "address"
            },
            {
              "internalType": "address",
              "name": "tokenCollection",
              "type": "address"
            },
            {
              "internalType": "uint256",
              "name": "tokenId",
              "type": "uint256"
            },
            {
              "internalType": "uint256",
              "name": "price",
              "type": "uint256"
            }
          ],
          "internalType": "struct SalesHandler.Listing",
          "name": "",
          "type": "tuple"
        }
      ],
      "stateMutability": "view",
      "type": "function",
      "constant": true
    },
    {
      "inputs": [
        {
          "internalType": "address",
          "name": "callerAddress",
          "type": "address"
        }
      ],
      "name": "getUserUnclaimedSalesRevenue",
      "outputs": [
        {
          "internalType": "uint256",
          "name": "",
          "type": "uint256"
        }
      ],
      "stateMutability": "view",
      "type": "function",
      "constant": true
    },
    {
      "inputs": [
        {
          "internalType": "uint256",
          "name": "tokenId",
          "type": "uint256"
        },
        {
          "internalType": "address",
          "name": "collectionAddress",
          "type": "address"
        },
        {
          "internalType": "uint256",
          "name": "price",
          "type": "uint256"
        }
      ],
      "name": "listToken",
      "outputs": [],
      "stateMutability": "nonpayable",
      "type": "function"
    },
    {
      "inputs": [
        {
          "internalType": "uint256",
          "name": "",
          "type": "uint256"
        }
      ],
      "name": "listingsArray",
      "outputs": [
        {
          "internalType": "address",
          "name": "seller",
          "type": "address"
        },
        {
          "internalType": "address",
          "name": "tokenCollection",
          "type": "address"
        },
        {
          "internalType": "uint256",
          "name": "tokenId",
          "type": "uint256"
        },
        {
          "internalType": "uint256",
          "name": "price",
          "type": "uint256"
        }
      ],
      "stateMutability": "view",
      "type": "function",
      "constant": true
    },
    {
      "inputs": [
        {
          "internalType": "address",
          "name": "",
          "type": "address"
        },
        {
          "internalType": "uint256",
          "name": "",
          "type": "uint256"
        }
      ],
      "name": "listingsMap",
      "outputs": [
        {
          "internalType": "address",
          "name": "seller",
          "type": "address"
        },
        {
          "internalType": "address",
          "name": "tokenCollection",
          "type": "address"
        },
        {
          "internalType": "uint256",
          "name": "tokenId",
          "type": "uint256"
        },
        {
          "internalType": "uint256",
          "name": "price",
          "type": "uint256"
        }
      ],
      "stateMutability": "view",
      "type": "function",
      "constant": true
    },
    {
      "inputs": [
        {
          "internalType": "address",
          "name": "operator",
          "type": "address"
        },
        {
          "internalType": "address",
          "name": "from",
          "type": "address"
        },
        {
          "internalType": "uint256",
          "name": "tokenId",
          "type": "uint256"
        },
        {
          "internalType": "bytes",
          "name": "data",
          "type": "bytes"
        }
      ],
      "name": "onERC721Received",
      "outputs": [
        {
          "internalType": "bytes4",
          "name": "",
          "type": "bytes4"
        }
      ],
      "stateMutability": "nonpayable",
      "type": "function"
    },
    {
      "inputs": [],
      "name": "owner",
      "outputs": [
        {
          "internalType": "address",
          "name": "",
          "type": "address"
        }
      ],
      "stateMutability": "view",
      "type": "function",
      "constant": true
    },
    {
      "inputs": [],
      "name": "renounceOwnership",
      "outputs": [],
      "stateMutability": "nonpayable",
      "type": "function"
    },
    {
      "inputs": [],
      "name": "retrieveUserUnclaimedSales",
      "outputs": [],
      "stateMutability": "nonpayable",
      "type": "function"
    },
    {
      "inputs": [
        {
          "internalType": "address",
          "name": "newOwner",
          "type": "address"
        }
      ],
      "name": "transferOwnership",
      "outputs": [],
      "stateMutability": "nonpayable",
      "type": "function"
    }
  ],
  "bytecode": "0x608060405234801561001057600080fd5b50610033610025640100000000610038810204565b64010000000061003c810204565b61008c565b3390565b60008054600160a060020a03838116600160a060020a0319831681178455604051919092169283917f8be0079c531659141344cd1fd0a4f28419497f9722a3daafe3b4186f6b6457e09190a35050565b613f178061009b6000396000f3fe60806040526004361062000118576000357c01000000000000000000000000000000000000000000000000000000009004806398b4b19d11620000b2578063d8a42695116200007d578063d8a4269514620003ac578063de81627d14620003c3578063eb72bdc314620003fd578063f2fde38b146200041557600080fd5b806398b4b19d14620002d1578063b14b808f146200032e578063b2ddee061462000362578063d1879180146200038757600080fd5b8063715018a611620000f3578063715018a6146200020757806388700d1c14620002215780638da5cb5b146200028c57806393ff77e614620002ac57600080fd5b8063150b7a02146200011d578063176b9b75146200017857806348fb8c2214620001b6575b600080fd5b3480156200012a57600080fd5b50620001426200013c3660046200154b565b6200043a565b6040517fffffffff0000000000000000000000000000000000000000000000000000000090911681526020015b60405180910390f35b3480156200018557600080fd5b506200019d62000197366004620016a1565b620004a8565b604051600160a060020a0390911681526020016200016f565b348015620001c357600080fd5b50620001db620001d53660046200170c565b620005ae565b60408051600160a060020a0395861681529490931660208501529183015260608201526080016200016f565b3480156200021457600080fd5b506200021f620005f5565b005b3480156200022e57600080fd5b50620002466200024036600462001726565b62000666565b6040516200016f91906000608082019050600160a060020a0380845116835280602085015116602084015250604083015160408301526060830151606083015292915050565b3480156200029957600080fd5b50600054600160a060020a03166200019d565b348015620002b957600080fd5b506200019d620002cb3660046200170c565b620006e4565b348015620002de57600080fd5b50620001db620002f036600462001726565b600360208181526000938452604080852090915291835291208054600182015460028301549290930154600160a060020a0391821693909116919084565b3480156200033b57600080fd5b50620003536200034d36600462001755565b6200070f565b6040519081526020016200016f565b3480156200036f57600080fd5b506200021f6200038136600462001726565b620007c6565b3480156200039457600080fd5b506200021f620003a636600462001775565b6200093e565b6200021f620003bd36600462001726565b62000e63565b348015620003d057600080fd5b506200019d620003e236600462001755565b600160205260009081526040902054600160a060020a031681565b3480156200040a57600080fd5b506200021f62001068565b3480156200042257600080fd5b506200021f6200043436600462001755565b62001101565b60007f704acbd78ec3b91be2b9ad500cb94982b7a04f55964ea1a85935fff752ed1e5b868686868660405162000475959493929190620017b0565b60405180910390a1507f150b7a020000000000000000000000000000000000000000000000000000000095945050505050565b600080620004b8848433620011ef565b6040517ff2fde38b000000000000000000000000000000000000000000000000000000008152336004820152909150600160a060020a0382169063f2fde38b90602401600060405180830381600087803b1580156200051657600080fd5b505af11580156200052b573d6000803e3d6000fd5b50505050620005a7816002805460018181019092557f405787fa12a823e0f2b7631cc41b3ba8828b3321ca811111fa75cd3aa3bb5ace018054600160a060020a0390931673ffffffffffffffffffffffffffffffffffffffff199384168117909155600081815260209290925260409091208054909216179055565b9392505050565b60048181548110620005bf57600080fd5b60009182526020909120600490910201805460018201546002830154600390930154600160a060020a0392831694509116919084565b600054600160a060020a03163314620006585760405160e560020a62461bcd02815260206004820181905260248201527f4f776e61626c653a2063616c6c6572206973206e6f7420746865206f776e657260448201526064015b60405180910390fd5b62000664600062001274565b565b60408051608081018252600080825260208201819052918101829052606081019190915250600160a060020a0391821660009081526003602081815260408084209484529381529183902083516080810185528154861681526001820154909516928501929092526002820154928401929092520154606082015290565b60028181548110620006f557600080fd5b600091825260209091200154600160a060020a0316905081565b600033600160a060020a0383161480620007335750600054600160a060020a031633145b620007aa5760405160e560020a62461bcd02815260206004820152603460248201527f596f752063616e74207669657720736f6d656f6e6520656c7365277320756e6360448201527f6c61696d65642073616c657320726576656e756500000000000000000000000060648201526084016200064f565b50600160a060020a031660009081526005602052604090205490565b620007d2828262000666565b51600160a060020a03163314620008555760405160e560020a62461bcd02815260206004820152602360248201527f596f7520617265206e6f74207468652073656c6c6572206f662074686520546f60448201527f6b656e000000000000000000000000000000000000000000000000000000000060648201526084016200064f565b600160a060020a03808316600090815260016020526040908190205490517f42842e0e0000000000000000000000000000000000000000000000000000000081529116906342842e0e90620008b39030903390869060040162001804565b600060405180830381600087803b158015620008ce57600080fd5b505af1158015620008e3573d6000803e3d6000fd5b50505050620008fd620008f7838362000666565b620012d1565b7ffb87149f10f1ffda9c1df55fae0d68fe643c8be0790eec2f859205ed312cd68b338383604051620009329392919062001804565b60405180910390a15050565b600160a060020a03828116600090815260016020526040908190205490517f6352211e0000000000000000000000000000000000000000000000000000000081526004810186905233929190911690636352211e90602401602060405180830381865afa158015620009b4573d6000803e3d6000fd5b505050506040513d601f19601f82011682018060405250810190620009da919062001828565b600160a060020a03161462000a5b5760405160e560020a62461bcd02815260206004820152602f60248201527f596f752063616e742070757420666f722073616c65206120746f6b656e20746860448201527f617420796f7520646f6e74206f776e000000000000000000000000000000000060648201526084016200064f565b600160a060020a03828116600090815260016020526040908190205490517f6352211e0000000000000000000000000000000000000000000000000000000081526004810186905230929190911690636352211e90602401602060405180830381865afa15801562000ad1573d6000803e3d6000fd5b505050506040513d601f19601f8201168201806040525081019062000af7919062001828565b600160a060020a0316148062000baf5750600160a060020a03828116600090815260016020526040908190205490517f081812fc000000000000000000000000000000000000000000000000000000008152600481018690523092919091169063081812fc90602401602060405180830381865afa15801562000b7e573d6000803e3d6000fd5b505050506040513d601f19601f8201168201806040525081019062000ba4919062001828565b600160a060020a0316145b62000c265760405160e560020a62461bcd02815260206004820152602f60248201527f506c6561736520617070726f76652074686520636f6e747261637420666f722060448201527f74686520746f6b656e206669727374000000000000000000000000000000000060648201526084016200064f565b600160a060020a03808316600090815260016020526040908190205490517f42842e0e0000000000000000000000000000000000000000000000000000000081529116906342842e0e9062000c849033903090889060040162001804565b600060405180830381600087803b15801562000c9f57600080fd5b505af115801562000cb4573d6000803e3d6000fd5b505060408051608081018252338152600160a060020a0386811660208084019182528385018a815260608501898152600480546001808201835560008381528951929093027f8a35acfbc15ff81a39ae7d344fd709f28e8600b4aa8c65c6b64bfe7fe36bd19b81018054938a1673ffffffffffffffffffffffffffffffffffffffff1994851617905587517f8a35acfbc15ff81a39ae7d344fd709f28e8600b4aa8c65c6b64bfe7fe36bd19c82018054918b169185168217905586517f8a35acfbc15ff81a39ae7d344fd709f28e8600b4aa8c65c6b64bfe7fe36bd19d83015585517f8a35acfbc15ff81a39ae7d344fd709f28e8600b4aa8c65c6b64bfe7fe36bd19e90920191909155835260038087528a84208651855290965298909120875181549088169083161781559451978501805498909616971696909617909355915160028201559251920191909155915062000e0d9050565b60408051338152600160a060020a0385166020820152908101859052606081018390527ff89e92ffa126a1220c78d929debeb20f1739d1e2409dd51b3cef7261627356099060800160405180910390a150505050565b600062000e71838362000666565b905033600160a060020a03168160000151600160a060020a03160362000edd5760405160e560020a62461bcd02815260206004820152601d60248201527f596f752063616e742062757920796f7572206f776e206c697374696e6700000060448201526064016200064f565b8060600151341462000f355760405160e560020a62461bcd02815260206004820152600e60248201527f50726963652069732077726f6e6700000000000000000000000000000000000060448201526064016200064f565b600160a060020a03808416600090815260016020526040908190205490517f42842e0e0000000000000000000000000000000000000000000000000000000081529116906342842e0e9062000f939030903390879060040162001804565b600060405180830381600087803b15801562000fae57600080fd5b505af115801562000fc3573d6000803e3d6000fd5b50505060608201518251600160a060020a0316600090815260056020526040812080549293509162000ff790849062001861565b9091555050805160608083015160408051600160a060020a039485168152336020820152938716848201529183018590526080830152517f2f0996da6c077604b5bde68e82fc6389b549462f3d448d4bda60ad38e1a739869181900360a00190a16200106381620012d1565b505050565b336000908152600560205260409020546200108257600080fd5b33600081815260056020526040808220805490839055905190929183156108fc02918491818181858888f19350505050158015620010c4573d6000803e3d6000fd5b5060408051338152602081018390527f2e4305b19a40dff3785c92220db07d8767bf83d637e4772f7a6cd43cb80e755d910160405180910390a150565b600054600160a060020a03163314620011605760405160e560020a62461bcd02815260206004820181905260248201527f4f776e61626c653a2063616c6c6572206973206e6f7420746865206f776e657260448201526064016200064f565b600160a060020a038116620011e15760405160e560020a62461bcd02815260206004820152602660248201527f4f776e61626c653a206e6577206f776e657220697320746865207a65726f206160448201527f646472657373000000000000000000000000000000000000000000000000000060648201526084016200064f565b620011ec8162001274565b50565b60008383604051620012019062001527565b6200120e929190620018cc565b604051809103906000f0801580156200122b573d6000803e3d6000fd5b5090507fe19d8d04e5734b7d9524339d0e610412d19224aee9dfd3813cfb37feb9af098f82858342604051620012659493929190620018fe565b60405180910390a19392505050565b60008054600160a060020a0383811673ffffffffffffffffffffffffffffffffffffffff19831681178455604051919092169283917f8be0079c531659141344cd1fd0a4f28419497f9722a3daafe3b4186f6b6457e09190a35050565b602080820151600160a060020a0316600090815260038083526040808320818601518452909352918120805473ffffffffffffffffffffffffffffffffffffffff1990811682556001820180549091169055600281018290559091018190555b600454811015620013db578160200151600160a060020a03166004828154811062001360576200136062001935565b6000918252602090912060016004909202010154600160a060020a0316148015620013b55750816040015160048281548110620013a157620013a162001935565b906000526020600020906004020160020154145b15620013c657620013c681620013df565b80620013d2816200194e565b91505062001331565b5050565b6004548110620013ec5750565b805b600454620013ff906001906200196a565b811015620014c55760046200141682600162001861565b8154811062001429576200142962001935565b9060005260206000209060040201600482815481106200144d576200144d62001935565b6000918252602090912082546004909202018054600160a060020a0392831673ffffffffffffffffffffffffffffffffffffffff199182161782556001808501549083018054919094169116179091556002808301549082015560039182015491015580620014bc816200194e565b915050620013ee565b506004805480620014da57620014da62001984565b600082815260208120600460001990930192830201805473ffffffffffffffffffffffffffffffffffffffff19908116825560018201805490911690556002810182905560030155905550565b612544806200199e83390190565b600160a060020a0381168114620011ec57600080fd5b6000806000806000608086880312156200156457600080fd5b8535620015718162001535565b94506020860135620015838162001535565b935060408601359250606086013567ffffffffffffffff80821115620015a857600080fd5b818801915088601f830112620015bd57600080fd5b813581811115620015cd57600080fd5b896020828501011115620015e057600080fd5b9699959850939650602001949392505050565b60e060020a634e487b7102600052604160045260246000fd5b600082601f8301126200161e57600080fd5b813567ffffffffffffffff808211156200163c576200163c620015f3565b604051601f8301601f19908116603f01168101908282118183101715620016675762001667620015f3565b816040528381528660208588010111156200168157600080fd5b836020870160208301376000602085830101528094505050505092915050565b60008060408385031215620016b557600080fd5b823567ffffffffffffffff80821115620016ce57600080fd5b620016dc868387016200160c565b93506020850135915080821115620016f357600080fd5b5062001702858286016200160c565b9150509250929050565b6000602082840312156200171f57600080fd5b5035919050565b600080604083850312156200173a57600080fd5b8235620017478162001535565b946020939093013593505050565b6000602082840312156200176857600080fd5b8135620005a78162001535565b6000806000606084860312156200178b57600080fd5b8335925060208401356200179f8162001535565b929592945050506040919091013590565b6000600160a060020a03808816835280871660208401525084604083015260806060830152826080830152828460a0840137600060a0848401015260a0601f19601f85011683010190509695505050505050565b600160a060020a039384168152919092166020820152604081019190915260600190565b6000602082840312156200183b57600080fd5b8151620005a78162001535565b60e060020a634e487b7102600052601160045260246000fd5b6000821982111562001877576200187762001848565b500190565b6000815180845260005b81811015620018a45760208185018101518683018201520162001886565b81811115620018b7576000602083870101525b50601f01601f19169290920160200192915050565b604081526000620018e160408301856200187c565b8281036020840152620018f581856200187c565b95945050505050565b6000600160a060020a038087168352608060208401526200192360808401876200187c565b94166040830152506060015292915050565b60e060020a634e487b7102600052603260045260246000fd5b60006001820162001963576200196362001848565b5060010190565b6000828210156200197f576200197f62001848565b500390565b60e060020a634e487b7102600052603160045260246000fdfe60806040523480156200001157600080fd5b5060405162002544380380620025448339810160408190526200003491620002dd565b604080518082018252600481527f6e616d650000000000000000000000000000000000000000000000000000000060208083019182528351808501909452600684527f73796d626f6c0000000000000000000000000000000000000000000000000000908401528151919291620000ae9160009162000151565b508051620000c490600190602084019062000151565b505050620000f3620000e4620000fb640100000000026401000000009004565b640100000000620000ff810204565b50506200039c565b3390565b600b8054600160a060020a03838116600160a060020a0319831681179093556040519116919082907f8be0079c531659141344cd1fd0a4f28419497f9722a3daafe3b4186f6b6457e090600090a35050565b8280546200015f9062000347565b90600052602060002090601f016020900481019282620001835760008555620001ce565b82601f106200019e57805160ff1916838001178555620001ce565b82800160010185558215620001ce579182015b82811115620001ce578251825591602001919060010190620001b1565b50620001dc929150620001e0565b5090565b5b80821115620001dc5760008155600101620001e1565b7f4e487b7100000000000000000000000000000000000000000000000000000000600052604160045260246000fd5b600082601f8301126200023857600080fd5b81516001604060020a0380821115620002555762000255620001f7565b604051601f8301601f19908116603f01168101908282118183101715620002805762000280620001f7565b816040528381526020925086838588010111156200029d57600080fd5b600091505b83821015620002c15785820183015181830184015290820190620002a2565b83821115620002d35760008385830101525b9695505050505050565b60008060408385031215620002f157600080fd5b82516001604060020a03808211156200030957600080fd5b620003178683870162000226565b935060208501519150808211156200032e57600080fd5b506200033d8582860162000226565b9150509250929050565b6002810460018216806200035c57607f821691505b60208210810362000396577f4e487b7100000000000000000000000000000000000000000000000000000000600052602260045260246000fd5b50919050565b61219880620003ac6000396000f3fe608060405234801561001057600080fd5b5060043610610154576000357c0100000000000000000000000000000000000000000000000000000000900480634f6ccce7116100d557806395d89b411161009957806395d89b41146102a8578063a22cb465146102b0578063b88d4fde146102c3578063c87b56dd146102d6578063e985e9c5146102e9578063f2fde38b1461032557600080fd5b80634f6ccce7146102565780636352211e1461026957806370a082311461027c578063715018a61461028f5780638da5cb5b1461029757600080fd5b806323b872dd1161011c57806323b872dd146101e85780632f745c59146101fb5780633d02d0c91461020e5780633f694fa21461022157806342842e0e1461024357600080fd5b806301ffc9a71461015957806306fdde0314610181578063081812fc14610196578063095ea7b3146101c157806318160ddd146101d6575b600080fd5b61016c610167366004611b70565b610338565b60405190151581526020015b60405180910390f35b610189610349565b6040516101789190611be5565b6101a96101a4366004611bf8565b6103db565b604051600160a060020a039091168152602001610178565b6101d46101cf366004611c2d565b61047c565b005b6008545b604051908152602001610178565b6101d46101f6366004611c57565b6105b3565b6101da610209366004611c2d565b6105e7565b6101d461021c366004611d22565b610692565b61023461022f366004611bf8565b610792565b60405161017893929190611d84565b6101d4610251366004611c57565b61083d565b6101da610264366004611bf8565b610858565b6101a9610277366004611bf8565b6108ff565b6101da61028a366004611dac565b61098d565b6101d4610a2a565b600b54600160a060020a03166101a9565b610189610a63565b6101d46102be366004611dc7565b610a72565b6101d46102d1366004611e03565b610a81565b6101896102e4366004611bf8565b610abc565b61016c6102f7366004611e7f565b600160a060020a03918216600090815260056020908152604080832093909416825291909152205460ff1690565b6101d4610333366004611dac565b610ac7565b600061034382610b7f565b92915050565b60606000805461035890611eb2565b80601f016020809104026020016040519081016040528092919081815260200182805461038490611eb2565b80156103d15780601f106103a6576101008083540402835291602001916103d1565b820191906000526020600020905b8154815290600101906020018083116103b457829003601f168201915b5050505050905090565b60006103e682610bbd565b6104605760405160e560020a62461bcd02815260206004820152602c60248201527f4552433732313a20617070726f76656420717565727920666f72206e6f6e657860448201527f697374656e7420746f6b656e000000000000000000000000000000000000000060648201526084015b60405180910390fd5b50600090815260046020526040902054600160a060020a031690565b6000610487826108ff565b905080600160a060020a031683600160a060020a0316036105135760405160e560020a62461bcd02815260206004820152602160248201527f4552433732313a20617070726f76616c20746f2063757272656e74206f776e6560448201527f72000000000000000000000000000000000000000000000000000000000000006064820152608401610457565b33600160a060020a038216148061052f575061052f81336102f7565b6105a45760405160e560020a62461bcd02815260206004820152603860248201527f4552433732313a20617070726f76652063616c6c6572206973206e6f74206f7760448201527f6e6572206e6f7220617070726f76656420666f7220616c6c00000000000000006064820152608401610457565b6105ae8383610bda565b505050565b6105bd3382610c55565b6105dc5760405160e560020a62461bcd02815260040161045790611eef565b6105ae838383610d53565b60006105f28361098d565b82106106695760405160e560020a62461bcd02815260206004820152602b60248201527f455243373231456e756d657261626c653a206f776e657220696e646578206f7560448201527f74206f6620626f756e64730000000000000000000000000000000000000000006064820152608401610457565b50600160a060020a03919091166000908152600660209081526040808320938352929052205490565b600b54600160a060020a031633146106bf5760405160e560020a62461bcd02815260040161045790611f4c565b60006106ca600c5490565b90506106d68382610f3e565b7fec2cd236ed6d37bf5a71276ac93889db12834493a090efd543a3d2eca8dcdcc881848460405161070993929190611f81565b60405180910390a161071b8183610f58565b604051806060016040528082815260200142815260200183815250600d6000610743600c5490565b815260200190815260200160002060008201518160000155602082015181600101556040820151816002019080519060200190610781929190611ac1565b5050600c8054600101905550505050565b600d60205260009081526040902080546001820154600283018054929391926107ba90611eb2565b80601f01602080910402602001604051908101604052809291908181526020018280546107e690611eb2565b80156108335780601f1061080857610100808354040283529160200191610833565b820191906000526020600020905b81548152906001019060200180831161081657829003601f168201915b5050505050905083565b6105ae83838360405180602001604052806000815250610a81565b600061086360085490565b82106108da5760405160e560020a62461bcd02815260206004820152602c60248201527f455243373231456e756d657261626c653a20676c6f62616c20696e646578206f60448201527f7574206f6620626f756e647300000000000000000000000000000000000000006064820152608401610457565b600882815481106108ed576108ed611fa9565b90600052602060002001549050919050565b600081815260026020526040812054600160a060020a0316806103435760405160e560020a62461bcd02815260206004820152602960248201527f4552433732313a206f776e657220717565727920666f72206e6f6e657869737460448201527f656e7420746f6b656e00000000000000000000000000000000000000000000006064820152608401610457565b6000600160a060020a038216610a0e5760405160e560020a62461bcd02815260206004820152602a60248201527f4552433732313a2062616c616e636520717565727920666f7220746865207a6560448201527f726f2061646472657373000000000000000000000000000000000000000000006064820152608401610457565b50600160a060020a031660009081526003602052604090205490565b600b54600160a060020a03163314610a575760405160e560020a62461bcd02815260040161045790611f4c565b610a616000610ff5565b565b60606001805461035890611eb2565b610a7d338383611054565b5050565b610a8b3383610c55565b610aaa5760405160e560020a62461bcd02815260040161045790611eef565b610ab684848484611125565b50505050565b60606103438261115b565b600b54600160a060020a03163314610af45760405160e560020a62461bcd02815260040161045790611f4c565b600160a060020a038116610b735760405160e560020a62461bcd02815260206004820152602660248201527f4f776e61626c653a206e6577206f776e657220697320746865207a65726f206160448201527f64647265737300000000000000000000000000000000000000000000000000006064820152608401610457565b610b7c81610ff5565b50565b6000600160e060020a031982167f780e9d630000000000000000000000000000000000000000000000000000000014806103435750610343826112d8565b600090815260026020526040902054600160a060020a0316151590565b6000818152600460205260409020805473ffffffffffffffffffffffffffffffffffffffff1916600160a060020a0384169081179091558190610c1c826108ff565b600160a060020a03167f8c5be1e5ebec7d5bd14f71427d1e84f3dd0314c0f7b2291e5b200ac8c7c3b92560405160405180910390a45050565b6000610c6082610bbd565b610cd55760405160e560020a62461bcd02815260206004820152602c60248201527f4552433732313a206f70657261746f7220717565727920666f72206e6f6e657860448201527f697374656e7420746f6b656e00000000000000000000000000000000000000006064820152608401610457565b6000610ce0836108ff565b905080600160a060020a031684600160a060020a03161480610d275750600160a060020a0380821660009081526005602090815260408083209388168352929052205460ff165b80610d4b575083600160a060020a0316610d40846103db565b600160a060020a0316145b949350505050565b82600160a060020a0316610d66826108ff565b600160a060020a031614610de55760405160e560020a62461bcd02815260206004820152602560248201527f4552433732313a207472616e736665722066726f6d20696e636f72726563742060448201527f6f776e65720000000000000000000000000000000000000000000000000000006064820152608401610457565b600160a060020a038216610e635760405160e560020a62461bcd028152602060048201526024808201527f4552433732313a207472616e7366657220746f20746865207a65726f2061646460448201527f72657373000000000000000000000000000000000000000000000000000000006064820152608401610457565b610e6e838383611373565b610e79600082610bda565b600160a060020a0383166000908152600360205260408120805460019290610ea2908490611fdb565b9091555050600160a060020a0382166000908152600360205260408120805460019290610ed0908490611ff2565b9091555050600081815260026020526040808220805473ffffffffffffffffffffffffffffffffffffffff1916600160a060020a0386811691821790925591518493918716917fddf252ad1be2c89b69c2b068fc378daa952ba7f163c4a11628f55a4df523b3ef91a4505050565b610a7d82826040518060200160405280600081525061137e565b610f6182610bbd565b610fd65760405160e560020a62461bcd02815260206004820152602e60248201527f45524337323155524953746f726167653a2055524920736574206f66206e6f6e60448201527f6578697374656e7420746f6b656e0000000000000000000000000000000000006064820152608401610457565b6000828152600a6020908152604090912082516105ae92840190611ac1565b600b8054600160a060020a0383811673ffffffffffffffffffffffffffffffffffffffff19831681179093556040519116919082907f8be0079c531659141344cd1fd0a4f28419497f9722a3daafe3b4186f6b6457e090600090a35050565b81600160a060020a031683600160a060020a0316036110b85760405160e560020a62461bcd02815260206004820152601960248201527f4552433732313a20617070726f766520746f2063616c6c6572000000000000006044820152606401610457565b600160a060020a03838116600081815260056020908152604080832094871680845294825291829020805460ff191686151590811790915591519182527f17307eab39ab6107e8899845ad3d59bd9653f200f220920489ca2b5937696c31910160405180910390a3505050565b611130848484610d53565b61113c848484846113b4565b610ab65760405160e560020a62461bcd0281526004016104579061200a565b606061116682610bbd565b6111db5760405160e560020a62461bcd02815260206004820152603160248201527f45524337323155524953746f726167653a2055524920717565727920666f722060448201527f6e6f6e6578697374656e7420746f6b656e0000000000000000000000000000006064820152608401610457565b6000828152600a6020526040812080546111f490611eb2565b80601f016020809104026020016040519081016040528092919081815260200182805461122090611eb2565b801561126d5780601f106112425761010080835404028352916020019161126d565b820191906000526020600020905b81548152906001019060200180831161125057829003601f168201915b50505050509050600061128b60408051602081019091526000815290565b9050805160000361129d575092915050565b8151156112cf5780826040516020016112b7929190612067565b60405160208183030381529060405292505050919050565b610d4b846114ea565b6000600160e060020a031982167f80ac58cd00000000000000000000000000000000000000000000000000000000148061133b5750600160e060020a031982167f5b5e139f00000000000000000000000000000000000000000000000000000000145b8061034357507f01ffc9a700000000000000000000000000000000000000000000000000000000600160e060020a0319831614610343565b6105ae8383836115d3565b611388838361168b565b61139560008484846113b4565b6105ae5760405160e560020a62461bcd0281526004016104579061200a565b6000600160a060020a0384163b156114df576040517f150b7a02000000000000000000000000000000000000000000000000000000008152600160a060020a0385169063150b7a0290611411903390899088908890600401612096565b6020604051808303816000875af192505050801561144c575060408051601f3d908101601f19168201909252611449918101906120d2565b60015b6114ac573d80801561147a576040519150601f19603f3d011682016040523d82523d6000602084013e61147f565b606091505b5080516000036114a45760405160e560020a62461bcd0281526004016104579061200a565b805181602001fd5b600160e060020a0319167f150b7a0200000000000000000000000000000000000000000000000000000000149050610d4b565b506001949350505050565b60606114f582610bbd565b61156a5760405160e560020a62461bcd02815260206004820152602f60248201527f4552433732314d657461646174613a2055524920717565727920666f72206e6f60448201527f6e6578697374656e7420746f6b656e00000000000000000000000000000000006064820152608401610457565b600061158160408051602081019091526000815290565b905060008151116115a157604051806020016040528060008152506115cc565b806115ab846117dd565b6040516020016115bc929190612067565b6040516020818303038152906040525b9392505050565b600160a060020a03831661162e5761162981600880546000838152600960205260408120829055600182018355919091527ff3f7a9fe364faab93b216da50a3214154f22a0a2b415b23a84c8169e8b636ee30155565b611651565b81600160a060020a031683600160a060020a031614611651576116518382611931565b600160a060020a038216611668576105ae816119ce565b82600160a060020a031682600160a060020a0316146105ae576105ae8282611a7d565b600160a060020a0382166116e45760405160e560020a62461bcd02815260206004820181905260248201527f4552433732313a206d696e7420746f20746865207a65726f20616464726573736044820152606401610457565b6116ed81610bbd565b1561173d5760405160e560020a62461bcd02815260206004820152601c60248201527f4552433732313a20746f6b656e20616c7265616479206d696e746564000000006044820152606401610457565b61174960008383611373565b600160a060020a0382166000908152600360205260408120805460019290611772908490611ff2565b9091555050600081815260026020526040808220805473ffffffffffffffffffffffffffffffffffffffff1916600160a060020a03861690811790915590518392907fddf252ad1be2c89b69c2b068fc378daa952ba7f163c4a11628f55a4df523b3ef908290a45050565b60608160000361182057505060408051808201909152600181527f3000000000000000000000000000000000000000000000000000000000000000602082015290565b8160005b811561184a5780611834816120ef565b91506118439050600a83612121565b9150611824565b60008167ffffffffffffffff81111561186557611865611c93565b6040519080825280601f01601f19166020018201604052801561188f576020820181803683370190505b5090505b8415610d4b576118a4600183611fdb565b91506118b1600a86612135565b6118bc906030611ff2565b7f0100000000000000000000000000000000000000000000000000000000000000028183815181106118f0576118f0611fa9565b60200101907effffffffffffffffffffffffffffffffffffffffffffffffffffffffffffff1916908160001a90535061192a600a86612121565b9450611893565b6000600161193e8461098d565b6119489190611fdb565b60008381526007602052604090205490915080821461199b57600160a060020a03841660009081526006602090815260408083208584528252808320548484528184208190558352600790915290208190555b506000918252600760209081526040808420849055600160a060020a039094168352600681528383209183525290812055565b6008546000906119e090600190611fdb565b60008381526009602052604081205460088054939450909284908110611a0857611a08611fa9565b906000526020600020015490508060088381548110611a2957611a29611fa9565b6000918252602080832090910192909255828152600990915260408082208490558582528120556008805480611a6157611a61612149565b6001900381819060005260206000200160009055905550505050565b6000611a888361098d565b600160a060020a039093166000908152600660209081526040808320868452825280832085905593825260079052919091209190915550565b828054611acd90611eb2565b90600052602060002090601f016020900481019282611aef5760008555611b35565b82601f10611b0857805160ff1916838001178555611b35565b82800160010185558215611b35579182015b82811115611b35578251825591602001919060010190611b1a565b50611b41929150611b45565b5090565b5b80821115611b415760008155600101611b46565b600160e060020a031981168114610b7c57600080fd5b600060208284031215611b8257600080fd5b81356115cc81611b5a565b60005b83811015611ba8578181015183820152602001611b90565b83811115610ab65750506000910152565b60008151808452611bd1816020860160208601611b8d565b601f01601f19169290920160200192915050565b6020815260006115cc6020830184611bb9565b600060208284031215611c0a57600080fd5b5035919050565b8035600160a060020a0381168114611c2857600080fd5b919050565b60008060408385031215611c4057600080fd5b611c4983611c11565b946020939093013593505050565b600080600060608486031215611c6c57600080fd5b611c7584611c11565b9250611c8360208501611c11565b9150604084013590509250925092565b60e060020a634e487b7102600052604160045260246000fd5b600067ffffffffffffffff80841115611cc757611cc7611c93565b604051601f8501601f19908116603f01168101908282118183101715611cef57611cef611c93565b81604052809350858152868686011115611d0857600080fd5b858560208301376000602087830101525050509392505050565b60008060408385031215611d3557600080fd5b611d3e83611c11565b9150602083013567ffffffffffffffff811115611d5a57600080fd5b8301601f81018513611d6b57600080fd5b611d7a85823560208401611cac565b9150509250929050565b838152826020820152606060408201526000611da36060830184611bb9565b95945050505050565b600060208284031215611dbe57600080fd5b6115cc82611c11565b60008060408385031215611dda57600080fd5b611de383611c11565b915060208301358015158114611df857600080fd5b809150509250929050565b60008060008060808587031215611e1957600080fd5b611e2285611c11565b9350611e3060208601611c11565b925060408501359150606085013567ffffffffffffffff811115611e5357600080fd5b8501601f81018713611e6457600080fd5b611e7387823560208401611cac565b91505092959194509250565b60008060408385031215611e9257600080fd5b611e9b83611c11565b9150611ea960208401611c11565b90509250929050565b600281046001821680611ec657607f821691505b602082108103611ee95760e060020a634e487b7102600052602260045260246000fd5b50919050565b60208082526031908201527f4552433732313a207472616e736665722063616c6c6572206973206e6f74206f60408201527f776e6572206e6f7220617070726f766564000000000000000000000000000000606082015260800190565b6020808252818101527f4f776e61626c653a2063616c6c6572206973206e6f7420746865206f776e6572604082015260600190565b838152600160a060020a0383166020820152606060408201526000611da36060830184611bb9565b60e060020a634e487b7102600052603260045260246000fd5b60e060020a634e487b7102600052601160045260246000fd5b600082821015611fed57611fed611fc2565b500390565b6000821982111561200557612005611fc2565b500190565b60208082526032908201527f4552433732313a207472616e7366657220746f206e6f6e20455243373231526560408201527f63656976657220696d706c656d656e7465720000000000000000000000000000606082015260800190565b60008351612079818460208801611b8d565b83519083019061208d818360208801611b8d565b01949350505050565b6000600160a060020a038087168352808616602084015250836040830152608060608301526120c86080830184611bb9565b9695505050505050565b6000602082840312156120e457600080fd5b81516115cc81611b5a565b60006001820161210157612101611fc2565b5060010190565b60e060020a634e487b7102600052601260045260246000fd5b60008261213057612130612108565b500490565b60008261214457612144612108565b500690565b60e060020a634e487b7102600052603160045260246000fdfea2646970667358221220b1ddf11c0c1ed846abfd83653954942b473e317d286cfc83a4d71ba4abe8cc3a64736f6c634300080d0033a2646970667358221220dc4a836ac71717f02d847547ea2eedc1aaaf982f9b6b4b6221fd924f681bca1b64736f6c634300080d0033",
  "immutableReferences": {},
  "source": "// SPDX-License-Identifier: MIT\npragma solidity 0.8.13;\nimport \"./SalesHandler.sol\";\nimport \"./CollectionHandler.sol\";\n\n/** @title Marketplace\n  * @author Domingues Ludovic\n  * @dev Marketplace contract that implements the contracts CollectionHandler and SalesHandler \n  */\ncontract Marketplace is CollectionHandler, SalesHandler{}",
  "sourcePath": "/home/erika/NFTPlatform/contracts/Marketplace.sol",
  "compiler": {
    "name": "solc",
    "version": "0.8.13+commit.abaa5c0e.Emscripten.clang"
  },
  "schemaVersion": "3.4.6",
  "updatedAt": "2022-05-15T20:06:04.173Z",
  "networkType": "ethereum",
  "devdoc": {
    "author": "Domingues Ludovic",
    "details": "Marketplace contract that implements the contracts CollectionHandler and SalesHandler ",
    "kind": "dev",
    "methods": {
      "createCollection(string,string)": {
        "details": "Deploy the ERC-721 Collection contract of the artist caller,     transfer the ownership to him and add it to our storage.     Emits a {CollectionCreated} Event",
        "returns": {
          "_0": "the address of the created collection contract"
        }
      },
      "onERC721Received(address,address,uint256,bytes)": {
        "details": "Whenever an {IERC721} `tokenId` token is transferred to this contract via {IERC721-safeTransferFrom} by `operator` from `from`, this function is called. It must return its Solidity selector to confirm the token transfer. If any other value is returned or the interface is not implemented by the recipient, the transfer will be reverted. The selector can be obtained in Solidity with `IERC721Receiver.onERC721Received.selector`."
      },
      "owner()": {
        "details": "Returns the address of the current owner."
      },
      "renounceOwnership()": {
        "details": "Leaves the contract without owner. It will not be possible to call `onlyOwner` functions anymore. Can only be called by the current owner. NOTE: Renouncing ownership will leave the contract without an owner, thereby removing any functionality that is only available to the owner."
      },
      "transferOwnership(address)": {
        "details": "Transfers ownership of the contract to a new account (`newOwner`). Can only be called by the current owner."
      }
    },
    "title": "Marketplace",
    "version": 1
  },
  "userdoc": {
    "kind": "user",
    "methods": {
      "_collectionArray(uint256)": {
        "notice": "Array of Collections"
      },
      "_collectionMap(address)": {
        "notice": "Mapping from collection address to the instance of the collection"
      }
    },
    "version": 1
  }
}