{
  "contractName": "Marketplace",
  "abi": [
    {
      "anonymous": false,
      "inputs": [
        {
          "indexed": false,
          "internalType": "string",
          "name": "_artistName",
          "type": "string"
        },
        {
          "indexed": false,
          "internalType": "address",
          "name": "_collectionAddress",
          "type": "address"
        },
        {
          "indexed": false,
          "internalType": "uint256",
          "name": "_timestamp",
          "type": "uint256"
        }
      ],
      "name": "CollectionCreated",
      "type": "event"
    },
    {
      "anonymous": false,
      "inputs": [
        {
          "indexed": true,
          "internalType": "address",
          "name": "previousOwner",
          "type": "address"
        },
        {
          "indexed": true,
          "internalType": "address",
          "name": "newOwner",
          "type": "address"
        }
      ],
      "name": "OwnershipTransferred",
      "type": "event"
    },
    {
      "inputs": [
        {
          "internalType": "address",
          "name": "collectionAddress",
          "type": "address"
        },
        {
          "internalType": "address",
          "name": "userAddress",
          "type": "address"
        }
      ],
      "name": "addCollectionToAddress",
      "outputs": [],
      "stateMutability": "nonpayable",
      "type": "function"
    },
    {
      "inputs": [
        {
          "internalType": "string",
          "name": "name",
          "type": "string"
        },
        {
          "internalType": "string",
          "name": "symbol",
          "type": "string"
        }
      ],
      "name": "createCollection",
      "outputs": [
        {
          "internalType": "address",
          "name": "collectionAddress",
          "type": "address"
        }
      ],
      "stateMutability": "nonpayable",
      "type": "function"
    },
    {
      "inputs": [
        {
          "internalType": "address",
          "name": "collectionAddress",
          "type": "address"
        },
        {
          "internalType": "address",
          "name": "userAddress",
          "type": "address"
        }
      ],
      "name": "hasCollectionLink",
      "outputs": [
        {
          "components": [
            {
              "internalType": "bool",
              "name": "hasLink",
              "type": "bool"
            },
            {
              "internalType": "uint256",
              "name": "linkIndex",
              "type": "uint256"
            }
          ],
          "internalType": "struct CollectionLinker.hasCollectionLinkResult",
          "name": "",
          "type": "tuple"
        }
      ],
      "stateMutability": "view",
      "type": "function",
      "constant": true
    },
    {
      "inputs": [],
      "name": "owner",
      "outputs": [
        {
          "internalType": "address",
          "name": "",
          "type": "address"
        }
      ],
      "stateMutability": "view",
      "type": "function",
      "constant": true
    },
    {
      "inputs": [
        {
          "internalType": "address",
          "name": "collectionAddress",
          "type": "address"
        },
        {
          "internalType": "address",
          "name": "userAddress",
          "type": "address"
        }
      ],
      "name": "removeCollectionToAddress",
      "outputs": [],
      "stateMutability": "nonpayable",
      "type": "function"
    },
    {
      "inputs": [],
      "name": "renounceOwnership",
      "outputs": [],
      "stateMutability": "nonpayable",
      "type": "function"
    },
    {
      "inputs": [
        {
          "internalType": "address",
          "name": "newOwner",
          "type": "address"
        }
      ],
      "name": "transferOwnership",
      "outputs": [],
      "stateMutability": "nonpayable",
      "type": "function"
    },
    {
      "inputs": [
        {
          "internalType": "address",
          "name": "",
          "type": "address"
        },
        {
          "internalType": "uint256",
          "name": "",
          "type": "uint256"
        }
      ],
      "name": "usersCollectionLinks",
      "outputs": [
        {
          "internalType": "address",
          "name": "collectionContractAddress",
          "type": "address"
        },
        {
          "internalType": "bool",
          "name": "hasBalanceInCollection",
          "type": "bool"
        }
      ],
      "stateMutability": "view",
      "type": "function",
      "constant": true
    }
  ],
  "bytecode": "0x608060405234801561001057600080fd5b5061002d61002261003260201b60201c565b61003a60201b60201c565b6100fe565b600033905090565b60008060009054906101000a900473ffffffffffffffffffffffffffffffffffffffff169050816000806101000a81548173ffffffffffffffffffffffffffffffffffffffff021916908373ffffffffffffffffffffffffffffffffffffffff1602179055508173ffffffffffffffffffffffffffffffffffffffff168173ffffffffffffffffffffffffffffffffffffffff167f8be0079c531659141344cd1fd0a4f28419497f9722a3daafe3b4186f6b6457e060405160405180910390a35050565b614a798061010d6000396000f3fe60806040523480156200001157600080fd5b5060043610620000945760003560e01c8063949eecd71162000063578063949eecd71462000134578063b03413b21462000154578063f26cab271462000174578063f2fde38b14620001aa5762000094565b8063176b9b7514620000995780633bc5df3414620000cf578063715018a614620001065780638da5cb5b1462000112575b600080fd5b620000b76004803603810190620000b1919062000ea6565b620001ca565b604051620000c6919062000f70565b60405180910390f35b620000ed6004803603810190620000e7919062000ff9565b62000242565b604051620000fd9291906200105d565b60405180910390f35b62000110620002ad565b005b6200011c6200033e565b6040516200012b919062000f70565b60405180910390f35b6200015260048036038101906200014c91906200108a565b62000367565b005b6200017260048036038101906200016c91906200108a565b6200084e565b005b6200019260048036038101906200018c91906200108a565b620009d0565b604051620001a1919062001126565b60405180910390f35b620001c86004803603810190620001c2919062001143565b62000b37565b005b600080604051620001db9062000d06565b604051809103906000f080158015620001f8573d6000803e3d6000fd5b5090507f390c6973f7c33da4f84f0fc3f9077215df1bd11473219153515709b655cdbcd9848342604051620002309392919062001219565b60405180910390a18091505092915050565b600160205281600052604060002081815481106200025f57600080fd5b90600052602060002001600091509150508060000160009054906101000a900473ffffffffffffffffffffffffffffffffffffffff16908060000160149054906101000a900460ff16905082565b620002b762000c3a565b73ffffffffffffffffffffffffffffffffffffffff16620002d76200033e565b73ffffffffffffffffffffffffffffffffffffffff161462000330576040517f08c379a00000000000000000000000000000000000000000000000000000000081526004016200032790620012ad565b60405180910390fd5b6200033c600062000c42565b565b60008060009054906101000a900473ffffffffffffffffffffffffffffffffffffffff16905090565b6200037162000c3a565b73ffffffffffffffffffffffffffffffffffffffff16620003916200033e565b73ffffffffffffffffffffffffffffffffffffffff1614620003ea576040517f08c379a0000000000000000000000000000000000000000000000000000000008152600401620003e190620012ad565b60405180910390fd5b6000620003f88383620009d0565b905080600001511562000849576000600160008473ffffffffffffffffffffffffffffffffffffffff1673ffffffffffffffffffffffffffffffffffffffff1681526020019081526020016000208260200151815481106200045f576200045e620012cf565b5b906000526020600020016040518060400160405290816000820160009054906101000a900473ffffffffffffffffffffffffffffffffffffffff1673ffffffffffffffffffffffffffffffffffffffff1673ffffffffffffffffffffffffffffffffffffffff1681526020016000820160149054906101000a900460ff1615151515815250509050600160008473ffffffffffffffffffffffffffffffffffffffff1673ffffffffffffffffffffffffffffffffffffffff16815260200190815260200160002060018060008673ffffffffffffffffffffffffffffffffffffffff1673ffffffffffffffffffffffffffffffffffffffff168152602001908152602001600020805490506200057691906200132d565b815481106200058a5762000589620012cf565b5b90600052602060002001600160008573ffffffffffffffffffffffffffffffffffffffff1673ffffffffffffffffffffffffffffffffffffffff168152602001908152602001600020836020015181548110620005ec57620005eb620012cf565b5b906000526020600020016000820160009054906101000a900473ffffffffffffffffffffffffffffffffffffffff168160000160006101000a81548173ffffffffffffffffffffffffffffffffffffffff021916908373ffffffffffffffffffffffffffffffffffffffff1602179055506000820160149054906101000a900460ff168160000160146101000a81548160ff02191690831515021790555090505080600160008573ffffffffffffffffffffffffffffffffffffffff1673ffffffffffffffffffffffffffffffffffffffff16815260200190815260200160002060018060008773ffffffffffffffffffffffffffffffffffffffff1673ffffffffffffffffffffffffffffffffffffffff168152602001908152602001600020805490506200071d91906200132d565b81548110620007315762000730620012cf565b5b9060005260206000200160008201518160000160006101000a81548173ffffffffffffffffffffffffffffffffffffffff021916908373ffffffffffffffffffffffffffffffffffffffff16021790555060208201518160000160146101000a81548160ff021916908315150217905550905050600160008473ffffffffffffffffffffffffffffffffffffffff1673ffffffffffffffffffffffffffffffffffffffff168152602001908152602001600020805480620007f757620007f662001368565b5b60019003818190600052602060002001600080820160006101000a81549073ffffffffffffffffffffffffffffffffffffffff02191690556000820160146101000a81549060ff021916905550509055505b505050565b6200085862000c3a565b73ffffffffffffffffffffffffffffffffffffffff16620008786200033e565b73ffffffffffffffffffffffffffffffffffffffff1614620008d1576040517f08c379a0000000000000000000000000000000000000000000000000000000008152600401620008c890620012ad565b60405180910390fd5b600160008273ffffffffffffffffffffffffffffffffffffffff1673ffffffffffffffffffffffffffffffffffffffff16815260200190815260200160002060405180604001604052808473ffffffffffffffffffffffffffffffffffffffff168152602001600115158152509080600181540180825580915050600190039060005260206000200160009091909190915060008201518160000160006101000a81548173ffffffffffffffffffffffffffffffffffffffff021916908373ffffffffffffffffffffffffffffffffffffffff16021790555060208201518160000160146101000a81548160ff02191690831515021790555050505050565b620009da62000d14565b60005b600160008473ffffffffffffffffffffffffffffffffffffffff1673ffffffffffffffffffffffffffffffffffffffff1681526020019081526020016000208054905081101562000b14578373ffffffffffffffffffffffffffffffffffffffff16600160008573ffffffffffffffffffffffffffffffffffffffff1673ffffffffffffffffffffffffffffffffffffffff168152602001908152602001600020828154811062000a935762000a92620012cf565b5b9060005260206000200160000160009054906101000a900473ffffffffffffffffffffffffffffffffffffffff1673ffffffffffffffffffffffffffffffffffffffff160362000afe5760405180604001604052806001151581526020018281525091505062000b31565b808062000b0b9062001397565b915050620009dd565b506040518060400160405280600015158152602001600081525090505b92915050565b62000b4162000c3a565b73ffffffffffffffffffffffffffffffffffffffff1662000b616200033e565b73ffffffffffffffffffffffffffffffffffffffff161462000bba576040517f08c379a000000000000000000000000000000000000000000000000000000000815260040162000bb190620012ad565b60405180910390fd5b600073ffffffffffffffffffffffffffffffffffffffff168173ffffffffffffffffffffffffffffffffffffffff160362000c2c576040517f08c379a000000000000000000000000000000000000000000000000000000000815260040162000c23906200145a565b60405180910390fd5b62000c378162000c42565b50565b600033905090565b60008060009054906101000a900473ffffffffffffffffffffffffffffffffffffffff169050816000806101000a81548173ffffffffffffffffffffffffffffffffffffffff021916908373ffffffffffffffffffffffffffffffffffffffff1602179055508173ffffffffffffffffffffffffffffffffffffffff168173ffffffffffffffffffffffffffffffffffffffff167f8be0079c531659141344cd1fd0a4f28419497f9722a3daafe3b4186f6b6457e060405160405180910390a35050565b6135c7806200147d83390190565b6040518060400160405280600015158152602001600081525090565b6000604051905090565b600080fd5b600080fd5b600080fd5b600080fd5b6000601f19601f8301169050919050565b7f4e487b7100000000000000000000000000000000000000000000000000000000600052604160045260246000fd5b62000d998262000d4e565b810181811067ffffffffffffffff8211171562000dbb5762000dba62000d5f565b5b80604052505050565b600062000dd062000d30565b905062000dde828262000d8e565b919050565b600067ffffffffffffffff82111562000e015762000e0062000d5f565b5b62000e0c8262000d4e565b9050602081019050919050565b82818337600083830152505050565b600062000e3f62000e398462000de3565b62000dc4565b90508281526020810184848401111562000e5e5762000e5d62000d49565b5b62000e6b84828562000e19565b509392505050565b600082601f83011262000e8b5762000e8a62000d44565b5b813562000e9d84826020860162000e28565b91505092915050565b6000806040838503121562000ec05762000ebf62000d3a565b5b600083013567ffffffffffffffff81111562000ee15762000ee062000d3f565b5b62000eef8582860162000e73565b925050602083013567ffffffffffffffff81111562000f135762000f1262000d3f565b5b62000f218582860162000e73565b9150509250929050565b600073ffffffffffffffffffffffffffffffffffffffff82169050919050565b600062000f588262000f2b565b9050919050565b62000f6a8162000f4b565b82525050565b600060208201905062000f87600083018462000f5f565b92915050565b62000f988162000f4b565b811462000fa457600080fd5b50565b60008135905062000fb88162000f8d565b92915050565b6000819050919050565b62000fd38162000fbe565b811462000fdf57600080fd5b50565b60008135905062000ff38162000fc8565b92915050565b6000806040838503121562001013576200101262000d3a565b5b6000620010238582860162000fa7565b9250506020620010368582860162000fe2565b9150509250929050565b60008115159050919050565b620010578162001040565b82525050565b600060408201905062001074600083018562000f5f565b6200108360208301846200104c565b9392505050565b60008060408385031215620010a457620010a362000d3a565b5b6000620010b48582860162000fa7565b9250506020620010c78582860162000fa7565b9150509250929050565b620010dc8162001040565b82525050565b620010ed8162000fbe565b82525050565b6040820160008201516200110b6000850182620010d1565b506020820151620011206020850182620010e2565b50505050565b60006040820190506200113d6000830184620010f3565b92915050565b6000602082840312156200115c576200115b62000d3a565b5b60006200116c8482850162000fa7565b91505092915050565b600081519050919050565b600082825260208201905092915050565b60005b83811015620011b157808201518184015260208101905062001194565b83811115620011c1576000848401525b50505050565b6000620011d48262001175565b620011e0818562001180565b9350620011f281856020860162001191565b620011fd8162000d4e565b840191505092915050565b620012138162000fbe565b82525050565b60006060820190508181036000830152620012358186620011c7565b905062001246602083018562000f5f565b62001255604083018462001208565b949350505050565b7f4f776e61626c653a2063616c6c6572206973206e6f7420746865206f776e6572600082015250565b60006200129560208362001180565b9150620012a2826200125d565b602082019050919050565b60006020820190508181036000830152620012c88162001286565b9050919050565b7f4e487b7100000000000000000000000000000000000000000000000000000000600052603260045260246000fd5b7f4e487b7100000000000000000000000000000000000000000000000000000000600052601160045260246000fd5b60006200133a8262000fbe565b9150620013478362000fbe565b9250828210156200135d576200135c620012fe565b5b828203905092915050565b7f4e487b7100000000000000000000000000000000000000000000000000000000600052603160045260246000fd5b6000620013a48262000fbe565b91507fffffffffffffffffffffffffffffffffffffffffffffffffffffffffffffffff8203620013d957620013d8620012fe565b5b600182019050919050565b7f4f776e61626c653a206e6577206f776e657220697320746865207a65726f206160008201527f6464726573730000000000000000000000000000000000000000000000000000602082015250565b60006200144260268362001180565b91506200144f82620013e4565b604082019050919050565b60006020820190508181036000830152620014758162001433565b905091905056fe60806040523480156200001157600080fd5b506040518060400160405280600481526020017f6e616d65000000000000000000000000000000000000000000000000000000008152506040518060400160405280600681526020017f73796d626f6c0000000000000000000000000000000000000000000000000000815250816000908051906020019062000096929190620001a6565b508060019080519060200190620000af929190620001a6565b505050620000d2620000c6620000d860201b60201c565b620000e060201b60201c565b620002ba565b600033905090565b6000600760009054906101000a900473ffffffffffffffffffffffffffffffffffffffff16905081600760006101000a81548173ffffffffffffffffffffffffffffffffffffffff021916908373ffffffffffffffffffffffffffffffffffffffff1602179055508173ffffffffffffffffffffffffffffffffffffffff168173ffffffffffffffffffffffffffffffffffffffff167f8be0079c531659141344cd1fd0a4f28419497f9722a3daafe3b4186f6b6457e060405160405180910390a35050565b828054620001b49062000285565b90600052602060002090601f016020900481019282620001d8576000855562000224565b82601f10620001f357805160ff191683800117855562000224565b8280016001018555821562000224579182015b828111156200022357825182559160200191906001019062000206565b5b50905062000233919062000237565b5090565b5b808211156200025257600081600090555060010162000238565b5090565b7f4e487b7100000000000000000000000000000000000000000000000000000000600052602260045260246000fd5b600060028204905060018216806200029e57607f821691505b602082108103620002b457620002b362000256565b5b50919050565b6132fd80620002ca6000396000f3fe608060405234801561001057600080fd5b50600436106101165760003560e01c806370a08231116100a2578063a22cb46511610071578063a22cb465146102e1578063b88d4fde146102fd578063c87b56dd14610319578063e985e9c514610349578063f2fde38b1461037957610116565b806370a082311461026b578063715018a61461029b5780638da5cb5b146102a557806395d89b41146102c357610116565b806323b872dd116100e957806323b872dd146101b557806337746cc5146101d15780633d02d0c91461020357806342842e0e1461021f5780636352211e1461023b57610116565b806301ffc9a71461011b57806306fdde031461014b578063081812fc14610169578063095ea7b314610199575b600080fd5b61013560048036038101906101309190611e93565b610395565b6040516101429190611edb565b60405180910390f35b610153610477565b6040516101609190611f8f565b60405180910390f35b610183600480360381019061017e9190611fe7565b610509565b6040516101909190612055565b60405180910390f35b6101b360048036038101906101ae919061209c565b61058e565b005b6101cf60048036038101906101ca91906120dc565b6106a5565b005b6101eb60048036038101906101e6919061209c565b610705565b6040516101fa9392919061213e565b60405180910390f35b61021d600480360381019061021891906122b1565b6107d4565b005b610239600480360381019061023491906120dc565b61093f565b005b61025560048036038101906102509190611fe7565b61095f565b6040516102629190612055565b60405180910390f35b6102856004803603810190610280919061230d565b610a10565b604051610292919061233a565b60405180910390f35b6102a3610ac7565b005b6102ad610b4f565b6040516102ba9190612055565b60405180910390f35b6102cb610b79565b6040516102d89190611f8f565b60405180910390f35b6102fb60048036038101906102f69190612381565b610c0b565b005b61031760048036038101906103129190612462565b610c21565b005b610333600480360381019061032e9190611fe7565b610c83565b6040516103409190611f8f565b60405180910390f35b610363600480360381019061035e91906124e5565b610dd4565b6040516103709190611edb565b60405180910390f35b610393600480360381019061038e919061230d565b610e68565b005b60007f80ac58cd000000000000000000000000000000000000000000000000000000007bffffffffffffffffffffffffffffffffffffffffffffffffffffffff1916827bffffffffffffffffffffffffffffffffffffffffffffffffffffffff1916148061046057507f5b5e139f000000000000000000000000000000000000000000000000000000007bffffffffffffffffffffffffffffffffffffffffffffffffffffffff1916827bffffffffffffffffffffffffffffffffffffffffffffffffffffffff1916145b80610470575061046f82610f5f565b5b9050919050565b60606000805461048690612554565b80601f01602080910402602001604051908101604052809291908181526020018280546104b290612554565b80156104ff5780601f106104d4576101008083540402835291602001916104ff565b820191906000526020600020905b8154815290600101906020018083116104e257829003601f168201915b5050505050905090565b600061051482610fc9565b610553576040517f08c379a000000000000000000000000000000000000000000000000000000000815260040161054a906125f7565b60405180910390fd5b6004600083815260200190815260200160002060009054906101000a900473ffffffffffffffffffffffffffffffffffffffff169050919050565b60006105998261095f565b90508073ffffffffffffffffffffffffffffffffffffffff168373ffffffffffffffffffffffffffffffffffffffff1603610609576040517f08c379a000000000000000000000000000000000000000000000000000000000815260040161060090612689565b60405180910390fd5b8073ffffffffffffffffffffffffffffffffffffffff16610628611035565b73ffffffffffffffffffffffffffffffffffffffff161480610657575061065681610651611035565b610dd4565b5b610696576040517f08c379a000000000000000000000000000000000000000000000000000000000815260040161068d9061271b565b60405180910390fd5b6106a0838361103d565b505050565b6106b66106b0611035565b826110f6565b6106f5576040517f08c379a00000000000000000000000000000000000000000000000000000000081526004016106ec906127ad565b60405180910390fd5b6107008383836111d4565b505050565b6009602052816000526040600020818154811061072157600080fd5b90600052602060002090600302016000915091505080600001549080600101549080600201805461075190612554565b80601f016020809104026020016040519081016040528092919081815260200182805461077d90612554565b80156107ca5780601f1061079f576101008083540402835291602001916107ca565b820191906000526020600020905b8154815290600101906020018083116107ad57829003601f168201915b5050505050905083565b8173ffffffffffffffffffffffffffffffffffffffff166107f3610b4f565b73ffffffffffffffffffffffffffffffffffffffff1603610849576040517f08c379a00000000000000000000000000000000000000000000000000000000081526004016108409061283f565b60405180910390fd5b610853600861143a565b600061085f6008611450565b905061086b338261145e565b600960008473ffffffffffffffffffffffffffffffffffffffff1673ffffffffffffffffffffffffffffffffffffffff16815260200190815260200160002060405180606001604052808381526020014281526020016040518060200160405280600081525081525090806001815401808255809150506001900390600052602060002090600302016000909190919091506000820151816000015560208201518160010155604082015181600201908051906020019061092d929190611d84565b50505061093a818361147c565b505050565b61095a83838360405180602001604052806000815250610c21565b505050565b6000806002600084815260200190815260200160002060009054906101000a900473ffffffffffffffffffffffffffffffffffffffff169050600073ffffffffffffffffffffffffffffffffffffffff168173ffffffffffffffffffffffffffffffffffffffff1603610a07576040517f08c379a00000000000000000000000000000000000000000000000000000000081526004016109fe906128d1565b60405180910390fd5b80915050919050565b60008073ffffffffffffffffffffffffffffffffffffffff168273ffffffffffffffffffffffffffffffffffffffff1603610a80576040517f08c379a0000000000000000000000000000000000000000000000000000000008152600401610a7790612963565b60405180910390fd5b600360008373ffffffffffffffffffffffffffffffffffffffff1673ffffffffffffffffffffffffffffffffffffffff168152602001908152602001600020549050919050565b610acf611035565b73ffffffffffffffffffffffffffffffffffffffff16610aed610b4f565b73ffffffffffffffffffffffffffffffffffffffff1614610b43576040517f08c379a0000000000000000000000000000000000000000000000000000000008152600401610b3a906129cf565b60405180910390fd5b610b4d60006114f0565b565b6000600760009054906101000a900473ffffffffffffffffffffffffffffffffffffffff16905090565b606060018054610b8890612554565b80601f0160208091040260200160405190810160405280929190818152602001828054610bb490612554565b8015610c015780601f10610bd657610100808354040283529160200191610c01565b820191906000526020600020905b815481529060010190602001808311610be457829003601f168201915b5050505050905090565b610c1d610c16611035565b83836115b6565b5050565b610c32610c2c611035565b836110f6565b610c71576040517f08c379a0000000000000000000000000000000000000000000000000000000008152600401610c68906127ad565b60405180910390fd5b610c7d84848484611722565b50505050565b6060610c8e82610fc9565b610ccd576040517f08c379a0000000000000000000000000000000000000000000000000000000008152600401610cc490612a61565b60405180910390fd5b6000600660008481526020019081526020016000208054610ced90612554565b80601f0160208091040260200160405190810160405280929190818152602001828054610d1990612554565b8015610d665780601f10610d3b57610100808354040283529160200191610d66565b820191906000526020600020905b815481529060010190602001808311610d4957829003601f168201915b505050505090506000610d7761177e565b90506000815103610d8c578192505050610dcf565b600082511115610dc1578082604051602001610da9929190612abd565b60405160208183030381529060405292505050610dcf565b610dca84611795565b925050505b919050565b6000600560008473ffffffffffffffffffffffffffffffffffffffff1673ffffffffffffffffffffffffffffffffffffffff16815260200190815260200160002060008373ffffffffffffffffffffffffffffffffffffffff1673ffffffffffffffffffffffffffffffffffffffff16815260200190815260200160002060009054906101000a900460ff16905092915050565b610e70611035565b73ffffffffffffffffffffffffffffffffffffffff16610e8e610b4f565b73ffffffffffffffffffffffffffffffffffffffff1614610ee4576040517f08c379a0000000000000000000000000000000000000000000000000000000008152600401610edb906129cf565b60405180910390fd5b600073ffffffffffffffffffffffffffffffffffffffff168173ffffffffffffffffffffffffffffffffffffffff1603610f53576040517f08c379a0000000000000000000000000000000000000000000000000000000008152600401610f4a90612b53565b60405180910390fd5b610f5c816114f0565b50565b60007f01ffc9a7000000000000000000000000000000000000000000000000000000007bffffffffffffffffffffffffffffffffffffffffffffffffffffffff1916827bffffffffffffffffffffffffffffffffffffffffffffffffffffffff1916149050919050565b60008073ffffffffffffffffffffffffffffffffffffffff166002600084815260200190815260200160002060009054906101000a900473ffffffffffffffffffffffffffffffffffffffff1673ffffffffffffffffffffffffffffffffffffffff1614159050919050565b600033905090565b816004600083815260200190815260200160002060006101000a81548173ffffffffffffffffffffffffffffffffffffffff021916908373ffffffffffffffffffffffffffffffffffffffff160217905550808273ffffffffffffffffffffffffffffffffffffffff166110b08361095f565b73ffffffffffffffffffffffffffffffffffffffff167f8c5be1e5ebec7d5bd14f71427d1e84f3dd0314c0f7b2291e5b200ac8c7c3b92560405160405180910390a45050565b600061110182610fc9565b611140576040517f08c379a000000000000000000000000000000000000000000000000000000000815260040161113790612be5565b60405180910390fd5b600061114b8361095f565b90508073ffffffffffffffffffffffffffffffffffffffff168473ffffffffffffffffffffffffffffffffffffffff16148061118d575061118c8185610dd4565b5b806111cb57508373ffffffffffffffffffffffffffffffffffffffff166111b384610509565b73ffffffffffffffffffffffffffffffffffffffff16145b91505092915050565b8273ffffffffffffffffffffffffffffffffffffffff166111f48261095f565b73ffffffffffffffffffffffffffffffffffffffff161461124a576040517f08c379a000000000000000000000000000000000000000000000000000000000815260040161124190612c77565b60405180910390fd5b600073ffffffffffffffffffffffffffffffffffffffff168273ffffffffffffffffffffffffffffffffffffffff16036112b9576040517f08c379a00000000000000000000000000000000000000000000000000000000081526004016112b090612d09565b60405180910390fd5b6112c483838361183c565b6112cf60008261103d565b6001600360008573ffffffffffffffffffffffffffffffffffffffff1673ffffffffffffffffffffffffffffffffffffffff168152602001908152602001600020600082825461131f9190612d58565b925050819055506001600360008473ffffffffffffffffffffffffffffffffffffffff1673ffffffffffffffffffffffffffffffffffffffff16815260200190815260200160002060008282546113769190612d8c565b92505081905550816002600083815260200190815260200160002060006101000a81548173ffffffffffffffffffffffffffffffffffffffff021916908373ffffffffffffffffffffffffffffffffffffffff160217905550808273ffffffffffffffffffffffffffffffffffffffff168473ffffffffffffffffffffffffffffffffffffffff167fddf252ad1be2c89b69c2b068fc378daa952ba7f163c4a11628f55a4df523b3ef60405160405180910390a4611435838383611841565b505050565b6001816000016000828254019250508190555050565b600081600001549050919050565b611478828260405180602001604052806000815250611846565b5050565b61148582610fc9565b6114c4576040517f08c379a00000000000000000000000000000000000000000000000000000000081526004016114bb90612e54565b60405180910390fd5b806006600084815260200190815260200160002090805190602001906114eb929190611d84565b505050565b6000600760009054906101000a900473ffffffffffffffffffffffffffffffffffffffff16905081600760006101000a81548173ffffffffffffffffffffffffffffffffffffffff021916908373ffffffffffffffffffffffffffffffffffffffff1602179055508173ffffffffffffffffffffffffffffffffffffffff168173ffffffffffffffffffffffffffffffffffffffff167f8be0079c531659141344cd1fd0a4f28419497f9722a3daafe3b4186f6b6457e060405160405180910390a35050565b8173ffffffffffffffffffffffffffffffffffffffff168373ffffffffffffffffffffffffffffffffffffffff1603611624576040517f08c379a000000000000000000000000000000000000000000000000000000000815260040161161b90612ec0565b60405180910390fd5b80600560008573ffffffffffffffffffffffffffffffffffffffff1673ffffffffffffffffffffffffffffffffffffffff16815260200190815260200160002060008473ffffffffffffffffffffffffffffffffffffffff1673ffffffffffffffffffffffffffffffffffffffff16815260200190815260200160002060006101000a81548160ff0219169083151502179055508173ffffffffffffffffffffffffffffffffffffffff168373ffffffffffffffffffffffffffffffffffffffff167f17307eab39ab6107e8899845ad3d59bd9653f200f220920489ca2b5937696c31836040516117159190611edb565b60405180910390a3505050565b61172d8484846111d4565b611739848484846118a1565b611778576040517f08c379a000000000000000000000000000000000000000000000000000000000815260040161176f90612f52565b60405180910390fd5b50505050565b606060405180602001604052806000815250905090565b60606117a082610fc9565b6117df576040517f08c379a00000000000000000000000000000000000000000000000000000000081526004016117d690612fe4565b60405180910390fd5b60006117e961177e565b905060008151116118095760405180602001604052806000815250611834565b8061181384611a28565b604051602001611824929190612abd565b6040516020818303038152906040525b915050919050565b505050565b505050565b6118508383611b88565b61185d60008484846118a1565b61189c576040517f08c379a000000000000000000000000000000000000000000000000000000000815260040161189390612f52565b60405180910390fd5b505050565b60006118c28473ffffffffffffffffffffffffffffffffffffffff16611d61565b15611a1b578373ffffffffffffffffffffffffffffffffffffffff1663150b7a026118eb611035565b8786866040518563ffffffff1660e01b815260040161190d9493929190613059565b6020604051808303816000875af192505050801561194957506040513d601f19601f8201168201806040525081019061194691906130ba565b60015b6119cb573d8060008114611979576040519150601f19603f3d011682016040523d82523d6000602084013e61197e565b606091505b5060008151036119c3576040517f08c379a00000000000000000000000000000000000000000000000000000000081526004016119ba90612f52565b60405180910390fd5b805181602001fd5b63150b7a0260e01b7bffffffffffffffffffffffffffffffffffffffffffffffffffffffff1916817bffffffffffffffffffffffffffffffffffffffffffffffffffffffff191614915050611a20565b600190505b949350505050565b606060008203611a6f576040518060400160405280600181526020017f30000000000000000000000000000000000000000000000000000000000000008152509050611b83565b600082905060005b60008214611aa1578080611a8a906130e7565b915050600a82611a9a919061315e565b9150611a77565b60008167ffffffffffffffff811115611abd57611abc612186565b5b6040519080825280601f01601f191660200182016040528015611aef5781602001600182028036833780820191505090505b5090505b60008514611b7c57600182611b089190612d58565b9150600a85611b17919061318f565b6030611b239190612d8c565b60f81b818381518110611b3957611b386131c0565b5b60200101907effffffffffffffffffffffffffffffffffffffffffffffffffffffffffffff1916908160001a905350600a85611b75919061315e565b9450611af3565b8093505050505b919050565b600073ffffffffffffffffffffffffffffffffffffffff168273ffffffffffffffffffffffffffffffffffffffff1603611bf7576040517f08c379a0000000000000000000000000000000000000000000000000000000008152600401611bee9061323b565b60405180910390fd5b611c0081610fc9565b15611c40576040517f08c379a0000000000000000000000000000000000000000000000000000000008152600401611c37906132a7565b60405180910390fd5b611c4c6000838361183c565b6001600360008473ffffffffffffffffffffffffffffffffffffffff1673ffffffffffffffffffffffffffffffffffffffff1681526020019081526020016000206000828254611c9c9190612d8c565b92505081905550816002600083815260200190815260200160002060006101000a81548173ffffffffffffffffffffffffffffffffffffffff021916908373ffffffffffffffffffffffffffffffffffffffff160217905550808273ffffffffffffffffffffffffffffffffffffffff16600073ffffffffffffffffffffffffffffffffffffffff167fddf252ad1be2c89b69c2b068fc378daa952ba7f163c4a11628f55a4df523b3ef60405160405180910390a4611d5d60008383611841565b5050565b6000808273ffffffffffffffffffffffffffffffffffffffff163b119050919050565b828054611d9090612554565b90600052602060002090601f016020900481019282611db25760008555611df9565b82601f10611dcb57805160ff1916838001178555611df9565b82800160010185558215611df9579182015b82811115611df8578251825591602001919060010190611ddd565b5b509050611e069190611e0a565b5090565b5b80821115611e23576000816000905550600101611e0b565b5090565b6000604051905090565b600080fd5b600080fd5b60007fffffffff0000000000000000000000000000000000000000000000000000000082169050919050565b611e7081611e3b565b8114611e7b57600080fd5b50565b600081359050611e8d81611e67565b92915050565b600060208284031215611ea957611ea8611e31565b5b6000611eb784828501611e7e565b91505092915050565b60008115159050919050565b611ed581611ec0565b82525050565b6000602082019050611ef06000830184611ecc565b92915050565b600081519050919050565b600082825260208201905092915050565b60005b83811015611f30578082015181840152602081019050611f15565b83811115611f3f576000848401525b50505050565b6000601f19601f8301169050919050565b6000611f6182611ef6565b611f6b8185611f01565b9350611f7b818560208601611f12565b611f8481611f45565b840191505092915050565b60006020820190508181036000830152611fa98184611f56565b905092915050565b6000819050919050565b611fc481611fb1565b8114611fcf57600080fd5b50565b600081359050611fe181611fbb565b92915050565b600060208284031215611ffd57611ffc611e31565b5b600061200b84828501611fd2565b91505092915050565b600073ffffffffffffffffffffffffffffffffffffffff82169050919050565b600061203f82612014565b9050919050565b61204f81612034565b82525050565b600060208201905061206a6000830184612046565b92915050565b61207981612034565b811461208457600080fd5b50565b60008135905061209681612070565b92915050565b600080604083850312156120b3576120b2611e31565b5b60006120c185828601612087565b92505060206120d285828601611fd2565b9150509250929050565b6000806000606084860312156120f5576120f4611e31565b5b600061210386828701612087565b935050602061211486828701612087565b925050604061212586828701611fd2565b9150509250925092565b61213881611fb1565b82525050565b6000606082019050612153600083018661212f565b612160602083018561212f565b81810360408301526121728184611f56565b9050949350505050565b600080fd5b600080fd5b7f4e487b7100000000000000000000000000000000000000000000000000000000600052604160045260246000fd5b6121be82611f45565b810181811067ffffffffffffffff821117156121dd576121dc612186565b5b80604052505050565b60006121f0611e27565b90506121fc82826121b5565b919050565b600067ffffffffffffffff82111561221c5761221b612186565b5b61222582611f45565b9050602081019050919050565b82818337600083830152505050565b600061225461224f84612201565b6121e6565b9050828152602081018484840111156122705761226f612181565b5b61227b848285612232565b509392505050565b600082601f8301126122985761229761217c565b5b81356122a8848260208601612241565b91505092915050565b600080604083850312156122c8576122c7611e31565b5b60006122d685828601612087565b925050602083013567ffffffffffffffff8111156122f7576122f6611e36565b5b61230385828601612283565b9150509250929050565b60006020828403121561232357612322611e31565b5b600061233184828501612087565b91505092915050565b600060208201905061234f600083018461212f565b92915050565b61235e81611ec0565b811461236957600080fd5b50565b60008135905061237b81612355565b92915050565b6000806040838503121561239857612397611e31565b5b60006123a685828601612087565b92505060206123b78582860161236c565b9150509250929050565b600067ffffffffffffffff8211156123dc576123db612186565b5b6123e582611f45565b9050602081019050919050565b6000612405612400846123c1565b6121e6565b90508281526020810184848401111561242157612420612181565b5b61242c848285612232565b509392505050565b600082601f8301126124495761244861217c565b5b81356124598482602086016123f2565b91505092915050565b6000806000806080858703121561247c5761247b611e31565b5b600061248a87828801612087565b945050602061249b87828801612087565b93505060406124ac87828801611fd2565b925050606085013567ffffffffffffffff8111156124cd576124cc611e36565b5b6124d987828801612434565b91505092959194509250565b600080604083850312156124fc576124fb611e31565b5b600061250a85828601612087565b925050602061251b85828601612087565b9150509250929050565b7f4e487b7100000000000000000000000000000000000000000000000000000000600052602260045260246000fd5b6000600282049050600182168061256c57607f821691505b60208210810361257f5761257e612525565b5b50919050565b7f4552433732313a20617070726f76656420717565727920666f72206e6f6e657860008201527f697374656e7420746f6b656e0000000000000000000000000000000000000000602082015250565b60006125e1602c83611f01565b91506125ec82612585565b604082019050919050565b60006020820190508181036000830152612610816125d4565b9050919050565b7f4552433732313a20617070726f76616c20746f2063757272656e74206f776e6560008201527f7200000000000000000000000000000000000000000000000000000000000000602082015250565b6000612673602183611f01565b915061267e82612617565b604082019050919050565b600060208201905081810360008301526126a281612666565b9050919050565b7f4552433732313a20617070726f76652063616c6c6572206973206e6f74206f7760008201527f6e6572206e6f7220617070726f76656420666f7220616c6c0000000000000000602082015250565b6000612705603883611f01565b9150612710826126a9565b604082019050919050565b60006020820190508181036000830152612734816126f8565b9050919050565b7f4552433732313a207472616e736665722063616c6c6572206973206e6f74206f60008201527f776e6572206e6f7220617070726f766564000000000000000000000000000000602082015250565b6000612797603183611f01565b91506127a28261273b565b604082019050919050565b600060208201905081810360008301526127c68161278a565b9050919050565b7f526563697069656e742063616e6e6f7420626520746865206f776e6572206f6660008201527f2074686520636f6e747261637400000000000000000000000000000000000000602082015250565b6000612829602d83611f01565b9150612834826127cd565b604082019050919050565b600060208201905081810360008301526128588161281c565b9050919050565b7f4552433732313a206f776e657220717565727920666f72206e6f6e657869737460008201527f656e7420746f6b656e0000000000000000000000000000000000000000000000602082015250565b60006128bb602983611f01565b91506128c68261285f565b604082019050919050565b600060208201905081810360008301526128ea816128ae565b9050919050565b7f4552433732313a2062616c616e636520717565727920666f7220746865207a6560008201527f726f206164647265737300000000000000000000000000000000000000000000602082015250565b600061294d602a83611f01565b9150612958826128f1565b604082019050919050565b6000602082019050818103600083015261297c81612940565b9050919050565b7f4f776e61626c653a2063616c6c6572206973206e6f7420746865206f776e6572600082015250565b60006129b9602083611f01565b91506129c482612983565b602082019050919050565b600060208201905081810360008301526129e8816129ac565b9050919050565b7f45524337323155524953746f726167653a2055524920717565727920666f722060008201527f6e6f6e6578697374656e7420746f6b656e000000000000000000000000000000602082015250565b6000612a4b603183611f01565b9150612a56826129ef565b604082019050919050565b60006020820190508181036000830152612a7a81612a3e565b9050919050565b600081905092915050565b6000612a9782611ef6565b612aa18185612a81565b9350612ab1818560208601611f12565b80840191505092915050565b6000612ac98285612a8c565b9150612ad58284612a8c565b91508190509392505050565b7f4f776e61626c653a206e6577206f776e657220697320746865207a65726f206160008201527f6464726573730000000000000000000000000000000000000000000000000000602082015250565b6000612b3d602683611f01565b9150612b4882612ae1565b604082019050919050565b60006020820190508181036000830152612b6c81612b30565b9050919050565b7f4552433732313a206f70657261746f7220717565727920666f72206e6f6e657860008201527f697374656e7420746f6b656e0000000000000000000000000000000000000000602082015250565b6000612bcf602c83611f01565b9150612bda82612b73565b604082019050919050565b60006020820190508181036000830152612bfe81612bc2565b9050919050565b7f4552433732313a207472616e736665722066726f6d20696e636f72726563742060008201527f6f776e6572000000000000000000000000000000000000000000000000000000602082015250565b6000612c61602583611f01565b9150612c6c82612c05565b604082019050919050565b60006020820190508181036000830152612c9081612c54565b9050919050565b7f4552433732313a207472616e7366657220746f20746865207a65726f2061646460008201527f7265737300000000000000000000000000000000000000000000000000000000602082015250565b6000612cf3602483611f01565b9150612cfe82612c97565b604082019050919050565b60006020820190508181036000830152612d2281612ce6565b9050919050565b7f4e487b7100000000000000000000000000000000000000000000000000000000600052601160045260246000fd5b6000612d6382611fb1565b9150612d6e83611fb1565b925082821015612d8157612d80612d29565b5b828203905092915050565b6000612d9782611fb1565b9150612da283611fb1565b9250827fffffffffffffffffffffffffffffffffffffffffffffffffffffffffffffffff03821115612dd757612dd6612d29565b5b828201905092915050565b7f45524337323155524953746f726167653a2055524920736574206f66206e6f6e60008201527f6578697374656e7420746f6b656e000000000000000000000000000000000000602082015250565b6000612e3e602e83611f01565b9150612e4982612de2565b604082019050919050565b60006020820190508181036000830152612e6d81612e31565b9050919050565b7f4552433732313a20617070726f766520746f2063616c6c657200000000000000600082015250565b6000612eaa601983611f01565b9150612eb582612e74565b602082019050919050565b60006020820190508181036000830152612ed981612e9d565b9050919050565b7f4552433732313a207472616e7366657220746f206e6f6e20455243373231526560008201527f63656976657220696d706c656d656e7465720000000000000000000000000000602082015250565b6000612f3c603283611f01565b9150612f4782612ee0565b604082019050919050565b60006020820190508181036000830152612f6b81612f2f565b9050919050565b7f4552433732314d657461646174613a2055524920717565727920666f72206e6f60008201527f6e6578697374656e7420746f6b656e0000000000000000000000000000000000602082015250565b6000612fce602f83611f01565b9150612fd982612f72565b604082019050919050565b60006020820190508181036000830152612ffd81612fc1565b9050919050565b600081519050919050565b600082825260208201905092915050565b600061302b82613004565b613035818561300f565b9350613045818560208601611f12565b61304e81611f45565b840191505092915050565b600060808201905061306e6000830187612046565b61307b6020830186612046565b613088604083018561212f565b818103606083015261309a8184613020565b905095945050505050565b6000815190506130b481611e67565b92915050565b6000602082840312156130d0576130cf611e31565b5b60006130de848285016130a5565b91505092915050565b60006130f282611fb1565b91507fffffffffffffffffffffffffffffffffffffffffffffffffffffffffffffffff820361312457613123612d29565b5b600182019050919050565b7f4e487b7100000000000000000000000000000000000000000000000000000000600052601260045260246000fd5b600061316982611fb1565b915061317483611fb1565b9250826131845761318361312f565b5b828204905092915050565b600061319a82611fb1565b91506131a583611fb1565b9250826131b5576131b461312f565b5b828206905092915050565b7f4e487b7100000000000000000000000000000000000000000000000000000000600052603260045260246000fd5b7f4552433732313a206d696e7420746f20746865207a65726f2061646472657373600082015250565b6000613225602083611f01565b9150613230826131ef565b602082019050919050565b6000602082019050818103600083015261325481613218565b9050919050565b7f4552433732313a20746f6b656e20616c7265616479206d696e74656400000000600082015250565b6000613291601c83611f01565b915061329c8261325b565b602082019050919050565b600060208201905081810360008301526132c081613284565b905091905056fea2646970667358221220c7d28bc886bd7543a516c33eee2222df6fdc09c312e87cb7fc6b4aadc9364eff64736f6c634300080d0033a2646970667358221220fe7183930b16065f1523d128bc61a8d5f5470ec6694e11de495f6fc4ee26e7fe64736f6c634300080d0033",
  "immutableReferences": {},
  "source": "// SPDX-License-Identifier: MIT\npragma solidity 0.8.13;\n\nimport \"@openzeppelin/contracts/access/Ownable.sol\";\nimport \"./CollectionFactory.sol\";\nimport \"./CollectionLinker.sol\";\n\ncontract Marketplace is CollectionLinker,CollectionFactory{\n    \n\n}",
  "sourcePath": "/home/ludo/github/NFTPlatform/contracts/Marketplace.sol",
  "compiler": {
    "name": "solc",
    "version": "0.8.13+commit.abaa5c0e.Emscripten.clang"
  },
  "schemaVersion": "3.4.6",
  "updatedAt": "2022-05-05T20:51:19.847Z",
  "networkType": "ethereum",
  "devdoc": {
    "kind": "dev",
    "methods": {
      "owner()": {
        "details": "Returns the address of the current owner."
      },
      "renounceOwnership()": {
        "details": "Leaves the contract without owner. It will not be possible to call `onlyOwner` functions anymore. Can only be called by the current owner. NOTE: Renouncing ownership will leave the contract without an owner, thereby removing any functionality that is only available to the owner."
      },
      "transferOwnership(address)": {
        "details": "Transfers ownership of the contract to a new account (`newOwner`). Can only be called by the current owner."
      }
    },
    "version": 1
  },
  "userdoc": {
    "kind": "user",
    "methods": {},
    "version": 1
  }
}