{
  "contractName": "Trader",
  "abi": [
    {
      "inputs": [
        {
          "internalType": "address",
          "name": "",
          "type": "address"
        }
      ],
      "name": "balances",
      "outputs": [
        {
          "internalType": "uint256",
          "name": "",
          "type": "uint256"
        }
      ],
      "stateMutability": "view",
      "type": "function"
    },
    {
      "inputs": [
        {
          "internalType": "address",
          "name": "",
          "type": "address"
        },
        {
          "internalType": "uint256",
          "name": "",
          "type": "uint256"
        }
      ],
      "name": "listings",
      "outputs": [
        {
          "internalType": "uint256",
          "name": "price",
          "type": "uint256"
        },
        {
          "internalType": "address",
          "name": "seller",
          "type": "address"
        }
      ],
      "stateMutability": "view",
      "type": "function"
    },
    {
      "inputs": [
        {
          "internalType": "uint256",
          "name": "_price",
          "type": "uint256"
        },
        {
          "internalType": "address",
          "name": "_contractAddress",
          "type": "address"
        },
        {
          "internalType": "uint256",
          "name": "_tokenId",
          "type": "uint256"
        }
      ],
      "name": "addListing",
      "outputs": [],
      "stateMutability": "nonpayable",
      "type": "function"
    },
    {
      "inputs": [
        {
          "internalType": "address",
          "name": "_contractAddress",
          "type": "address"
        },
        {
          "internalType": "uint256",
          "name": "_tokenId",
          "type": "uint256"
        }
      ],
      "name": "buyNFT",
      "outputs": [],
      "stateMutability": "payable",
      "type": "function"
    },
    {
      "inputs": [
        {
          "internalType": "uint256",
          "name": "_amount",
          "type": "uint256"
        },
        {
          "internalType": "address payable",
          "name": "_toAddress",
          "type": "address"
        }
      ],
      "name": "withdraw",
      "outputs": [],
      "stateMutability": "nonpayable",
      "type": "function"
    }
  ],
  "bytecode": "0x608060405234801561001057600080fd5b50610cd8806100206000396000f3fe6080604052600436106100485760003560e01c806207df301461004d578062f714ce1461008b57806327e235e3146100b457806380abbe57146100f1578063a82ba76f1461011a575b600080fd5b34801561005957600080fd5b50610074600480360381019061006f9190610788565b610136565b6040516100829291906107e6565b60405180910390f35b34801561009757600080fd5b506100b260048036038101906100ad919061084d565b610187565b005b3480156100c057600080fd5b506100db60048036038101906100d6919061088d565b6102aa565b6040516100e891906108ba565b60405180910390f35b3480156100fd57600080fd5b50610118600480360381019061011391906108d5565b6102c2565b005b610134600480360381019061012f9190610788565b610512565b005b6000602052816000526040600020602052806000526040600020600091509150508060000154908060010160009054906101000a900473ffffffffffffffffffffffffffffffffffffffff16905082565b600160003373ffffffffffffffffffffffffffffffffffffffff1673ffffffffffffffffffffffffffffffffffffffff16815260200190815260200160002054821115610209576040517f08c379a000000000000000000000000000000000000000000000000000000000815260040161020090610985565b60405180910390fd5b8073ffffffffffffffffffffffffffffffffffffffff166108fc839081150290604051600060405180830381858888f1935050505015801561024f573d6000803e3d6000fd5b5081600160003373ffffffffffffffffffffffffffffffffffffffff1673ffffffffffffffffffffffffffffffffffffffff168152602001908152602001600020600082825461029f91906109d4565b925050819055505050565b60016020528060005260406000206000915090505481565b600082905060008173ffffffffffffffffffffffffffffffffffffffff166370a08231336040518263ffffffff1660e01b81526004016103029190610a08565b602060405180830381865afa15801561031f573d6000803e3d6000fd5b505050506040513d601f19601f820116820180604052508101906103439190610a38565b11610383576040517f08c379a000000000000000000000000000000000000000000000000000000000815260040161037a90610ab1565b60405180910390fd5b8073ffffffffffffffffffffffffffffffffffffffff1663e985e9c533306040518363ffffffff1660e01b81526004016103be929190610ad1565b602060405180830381865afa1580156103db573d6000803e3d6000fd5b505050506040513d601f19601f820116820180604052508101906103ff9190610b32565b61043e576040517f08c379a000000000000000000000000000000000000000000000000000000000815260040161043590610bab565b60405180910390fd5b60405180604001604052808581526020013373ffffffffffffffffffffffffffffffffffffffff168152506000808573ffffffffffffffffffffffffffffffffffffffff1673ffffffffffffffffffffffffffffffffffffffff16815260200190815260200160002060008481526020019081526020016000206000820151816000015560208201518160010160006101000a81548173ffffffffffffffffffffffffffffffffffffffff021916908373ffffffffffffffffffffffffffffffffffffffff16021790555090505050505050565b60008060008473ffffffffffffffffffffffffffffffffffffffff1673ffffffffffffffffffffffffffffffffffffffff1681526020019081526020016000206000838152602001908152602001600020604051806040016040529081600082015481526020016001820160009054906101000a900473ffffffffffffffffffffffffffffffffffffffff1673ffffffffffffffffffffffffffffffffffffffff1673ffffffffffffffffffffffffffffffffffffffff168152505090508060000151341015610617576040517f08c379a000000000000000000000000000000000000000000000000000000000815260040161060e90610985565b60405180910390fd5b3460016000836020015173ffffffffffffffffffffffffffffffffffffffff1673ffffffffffffffffffffffffffffffffffffffff168152602001908152602001600020600082825461066a9190610bcb565b9250508190555060008390508073ffffffffffffffffffffffffffffffffffffffff1663b88d4fde836020015133866040518463ffffffff1660e01b81526004016106b793929190610c58565b600060405180830381600087803b1580156106d157600080fd5b505af11580156106e5573d6000803e3d6000fd5b5050505050505050565b600080fd5b600073ffffffffffffffffffffffffffffffffffffffff82169050919050565b600061071f826106f4565b9050919050565b61072f81610714565b811461073a57600080fd5b50565b60008135905061074c81610726565b92915050565b6000819050919050565b61076581610752565b811461077057600080fd5b50565b6000813590506107828161075c565b92915050565b6000806040838503121561079f5761079e6106ef565b5b60006107ad8582860161073d565b92505060206107be85828601610773565b9150509250929050565b6107d181610752565b82525050565b6107e081610714565b82525050565b60006040820190506107fb60008301856107c8565b61080860208301846107d7565b9392505050565b600061081a826106f4565b9050919050565b61082a8161080f565b811461083557600080fd5b50565b60008135905061084781610821565b92915050565b60008060408385031215610864576108636106ef565b5b600061087285828601610773565b925050602061088385828601610838565b9150509250929050565b6000602082840312156108a3576108a26106ef565b5b60006108b18482850161073d565b91505092915050565b60006020820190506108cf60008301846107c8565b92915050565b6000806000606084860312156108ee576108ed6106ef565b5b60006108fc86828701610773565b935050602061090d8682870161073d565b925050604061091e86828701610773565b9150509250925092565b600082825260208201905092915050565b7f696e73756666696369656e742066756e64730000000000000000000000000000600082015250565b600061096f601283610928565b915061097a82610939565b602082019050919050565b6000602082019050818103600083015261099e81610962565b9050919050565b7f4e487b7100000000000000000000000000000000000000000000000000000000600052601160045260246000fd5b60006109df82610752565b91506109ea83610752565b9250828210156109fd576109fc6109a5565b5b828203905092915050565b6000602082019050610a1d60008301846107d7565b92915050565b600081519050610a328161075c565b92915050565b600060208284031215610a4e57610a4d6106ef565b5b6000610a5c84828501610a23565b91505092915050565b7f63616c6c6572206d757374206f776e20746f6b656e0000000000000000000000600082015250565b6000610a9b601583610928565b9150610aa682610a65565b602082019050919050565b60006020820190508181036000830152610aca81610a8e565b9050919050565b6000604082019050610ae660008301856107d7565b610af360208301846107d7565b9392505050565b60008115159050919050565b610b0f81610afa565b8114610b1a57600080fd5b50565b600081519050610b2c81610b06565b92915050565b600060208284031215610b4857610b476106ef565b5b6000610b5684828501610b1d565b91505092915050565b7f636f6e7472616374206d75737420626520617070726f76656400000000000000600082015250565b6000610b95601983610928565b9150610ba082610b5f565b602082019050919050565b60006020820190508181036000830152610bc481610b88565b9050919050565b6000610bd682610752565b9150610be183610752565b9250827fffffffffffffffffffffffffffffffffffffffffffffffffffffffffffffffff03821115610c1657610c156109a5565b5b828201905092915050565b600082825260208201905092915050565b50565b6000610c42600083610c21565b9150610c4d82610c32565b600082019050919050565b6000608082019050610c6d60008301866107d7565b610c7a60208301856107d7565b610c8760408301846107c8565b8181036060830152610c9881610c35565b905094935050505056fea264697066735822122044a5ec3093633291ade3fb00932a70b9b67bc5570ff4c8e0b79359c02d50a2e064736f6c634300080d0033",
  "immutableReferences": {},
  "source": "// SPDX-License-Identifier: MIT\npragma solidity 0.8.13;\n\nimport \"@openzeppelin/contracts/token/ERC721/ERC721.sol\";\nimport \"@openzeppelin/contracts/token/ERC721/IERC721Receiver.sol\";\n\n\ncontract Trader {   \n    //store NFT to sell data\n    mapping(address => mapping(uint => Listing)) public listings;\n    //store funds received by the seller\n    mapping(address => uint) public balances;\n\n    struct Listing {\n        uint price;\n        address seller;\n    }\n\n    function addListing(uint _price, address _contractAddress, uint _tokenId) public {\n        //interacting with the collection smartcontract\n        ERC721 token = ERC721(_contractAddress);\n        require(token.balanceOf(msg.sender) > 0, \"caller must own token\");\n        require(token.isApprovedForAll(msg.sender, address(this)), \"contract must be approved\");\n\n        listings[_contractAddress][_tokenId] = Listing(_price, msg.sender);   \n    }\n\n    function buyNFT(address _contractAddress, uint _tokenId) public payable {\n        Listing memory item =listings[_contractAddress][_tokenId];\n        require(msg.value >= item.price, \"insufficient funds\");\n        balances[item.seller] += msg.value;\n        ERC721 token = ERC721(_contractAddress);\n        token.safeTransferFrom(item.seller, msg.sender, _tokenId, \"\");\n    }\n\n    function withdraw(uint _amount, address payable _toAddress) public {\n        require(_amount <= balances[msg.sender], \"insufficient funds\");\n\n        _toAddress.transfer(_amount);\n        balances[msg.sender] -= _amount;\n    }\n\n}\n",
  "sourcePath": "/home/erika/NFTPlatform/contracts/Trader.sol",
  "compiler": {
    "name": "solc",
    "version": "0.8.13+commit.abaa5c0e.Emscripten.clang"
  },
  "schemaVersion": "3.4.6",
  "updatedAt": "2022-05-04T08:20:04.052Z",
  "devdoc": {
    "kind": "dev",
    "methods": {},
    "version": 1
  },
  "userdoc": {
    "kind": "user",
    "methods": {},
    "version": 1
  }
}